{
  "_format": "hh-sol-artifact-1",
  "contractName": "OrganicProduceSupplyChain",
  "sourceName": "contracts/OrganicProduceSupplyChain.sol",
  "abi": [
    {
      "inputs": [],
      "stateMutability": "nonpayable",
      "type": "constructor"
    },
    {
      "inputs": [],
      "name": "AccessControlBadConfirmation",
      "type": "error"
    },
    {
      "inputs": [
        {
          "internalType": "address",
          "name": "account",
          "type": "address"
        },
        {
          "internalType": "bytes32",
          "name": "neededRole",
          "type": "bytes32"
        }
      ],
      "name": "AccessControlUnauthorizedAccount",
      "type": "error"
    },
    {
      "anonymous": false,
      "inputs": [
        {
          "indexed": false,
          "internalType": "string",
          "name": "name",
          "type": "string"
        },
        {
          "indexed": false,
          "internalType": "address",
          "name": "owner",
          "type": "address"
        },
        {
          "indexed": false,
          "internalType": "uint256",
          "name": "amount",
          "type": "uint256"
        },
        {
          "indexed": false,
          "internalType": "uint256",
          "name": "timestamp",
          "type": "uint256"
        },
        {
          "indexed": false,
          "internalType": "string",
          "name": "status",
          "type": "string"
        }
      ],
      "name": "ProduceCreated",
      "type": "event"
    },
    {
      "anonymous": false,
      "inputs": [
        {
          "indexed": false,
          "internalType": "uint256",
          "name": "id",
          "type": "uint256"
        },
        {
          "indexed": false,
          "internalType": "address",
          "name": "owner",
          "type": "address"
        },
        {
          "indexed": false,
          "internalType": "uint256",
          "name": "timestamp",
          "type": "uint256"
        },
        {
          "indexed": false,
          "internalType": "string",
          "name": "status",
          "type": "string"
        }
      ],
      "name": "ProduceSoldToCustomer",
      "type": "event"
    },
    {
      "anonymous": false,
      "inputs": [
        {
          "indexed": false,
          "internalType": "uint256",
          "name": "id",
          "type": "uint256"
        },
        {
          "indexed": false,
          "internalType": "address",
          "name": "oldOwner",
          "type": "address"
        },
        {
          "indexed": false,
          "internalType": "address",
          "name": "newOwner",
          "type": "address"
        },
        {
          "indexed": false,
          "internalType": "uint256",
          "name": "timestamp",
          "type": "uint256"
        },
        {
          "indexed": false,
          "internalType": "string",
          "name": "status",
          "type": "string"
        }
      ],
      "name": "ProduceTransferred",
      "type": "event"
    },
    {
      "anonymous": false,
      "inputs": [
        {
          "indexed": true,
          "internalType": "bytes32",
          "name": "role",
          "type": "bytes32"
        },
        {
          "indexed": true,
          "internalType": "bytes32",
          "name": "previousAdminRole",
          "type": "bytes32"
        },
        {
          "indexed": true,
          "internalType": "bytes32",
          "name": "newAdminRole",
          "type": "bytes32"
        }
      ],
      "name": "RoleAdminChanged",
      "type": "event"
    },
    {
      "anonymous": false,
      "inputs": [
        {
          "indexed": true,
          "internalType": "bytes32",
          "name": "role",
          "type": "bytes32"
        },
        {
          "indexed": true,
          "internalType": "address",
          "name": "account",
          "type": "address"
        },
        {
          "indexed": true,
          "internalType": "address",
          "name": "sender",
          "type": "address"
        }
      ],
      "name": "RoleGranted",
      "type": "event"
    },
    {
      "anonymous": false,
      "inputs": [
        {
          "indexed": true,
          "internalType": "bytes32",
          "name": "role",
          "type": "bytes32"
        },
        {
          "indexed": true,
          "internalType": "address",
          "name": "account",
          "type": "address"
        },
        {
          "indexed": true,
          "internalType": "address",
          "name": "sender",
          "type": "address"
        }
      ],
      "name": "RoleRevoked",
      "type": "event"
    },
    {
      "inputs": [],
      "name": "DEFAULT_ADMIN_ROLE",
      "outputs": [
        {
          "internalType": "bytes32",
          "name": "",
          "type": "bytes32"
        }
      ],
      "stateMutability": "view",
      "type": "function"
    },
    {
      "inputs": [],
      "name": "ROLE_AGGREGATOR",
      "outputs": [
        {
          "internalType": "bytes32",
          "name": "",
          "type": "bytes32"
        }
      ],
      "stateMutability": "view",
      "type": "function"
    },
    {
      "inputs": [],
      "name": "ROLE_FARMER",
      "outputs": [
        {
          "internalType": "bytes32",
          "name": "",
          "type": "bytes32"
        }
      ],
      "stateMutability": "view",
      "type": "function"
    },
    {
      "inputs": [],
      "name": "ROLE_RETAILER",
      "outputs": [
        {
          "internalType": "bytes32",
          "name": "",
          "type": "bytes32"
        }
      ],
      "stateMutability": "view",
      "type": "function"
    },
    {
      "inputs": [
        {
          "internalType": "address",
          "name": "_user",
          "type": "address"
        },
        {
          "internalType": "string",
          "name": "_name",
          "type": "string"
        }
      ],
      "name": "addUser",
      "outputs": [],
      "stateMutability": "nonpayable",
      "type": "function"
    },
    {
      "inputs": [
        {
          "internalType": "uint256",
          "name": "",
          "type": "uint256"
        }
      ],
      "name": "aggregators",
      "outputs": [
        {
          "internalType": "address",
          "name": "",
          "type": "address"
        }
      ],
      "stateMutability": "view",
      "type": "function"
    },
    {
      "inputs": [
        {
          "internalType": "uint256",
          "name": "",
          "type": "uint256"
        }
      ],
      "name": "allProduce",
      "outputs": [
        {
          "internalType": "uint256",
          "name": "id",
          "type": "uint256"
        },
        {
          "internalType": "string",
          "name": "name",
          "type": "string"
        },
        {
          "internalType": "address",
          "name": "currentOwner",
          "type": "address"
        },
        {
          "internalType": "uint256",
          "name": "amount",
          "type": "uint256"
        }
      ],
      "stateMutability": "view",
      "type": "function"
    },
    {
      "inputs": [
        {
          "internalType": "string",
          "name": "_name",
          "type": "string"
        },
        {
          "internalType": "uint256",
          "name": "_amount",
          "type": "uint256"
        }
      ],
      "name": "createProduce",
      "outputs": [],
      "stateMutability": "nonpayable",
      "type": "function"
    },
    {
      "inputs": [
        {
          "internalType": "uint256",
          "name": "",
          "type": "uint256"
        }
      ],
      "name": "farmers",
      "outputs": [
        {
          "internalType": "address",
          "name": "",
          "type": "address"
        }
      ],
      "stateMutability": "view",
      "type": "function"
    },
    {
      "inputs": [],
      "name": "getAllAggregators",
      "outputs": [
        {
          "internalType": "address[]",
          "name": "",
          "type": "address[]"
        },
        {
          "internalType": "string[]",
          "name": "",
          "type": "string[]"
        }
      ],
      "stateMutability": "view",
      "type": "function"
    },
    {
      "inputs": [],
      "name": "getAllFarmers",
      "outputs": [
        {
          "internalType": "address[]",
          "name": "",
          "type": "address[]"
        },
        {
          "internalType": "string[]",
          "name": "",
          "type": "string[]"
        }
      ],
      "stateMutability": "view",
      "type": "function"
    },
    {
      "inputs": [],
      "name": "getAllProduce",
      "outputs": [
        {
          "components": [
            {
              "internalType": "uint256",
              "name": "id",
              "type": "uint256"
            },
            {
              "internalType": "string",
              "name": "name",
              "type": "string"
            },
            {
              "internalType": "address",
              "name": "currentOwner",
              "type": "address"
            },
            {
              "internalType": "uint256",
              "name": "amount",
              "type": "uint256"
            }
          ],
          "internalType": "struct OrganicProduceSupplyChain.Produce[]",
          "name": "",
          "type": "tuple[]"
        }
      ],
      "stateMutability": "view",
      "type": "function"
    },
    {
      "inputs": [],
      "name": "getAllRetailers",
      "outputs": [
        {
          "internalType": "address[]",
          "name": "",
          "type": "address[]"
        },
        {
          "internalType": "string[]",
          "name": "",
          "type": "string[]"
        }
      ],
      "stateMutability": "view",
      "type": "function"
    },
    {
      "inputs": [
        {
          "internalType": "uint256",
          "name": "_id",
          "type": "uint256"
        }
      ],
      "name": "getProduceHistory",
      "outputs": [
        {
          "components": [
            {
              "internalType": "address",
              "name": "owner",
              "type": "address"
            },
            {
              "internalType": "uint256",
              "name": "timestamp",
              "type": "uint256"
            },
            {
              "internalType": "string",
              "name": "status",
              "type": "string"
            }
          ],
          "internalType": "struct OrganicProduceSupplyChain.History[]",
          "name": "",
          "type": "tuple[]"
        }
      ],
      "stateMutability": "view",
      "type": "function"
    },
    {
      "inputs": [
        {
          "internalType": "bytes32",
          "name": "role",
          "type": "bytes32"
        }
      ],
      "name": "getRoleAdmin",
      "outputs": [
        {
          "internalType": "bytes32",
          "name": "",
          "type": "bytes32"
        }
      ],
      "stateMutability": "view",
      "type": "function"
    },
    {
      "inputs": [],
      "name": "getUserProduce",
      "outputs": [
        {
          "components": [
            {
              "internalType": "uint256",
              "name": "id",
              "type": "uint256"
            },
            {
              "internalType": "string",
              "name": "name",
              "type": "string"
            },
            {
              "internalType": "address",
              "name": "currentOwner",
              "type": "address"
            },
            {
              "internalType": "uint256",
              "name": "amount",
              "type": "uint256"
            }
          ],
          "internalType": "struct OrganicProduceSupplyChain.Produce[]",
          "name": "",
          "type": "tuple[]"
        }
      ],
      "stateMutability": "view",
      "type": "function"
    },
    {
      "inputs": [
        {
          "internalType": "address",
          "name": "_user",
          "type": "address"
        }
      ],
      "name": "getUsername",
      "outputs": [
        {
          "internalType": "string",
          "name": "",
          "type": "string"
        }
      ],
      "stateMutability": "view",
      "type": "function"
    },
    {
      "inputs": [
        {
          "internalType": "bytes32",
          "name": "role",
          "type": "bytes32"
        },
        {
          "internalType": "address",
          "name": "account",
          "type": "address"
        }
      ],
      "name": "grantRole",
      "outputs": [],
      "stateMutability": "nonpayable",
      "type": "function"
    },
    {
      "inputs": [
        {
          "internalType": "bytes32",
          "name": "_role",
          "type": "bytes32"
        },
        {
          "internalType": "address",
          "name": "_account",
          "type": "address"
        },
        {
          "internalType": "string",
          "name": "_username",
          "type": "string"
        }
      ],
      "name": "grantRole",
      "outputs": [],
      "stateMutability": "nonpayable",
      "type": "function"
    },
    {
      "inputs": [
        {
          "internalType": "bytes32",
          "name": "role",
          "type": "bytes32"
        },
        {
          "internalType": "address",
          "name": "account",
          "type": "address"
        }
      ],
      "name": "hasRole",
      "outputs": [
        {
          "internalType": "bool",
          "name": "",
          "type": "bool"
        }
      ],
      "stateMutability": "view",
      "type": "function"
    },
    {
      "inputs": [
        {
          "internalType": "uint256",
          "name": "",
          "type": "uint256"
        },
        {
          "internalType": "uint256",
          "name": "",
          "type": "uint256"
        }
      ],
      "name": "histories",
      "outputs": [
        {
          "internalType": "address",
          "name": "owner",
          "type": "address"
        },
        {
          "internalType": "uint256",
          "name": "timestamp",
          "type": "uint256"
        },
        {
          "internalType": "string",
          "name": "status",
          "type": "string"
        }
      ],
      "stateMutability": "view",
      "type": "function"
    },
    {
      "inputs": [],
      "name": "produceCount",
      "outputs": [
        {
          "internalType": "uint256",
          "name": "",
          "type": "uint256"
        }
      ],
      "stateMutability": "view",
      "type": "function"
    },
    {
      "inputs": [
        {
          "internalType": "bytes32",
          "name": "role",
          "type": "bytes32"
        },
        {
          "internalType": "address",
          "name": "callerConfirmation",
          "type": "address"
        }
      ],
      "name": "renounceRole",
      "outputs": [],
      "stateMutability": "nonpayable",
      "type": "function"
    },
    {
      "inputs": [
        {
          "internalType": "uint256",
          "name": "",
          "type": "uint256"
        }
      ],
      "name": "retailers",
      "outputs": [
        {
          "internalType": "address",
          "name": "",
          "type": "address"
        }
      ],
      "stateMutability": "view",
      "type": "function"
    },
    {
      "inputs": [
        {
          "internalType": "bytes32",
          "name": "role",
          "type": "bytes32"
        },
        {
          "internalType": "address",
          "name": "account",
          "type": "address"
        }
      ],
      "name": "revokeRole",
      "outputs": [],
      "stateMutability": "nonpayable",
      "type": "function"
    },
    {
      "inputs": [
        {
          "internalType": "uint256",
          "name": "_produceId",
          "type": "uint256"
        }
      ],
      "name": "soldToCustomer",
      "outputs": [],
      "stateMutability": "nonpayable",
      "type": "function"
    },
    {
      "inputs": [
        {
          "internalType": "bytes4",
          "name": "interfaceId",
          "type": "bytes4"
        }
      ],
      "name": "supportsInterface",
      "outputs": [
        {
          "internalType": "bool",
          "name": "",
          "type": "bool"
        }
      ],
      "stateMutability": "view",
      "type": "function"
    },
    {
      "inputs": [
        {
          "internalType": "uint256",
          "name": "_produceId",
          "type": "uint256"
        },
        {
          "internalType": "address",
          "name": "_newOwner",
          "type": "address"
        },
        {
          "internalType": "string",
          "name": "_status",
          "type": "string"
        }
      ],
      "name": "transferProduce",
      "outputs": [],
      "stateMutability": "nonpayable",
      "type": "function"
    },
    {
      "inputs": [
        {
          "internalType": "uint256",
          "name": "_produceId",
          "type": "uint256"
        },
        {
          "internalType": "address",
          "name": "_newOwner",
          "type": "address"
        }
      ],
      "name": "transferProduceToAggregator",
      "outputs": [],
      "stateMutability": "nonpayable",
      "type": "function"
    },
    {
      "inputs": [
        {
          "internalType": "uint256",
          "name": "_produceId",
          "type": "uint256"
        },
        {
          "internalType": "address",
          "name": "_newOwner",
          "type": "address"
        }
      ],
      "name": "transferProduceToRetailer",
      "outputs": [],
      "stateMutability": "nonpayable",
      "type": "function"
    },
    {
      "inputs": [
        {
          "internalType": "address",
          "name": "",
          "type": "address"
        },
        {
          "internalType": "uint256",
          "name": "",
          "type": "uint256"
        }
      ],
      "name": "usersProduce",
      "outputs": [
        {
          "internalType": "uint256",
          "name": "",
          "type": "uint256"
        }
      ],
      "stateMutability": "view",
      "type": "function"
    }
  ],
  "bytecode": "0x608060405260006002553480156200001657600080fd5b506200002c6000801b336200003360201b60201c565b50620001a8565b60006200004783836200013660201b60201c565b6200012b57600160008085815260200190815260200160002060000160008473ffffffffffffffffffffffffffffffffffffffff1673ffffffffffffffffffffffffffffffffffffffff16815260200190815260200160002060006101000a81548160ff021916908315150217905550620000c7620001a060201b60201c565b73ffffffffffffffffffffffffffffffffffffffff168273ffffffffffffffffffffffffffffffffffffffff16847f2f8788117e7eff1d82e926ec794901d17c78024a50270940304540a733656f0d60405160405180910390a46001905062000130565b600090505b92915050565b600080600084815260200190815260200160002060000160008373ffffffffffffffffffffffffffffffffffffffff1673ffffffffffffffffffffffffffffffffffffffff16815260200190815260200160002060009054906101000a900460ff16905092915050565b600033905090565b613f3c80620001b86000396000f3fe608060405234801561001057600080fd5b50600436106101e55760003560e01c80638d09cf241161010f578063d547741f116100a2578063de16017a11610071578063de16017a146105aa578063decad864146105dc578063ebb6a8ce1461060c578063fc3c13c91461062a576101e5565b8063d547741f14610537578063d889a84814610553578063dc68329914610572578063dde492ea1461058e576101e5565b8063aabae7c2116100de578063aabae7c21461049a578063b43857e8146104b6578063cbfae8d4146104d4578063ce43c03214610507576101e5565b80638d09cf24146104005780638e0a94d11461041c57806391d148541461044c578063a217fddf1461047c576101e5565b8063465c65dd116101875780637c985a30116101565780637c985a3014610364578063897ec7df146103825780638afdd669146103b25780638b68e64d146103e2576101e5565b8063465c65dd146102ec5780634b68d4311461030b578063536954e414610327578063769428d414610346576101e5565b8063248a9ca3116101c3578063248a9ca3146102685780632bf690b8146102985780632f2ff15d146102b457806336568abe146102d0576101e5565b806301ffc9a7146101ea578063169d83311461021a5780631736780714610238575b600080fd5b61020460048036038101906101ff9190612ba9565b610646565b6040516102119190612bf1565b60405180910390f35b6102226106c0565b60405161022f9190612e1b565b60405180910390f35b610252600480360381019061024d9190612e69565b61081b565b60405161025f9190612fa8565b60405180910390f35b610282600480360381019061027d9190613000565b61097f565b60405161028f919061303c565b60405180910390f35b6102b260048036038101906102ad919061318c565b61099e565b005b6102ce60048036038101906102c99190613214565b610c98565b005b6102ea60048036038101906102e59190613214565b610cba565b005b6102f4610d35565b6040516103029291906133c5565b60405180910390f35b610325600480360381019061032091906133fc565b610f65565b005b61032f611179565b60405161033d9291906133c5565b60405180910390f35b61034e6113a9565b60405161035b9190613467565b60405180910390f35b61036c6113af565b6040516103799190612e1b565b60405180910390f35b61039c60048036038101906103979190612e69565b6115d9565b6040516103a99190613491565b60405180910390f35b6103cc60048036038101906103c79190612e69565b611618565b6040516103d99190613491565b60405180910390f35b6103ea611657565b6040516103f7919061303c565b60405180910390f35b61041a600480360381019061041591906134ac565b61167b565b005b61043660048036038101906104319190612e69565b6119c3565b6040516104439190613491565b60405180910390f35b61046660048036038101906104619190613214565b611a02565b6040516104739190612bf1565b60405180910390f35b610484611a6c565b604051610491919061303c565b60405180910390f35b6104b460048036038101906104af91906134ac565b611a73565b005b6104be611dbb565b6040516104cb919061303c565b60405180910390f35b6104ee60048036038101906104e99190612e69565b611ddf565b6040516104fe9493929190613536565b60405180910390f35b610521600480360381019061051c9190613582565b611ec7565b60405161052e91906135af565b60405180910390f35b610551600480360381019061054c9190613214565b611f98565b005b61055b611ff3565b6040516105699291906133c5565b60405180910390f35b61058c60048036038101906105879190612e69565b612223565b005b6105a860048036038101906105a391906135d1565b6124bc565b005b6105c460048036038101906105bf9190613640565b612522565b6040516105d393929190613680565b60405180910390f35b6105f660048036038101906105f191906136be565b612611565b6040516106039190613467565b60405180910390f35b610614612642565b604051610621919061303c565b60405180910390f35b610644600480360381019061063f919061375e565b612666565b005b60007f7965db0b000000000000000000000000000000000000000000000000000000007bffffffffffffffffffffffffffffffffffffffffffffffffffffffff1916827bffffffffffffffffffffffffffffffffffffffffffffffffffffffff191614806106b957506106b88261280e565b5b9050919050565b60606001805480602002602001604051908101604052809291908181526020016000905b8282101561081257838290600052602060002090600402016040518060800160405290816000820154815260200160018201805461072190613801565b80601f016020809104026020016040519081016040528092919081815260200182805461074d90613801565b801561079a5780601f1061076f5761010080835404028352916020019161079a565b820191906000526020600020905b81548152906001019060200180831161077d57829003601f168201915b505050505081526020016002820160009054906101000a900473ffffffffffffffffffffffffffffffffffffffff1673ffffffffffffffffffffffffffffffffffffffff1673ffffffffffffffffffffffffffffffffffffffff168152602001600382015481525050815260200190600101906106e4565b50505050905090565b606060036000838152602001908152602001600020805480602002602001604051908101604052809291908181526020016000905b8282101561097457838290600052602060002090600302016040518060600160405290816000820160009054906101000a900473ffffffffffffffffffffffffffffffffffffffff1673ffffffffffffffffffffffffffffffffffffffff1673ffffffffffffffffffffffffffffffffffffffff168152602001600182015481526020016002820180546108e390613801565b80601f016020809104026020016040519081016040528092919081815260200182805461090f90613801565b801561095c5780601f106109315761010080835404028352916020019161095c565b820191906000526020600020905b81548152906001019060200180831161093f57829003601f168201915b50505050508152505081526020019060010190610850565b505050509050919050565b6000806000838152602001908152602001600020600101549050919050565b7f1aae3a02ff9317dfd8069a6505dea22a406cd597e82a33d461bc741bc9e647546109c881612878565b6000604051806080016040528060025481526020018581526020013373ffffffffffffffffffffffffffffffffffffffff1681526020018481525090506001819080600181540180825580915050600190039060005260206000209060040201600090919091909150600082015181600001556020820151816001019081610a5091906139de565b5060408201518160020160006101000a81548173ffffffffffffffffffffffffffffffffffffffff021916908373ffffffffffffffffffffffffffffffffffffffff160217905550606082015181600301555050600860003373ffffffffffffffffffffffffffffffffffffffff1673ffffffffffffffffffffffffffffffffffffffff1681526020019081526020016000206002549080600181540180825580915050600190039060005260206000200160009091909190915055610b14612ac8565b33816000019073ffffffffffffffffffffffffffffffffffffffff16908173ffffffffffffffffffffffffffffffffffffffff1681525050428160200181815250506040518060400160405280600781526020017f4372656174656400000000000000000000000000000000000000000000000000815250816040018190525060036000600254815260200190815260200160002081908060018154018082558091505060019003906000526020600020906003020160009091909190915060008201518160000160006101000a81548173ffffffffffffffffffffffffffffffffffffffff021916908373ffffffffffffffffffffffffffffffffffffffff160217905550602082015181600101556040820151816002019081610c3991906139de565b5050507f5155bc6afc8b095911510137f07a64f3744cf1d4918f2e5a4ddbec501c02aecc85338642604051610c719493929190613afc565b60405180910390a160026000815480929190610c8c90613b8a565b91905055505050505050565b610ca18261097f565b610caa81612878565b610cb4838361288c565b50505050565b610cc261297d565b73ffffffffffffffffffffffffffffffffffffffff168173ffffffffffffffffffffffffffffffffffffffff1614610d26576040517f6697b23200000000000000000000000000000000000000000000000000000000815260040160405180910390fd5b610d308282612985565b505050565b606080600060068054905067ffffffffffffffff811115610d5957610d58613061565b5b604051908082528060200260200182016040528015610d8c57816020015b6060815260200190600190039081610d775790505b50905060005b600680549050811015610ed0576004600060068381548110610db757610db6613bd2565b5b9060005260206000200160009054906101000a900473ffffffffffffffffffffffffffffffffffffffff1673ffffffffffffffffffffffffffffffffffffffff1673ffffffffffffffffffffffffffffffffffffffff1681526020019081526020016000208054610e2790613801565b80601f0160208091040260200160405190810160405280929190818152602001828054610e5390613801565b8015610ea05780601f10610e7557610100808354040283529160200191610ea0565b820191906000526020600020905b815481529060010190602001808311610e8357829003601f168201915b5050505050828281518110610eb857610eb7613bd2565b5b60200260200101819052508080600101915050610d92565b5060068181805480602002602001604051908101604052809291908181526020018280548015610f5557602002820191906000526020600020905b8160009054906101000a900473ffffffffffffffffffffffffffffffffffffffff1673ffffffffffffffffffffffffffffffffffffffff1681526020019060010190808311610f0b575b5050505050915092509250509091565b80600460008473ffffffffffffffffffffffffffffffffffffffff1673ffffffffffffffffffffffffffffffffffffffff1681526020019081526020016000209081610fb191906139de565b50610fdc7f1aae3a02ff9317dfd8069a6505dea22a406cd597e82a33d461bc741bc9e6475483611a02565b15611049576005829080600181540180825580915050600190039060005260206000200160009091909190916101000a81548173ffffffffffffffffffffffffffffffffffffffff021916908373ffffffffffffffffffffffffffffffffffffffff160217905550611175565b6110737f78047634eb0ea25ec59dc1b0568e3280fe1d08ca41cd8b39596c8482adce9e0e83611a02565b156110e0576006829080600181540180825580915050600190039060005260206000200160009091909190916101000a81548173ffffffffffffffffffffffffffffffffffffffff021916908373ffffffffffffffffffffffffffffffffffffffff160217905550611174565b61110a7fc2030e84afe8cfd541c4479ced4b7fbe215607847bc89259553fe65775d29de283611a02565b15611173576007829080600181540180825580915050600190039060005260206000200160009091909190916101000a81548173ffffffffffffffffffffffffffffffffffffffff021916908373ffffffffffffffffffffffffffffffffffffffff1602179055505b5b5b5050565b606080600060058054905067ffffffffffffffff81111561119d5761119c613061565b5b6040519080825280602002602001820160405280156111d057816020015b60608152602001906001900390816111bb5790505b50905060005b6005805490508110156113145760046000600583815481106111fb576111fa613bd2565b5b9060005260206000200160009054906101000a900473ffffffffffffffffffffffffffffffffffffffff1673ffffffffffffffffffffffffffffffffffffffff1673ffffffffffffffffffffffffffffffffffffffff168152602001908152602001600020805461126b90613801565b80601f016020809104026020016040519081016040528092919081815260200182805461129790613801565b80156112e45780601f106112b9576101008083540402835291602001916112e4565b820191906000526020600020905b8154815290600101906020018083116112c757829003601f168201915b50505050508282815181106112fc576112fb613bd2565b5b602002602001018190525080806001019150506111d6565b506005818180548060200260200160405190810160405280929190818152602001828054801561139957602002820191906000526020600020905b8160009054906101000a900473ffffffffffffffffffffffffffffffffffffffff1673ffffffffffffffffffffffffffffffffffffffff168152602001906001019080831161134f575b5050505050915092509250509091565b60025481565b60606000600860003373ffffffffffffffffffffffffffffffffffffffff1673ffffffffffffffffffffffffffffffffffffffff16815260200190815260200160002090506000818054905067ffffffffffffffff81111561141457611413613061565b5b60405190808252806020026020018201604052801561144d57816020015b61143a612aff565b8152602001906001900390816114325790505b50905060005b82805490508110156115d057600183828154811061147457611473613bd2565b5b9060005260206000200154815481106114905761148f613bd2565b5b9060005260206000209060040201604051806080016040529081600082015481526020016001820180546114c390613801565b80601f01602080910402602001604051908101604052809291908181526020018280546114ef90613801565b801561153c5780601f106115115761010080835404028352916020019161153c565b820191906000526020600020905b81548152906001019060200180831161151f57829003601f168201915b505050505081526020016002820160009054906101000a900473ffffffffffffffffffffffffffffffffffffffff1673ffffffffffffffffffffffffffffffffffffffff1673ffffffffffffffffffffffffffffffffffffffff1681526020016003820154815250508282815181106115b8576115b7613bd2565b5b60200260200101819052508080600101915050611453565b50809250505090565b600781815481106115e957600080fd5b906000526020600020016000915054906101000a900473ffffffffffffffffffffffffffffffffffffffff1681565b6005818154811061162857600080fd5b906000526020600020016000915054906101000a900473ffffffffffffffffffffffffffffffffffffffff1681565b7f78047634eb0ea25ec59dc1b0568e3280fe1d08ca41cd8b39596c8482adce9e0e81565b7f1aae3a02ff9317dfd8069a6505dea22a406cd597e82a33d461bc741bc9e647546116a581612878565b6000600184815481106116bb576116ba613bd2565b5b906000526020600020906004020190508060020160009054906101000a900473ffffffffffffffffffffffffffffffffffffffff1673ffffffffffffffffffffffffffffffffffffffff163373ffffffffffffffffffffffffffffffffffffffff161461175d576040517f08c379a000000000000000000000000000000000000000000000000000000000815260040161175490613c73565b60405180910390fd5b60008160020160009054906101000a900473ffffffffffffffffffffffffffffffffffffffff169050836001868154811061179b5761179a613bd2565b5b906000526020600020906004020160020160006101000a81548173ffffffffffffffffffffffffffffffffffffffff021916908373ffffffffffffffffffffffffffffffffffffffff1602179055506117f2612ac8565b84816000019073ffffffffffffffffffffffffffffffffffffffff16908173ffffffffffffffffffffffffffffffffffffffff1681525050428160200181815250506040518060400160405280601c81526020017f5472616e7366657272656420746f20616e2061676772656761746f720000000081525081604001819052506003600087815260200190815260200160002081908060018154018082558091505060019003906000526020600020906003020160009091909190915060008201518160000160006101000a81548173ffffffffffffffffffffffffffffffffffffffff021916908373ffffffffffffffffffffffffffffffffffffffff16021790555060208201518160010155604082015181600201908161191591906139de565b505050600860008673ffffffffffffffffffffffffffffffffffffffff1673ffffffffffffffffffffffffffffffffffffffff1681526020019081526020016000208690806001815401808255809150506001900390600052602060002001600090919091909150557f3f460d7a74336bdccd60408fbcdecd51721ffebd298cc994100c050f6544ebb8868387426040516119b39493929190613cdf565b60405180910390a1505050505050565b600681815481106119d357600080fd5b906000526020600020016000915054906101000a900473ffffffffffffffffffffffffffffffffffffffff1681565b600080600084815260200190815260200160002060000160008373ffffffffffffffffffffffffffffffffffffffff1673ffffffffffffffffffffffffffffffffffffffff16815260200190815260200160002060009054906101000a900460ff16905092915050565b6000801b81565b7f78047634eb0ea25ec59dc1b0568e3280fe1d08ca41cd8b39596c8482adce9e0e611a9d81612878565b600060018481548110611ab357611ab2613bd2565b5b906000526020600020906004020190508060020160009054906101000a900473ffffffffffffffffffffffffffffffffffffffff1673ffffffffffffffffffffffffffffffffffffffff163373ffffffffffffffffffffffffffffffffffffffff1614611b55576040517f08c379a0000000000000000000000000000000000000000000000000000000008152600401611b4c90613c73565b60405180910390fd5b60008160020160009054906101000a900473ffffffffffffffffffffffffffffffffffffffff1690508360018681548110611b9357611b92613bd2565b5b906000526020600020906004020160020160006101000a81548173ffffffffffffffffffffffffffffffffffffffff021916908373ffffffffffffffffffffffffffffffffffffffff160217905550611bea612ac8565b84816000019073ffffffffffffffffffffffffffffffffffffffff16908173ffffffffffffffffffffffffffffffffffffffff1681525050428160200181815250506040518060400160405280601981526020017f5472616e7366657272656420746f20612072657461696c65720000000000000081525081604001819052506003600087815260200190815260200160002081908060018154018082558091505060019003906000526020600020906003020160009091909190915060008201518160000160006101000a81548173ffffffffffffffffffffffffffffffffffffffff021916908373ffffffffffffffffffffffffffffffffffffffff160217905550602082015181600101556040820151816002019081611d0d91906139de565b505050600860008673ffffffffffffffffffffffffffffffffffffffff1673ffffffffffffffffffffffffffffffffffffffff1681526020019081526020016000208690806001815401808255809150506001900390600052602060002001600090919091909150557f3f460d7a74336bdccd60408fbcdecd51721ffebd298cc994100c050f6544ebb886838742604051611dab9493929190613d83565b60405180910390a1505050505050565b7fc2030e84afe8cfd541c4479ced4b7fbe215607847bc89259553fe65775d29de281565b60018181548110611def57600080fd5b9060005260206000209060040201600091509050806000015490806001018054611e1890613801565b80601f0160208091040260200160405190810160405280929190818152602001828054611e4490613801565b8015611e915780601f10611e6657610100808354040283529160200191611e91565b820191906000526020600020905b815481529060010190602001808311611e7457829003601f168201915b5050505050908060020160009054906101000a900473ffffffffffffffffffffffffffffffffffffffff16908060030154905084565b6060600460008373ffffffffffffffffffffffffffffffffffffffff1673ffffffffffffffffffffffffffffffffffffffff1681526020019081526020016000208054611f1390613801565b80601f0160208091040260200160405190810160405280929190818152602001828054611f3f90613801565b8015611f8c5780601f10611f6157610100808354040283529160200191611f8c565b820191906000526020600020905b815481529060010190602001808311611f6f57829003601f168201915b50505050509050919050565b611fa56000801b33611a02565b611fe4576040517f08c379a0000000000000000000000000000000000000000000000000000000008152600401611fdb90613e27565b60405180910390fd5b611fee8282612985565b505050565b606080600060078054905067ffffffffffffffff81111561201757612016613061565b5b60405190808252806020026020018201604052801561204a57816020015b60608152602001906001900390816120355790505b50905060005b60078054905081101561218e57600460006007838154811061207557612074613bd2565b5b9060005260206000200160009054906101000a900473ffffffffffffffffffffffffffffffffffffffff1673ffffffffffffffffffffffffffffffffffffffff1673ffffffffffffffffffffffffffffffffffffffff16815260200190815260200160002080546120e590613801565b80601f016020809104026020016040519081016040528092919081815260200182805461211190613801565b801561215e5780601f106121335761010080835404028352916020019161215e565b820191906000526020600020905b81548152906001019060200180831161214157829003601f168201915b505050505082828151811061217657612175613bd2565b5b60200260200101819052508080600101915050612050565b506007818180548060200260200160405190810160405280929190818152602001828054801561221357602002820191906000526020600020905b8160009054906101000a900473ffffffffffffffffffffffffffffffffffffffff1673ffffffffffffffffffffffffffffffffffffffff16815260200190600101908083116121c9575b5050505050915092509250509091565b7fc2030e84afe8cfd541c4479ced4b7fbe215607847bc89259553fe65775d29de261224d81612878565b60006001838154811061226357612262613bd2565b5b906000526020600020906004020190508060020160009054906101000a900473ffffffffffffffffffffffffffffffffffffffff1673ffffffffffffffffffffffffffffffffffffffff163373ffffffffffffffffffffffffffffffffffffffff1614612305576040517f08c379a00000000000000000000000000000000000000000000000000000000081526004016122fc90613c73565b60405180910390fd5b61230d612ac8565b8160020160009054906101000a900473ffffffffffffffffffffffffffffffffffffffff16816000019073ffffffffffffffffffffffffffffffffffffffff16908173ffffffffffffffffffffffffffffffffffffffff1681525050428160200181815250506040518060400160405280601281526020017f536f6c6420746f206120637573746f6d6572000000000000000000000000000081525081604001819052506003600085815260200190815260200160002081908060018154018082558091505060019003906000526020600020906003020160009091909190915060008201518160000160006101000a81548173ffffffffffffffffffffffffffffffffffffffff021916908373ffffffffffffffffffffffffffffffffffffffff16021790555060208201518160010155604082015181600201908161245491906139de565b5050507f4ecb3d9e24d3ba23e01ff61ca57520c0b786f81e9d715fb72ecd0a931cd8fb45848360020160009054906101000a900473ffffffffffffffffffffffffffffffffffffffff16426040516124ae93929190613e93565b60405180910390a150505050565b6124c96000801b33611a02565b612508576040517f08c379a00000000000000000000000000000000000000000000000000000000081526004016124ff90613e27565b60405180910390fd5b612512838361288c565b5061251d8282610f65565b505050565b6003602052816000526040600020818154811061253e57600080fd5b9060005260206000209060030201600091509150508060000160009054906101000a900473ffffffffffffffffffffffffffffffffffffffff169080600101549080600201805461258e90613801565b80601f01602080910402602001604051908101604052809291908181526020018280546125ba90613801565b80156126075780601f106125dc57610100808354040283529160200191612607565b820191906000526020600020905b8154815290600101906020018083116125ea57829003601f168201915b5050505050905083565b6008602052816000526040600020818154811061262d57600080fd5b90600052602060002001600091509150505481565b7f1aae3a02ff9317dfd8069a6505dea22a406cd597e82a33d461bc741bc9e6475481565b826001858154811061267b5761267a613bd2565b5b906000526020600020906004020160020160006101000a81548173ffffffffffffffffffffffffffffffffffffffff021916908373ffffffffffffffffffffffffffffffffffffffff1602179055506126d2612ac8565b83816000019073ffffffffffffffffffffffffffffffffffffffff16908173ffffffffffffffffffffffffffffffffffffffff16815250504281602001818152505082828080601f016020809104026020016040519081016040528093929190818152602001838380828437600081840152601f19601f8201169050808301925050505050505081604001819052506003600086815260200190815260200160002081908060018154018082558091505060019003906000526020600020906003020160009091909190915060008201518160000160006101000a81548173ffffffffffffffffffffffffffffffffffffffff021916908373ffffffffffffffffffffffffffffffffffffffff16021790555060208201518160010155604082015181600201908161280491906139de565b5050505050505050565b60007f01ffc9a7000000000000000000000000000000000000000000000000000000007bffffffffffffffffffffffffffffffffffffffffffffffffffffffff1916827bffffffffffffffffffffffffffffffffffffffffffffffffffffffff1916149050919050565b6128898161288461297d565b612a77565b50565b60006128988383611a02565b61297257600160008085815260200190815260200160002060000160008473ffffffffffffffffffffffffffffffffffffffff1673ffffffffffffffffffffffffffffffffffffffff16815260200190815260200160002060006101000a81548160ff02191690831515021790555061290f61297d565b73ffffffffffffffffffffffffffffffffffffffff168273ffffffffffffffffffffffffffffffffffffffff16847f2f8788117e7eff1d82e926ec794901d17c78024a50270940304540a733656f0d60405160405180910390a460019050612977565b600090505b92915050565b600033905090565b60006129918383611a02565b15612a6c57600080600085815260200190815260200160002060000160008473ffffffffffffffffffffffffffffffffffffffff1673ffffffffffffffffffffffffffffffffffffffff16815260200190815260200160002060006101000a81548160ff021916908315150217905550612a0961297d565b73ffffffffffffffffffffffffffffffffffffffff168273ffffffffffffffffffffffffffffffffffffffff16847ff6391f5c32d9c69d2a47ea670b442974b53935d1edc7fd64eb21e047a839171b60405160405180910390a460019050612a71565b600090505b92915050565b612a818282611a02565b612ac45780826040517fe2517d3f000000000000000000000000000000000000000000000000000000008152600401612abb929190613edd565b60405180910390fd5b5050565b6040518060600160405280600073ffffffffffffffffffffffffffffffffffffffff16815260200160008152602001606081525090565b60405180608001604052806000815260200160608152602001600073ffffffffffffffffffffffffffffffffffffffff168152602001600081525090565b6000604051905090565b600080fd5b600080fd5b60007fffffffff0000000000000000000000000000000000000000000000000000000082169050919050565b612b8681612b51565b8114612b9157600080fd5b50565b600081359050612ba381612b7d565b92915050565b600060208284031215612bbf57612bbe612b47565b5b6000612bcd84828501612b94565b91505092915050565b60008115159050919050565b612beb81612bd6565b82525050565b6000602082019050612c066000830184612be2565b92915050565b600081519050919050565b600082825260208201905092915050565b6000819050602082019050919050565b6000819050919050565b612c4b81612c38565b82525050565b600081519050919050565b600082825260208201905092915050565b60005b83811015612c8b578082015181840152602081019050612c70565b60008484015250505050565b6000601f19601f8301169050919050565b6000612cb382612c51565b612cbd8185612c5c565b9350612ccd818560208601612c6d565b612cd681612c97565b840191505092915050565b600073ffffffffffffffffffffffffffffffffffffffff82169050919050565b6000612d0c82612ce1565b9050919050565b612d1c81612d01565b82525050565b6000608083016000830151612d3a6000860182612c42565b5060208301518482036020860152612d528282612ca8565b9150506040830151612d676040860182612d13565b506060830151612d7a6060860182612c42565b508091505092915050565b6000612d918383612d22565b905092915050565b6000602082019050919050565b6000612db182612c0c565b612dbb8185612c17565b935083602082028501612dcd85612c28565b8060005b85811015612e095784840389528151612dea8582612d85565b9450612df583612d99565b925060208a01995050600181019050612dd1565b50829750879550505050505092915050565b60006020820190508181036000830152612e358184612da6565b905092915050565b612e4681612c38565b8114612e5157600080fd5b50565b600081359050612e6381612e3d565b92915050565b600060208284031215612e7f57612e7e612b47565b5b6000612e8d84828501612e54565b91505092915050565b600081519050919050565b600082825260208201905092915050565b6000819050602082019050919050565b6000606083016000830151612eda6000860182612d13565b506020830151612eed6020860182612c42565b5060408301518482036040860152612f058282612ca8565b9150508091505092915050565b6000612f1e8383612ec2565b905092915050565b6000602082019050919050565b6000612f3e82612e96565b612f488185612ea1565b935083602082028501612f5a85612eb2565b8060005b85811015612f965784840389528151612f778582612f12565b9450612f8283612f26565b925060208a01995050600181019050612f5e565b50829750879550505050505092915050565b60006020820190508181036000830152612fc28184612f33565b905092915050565b6000819050919050565b612fdd81612fca565b8114612fe857600080fd5b50565b600081359050612ffa81612fd4565b92915050565b60006020828403121561301657613015612b47565b5b600061302484828501612feb565b91505092915050565b61303681612fca565b82525050565b6000602082019050613051600083018461302d565b92915050565b600080fd5b600080fd5b7f4e487b7100000000000000000000000000000000000000000000000000000000600052604160045260246000fd5b61309982612c97565b810181811067ffffffffffffffff821117156130b8576130b7613061565b5b80604052505050565b60006130cb612b3d565b90506130d78282613090565b919050565b600067ffffffffffffffff8211156130f7576130f6613061565b5b61310082612c97565b9050602081019050919050565b82818337600083830152505050565b600061312f61312a846130dc565b6130c1565b90508281526020810184848401111561314b5761314a61305c565b5b61315684828561310d565b509392505050565b600082601f83011261317357613172613057565b5b813561318384826020860161311c565b91505092915050565b600080604083850312156131a3576131a2612b47565b5b600083013567ffffffffffffffff8111156131c1576131c0612b4c565b5b6131cd8582860161315e565b92505060206131de85828601612e54565b9150509250929050565b6131f181612d01565b81146131fc57600080fd5b50565b60008135905061320e816131e8565b92915050565b6000806040838503121561322b5761322a612b47565b5b600061323985828601612feb565b925050602061324a858286016131ff565b9150509250929050565b600081519050919050565b600082825260208201905092915050565b6000819050602082019050919050565b600061328c8383612d13565b60208301905092915050565b6000602082019050919050565b60006132b082613254565b6132ba818561325f565b93506132c583613270565b8060005b838110156132f65781516132dd8882613280565b97506132e883613298565b9250506001810190506132c9565b5085935050505092915050565b600081519050919050565b600082825260208201905092915050565b6000819050602082019050919050565b600061333b8383612ca8565b905092915050565b6000602082019050919050565b600061335b82613303565b613365818561330e565b9350836020820285016133778561331f565b8060005b858110156133b35784840389528151613394858261332f565b945061339f83613343565b925060208a0199505060018101905061337b565b50829750879550505050505092915050565b600060408201905081810360008301526133df81856132a5565b905081810360208301526133f38184613350565b90509392505050565b6000806040838503121561341357613412612b47565b5b6000613421858286016131ff565b925050602083013567ffffffffffffffff81111561344257613441612b4c565b5b61344e8582860161315e565b9150509250929050565b61346181612c38565b82525050565b600060208201905061347c6000830184613458565b92915050565b61348b81612d01565b82525050565b60006020820190506134a66000830184613482565b92915050565b600080604083850312156134c3576134c2612b47565b5b60006134d185828601612e54565b92505060206134e2858286016131ff565b9150509250929050565b600082825260208201905092915050565b600061350882612c51565b61351281856134ec565b9350613522818560208601612c6d565b61352b81612c97565b840191505092915050565b600060808201905061354b6000830187613458565b818103602083015261355d81866134fd565b905061356c6040830185613482565b6135796060830184613458565b95945050505050565b60006020828403121561359857613597612b47565b5b60006135a6848285016131ff565b91505092915050565b600060208201905081810360008301526135c981846134fd565b905092915050565b6000806000606084860312156135ea576135e9612b47565b5b60006135f886828701612feb565b9350506020613609868287016131ff565b925050604084013567ffffffffffffffff81111561362a57613629612b4c565b5b6136368682870161315e565b9150509250925092565b6000806040838503121561365757613656612b47565b5b600061366585828601612e54565b925050602061367685828601612e54565b9150509250929050565b60006060820190506136956000830186613482565b6136a26020830185613458565b81810360408301526136b481846134fd565b9050949350505050565b600080604083850312156136d5576136d4612b47565b5b60006136e3858286016131ff565b92505060206136f485828601612e54565b9150509250929050565b600080fd5b600080fd5b60008083601f84011261371e5761371d613057565b5b8235905067ffffffffffffffff81111561373b5761373a6136fe565b5b60208301915083600182028301111561375757613756613703565b5b9250929050565b6000806000806060858703121561377857613777612b47565b5b600061378687828801612e54565b9450506020613797878288016131ff565b935050604085013567ffffffffffffffff8111156137b8576137b7612b4c565b5b6137c487828801613708565b925092505092959194509250565b7f4e487b7100000000000000000000000000000000000000000000000000000000600052602260045260246000fd5b6000600282049050600182168061381957607f821691505b60208210810361382c5761382b6137d2565b5b50919050565b60008190508160005260206000209050919050565b60006020601f8301049050919050565b600082821b905092915050565b6000600883026138947fffffffffffffffffffffffffffffffffffffffffffffffffffffffffffffffff82613857565b61389e8683613857565b95508019841693508086168417925050509392505050565b6000819050919050565b60006138db6138d66138d184612c38565b6138b6565b612c38565b9050919050565b6000819050919050565b6138f5836138c0565b613909613901826138e2565b848454613864565b825550505050565b600090565b61391e613911565b6139298184846138ec565b505050565b5b8181101561394d57613942600082613916565b60018101905061392f565b5050565b601f8211156139925761396381613832565b61396c84613847565b8101602085101561397b578190505b61398f61398785613847565b83018261392e565b50505b505050565b600082821c905092915050565b60006139b560001984600802613997565b1980831691505092915050565b60006139ce83836139a4565b9150826002028217905092915050565b6139e782612c51565b67ffffffffffffffff811115613a00576139ff613061565b5b613a0a8254613801565b613a15828285613951565b600060209050601f831160018114613a485760008415613a36578287015190505b613a4085826139c2565b865550613aa8565b601f198416613a5686613832565b60005b82811015613a7e57848901518255600182019150602085019450602081019050613a59565b86831015613a9b5784890151613a97601f8916826139a4565b8355505b6001600288020188555050505b505050505050565b7f4372656174656400000000000000000000000000000000000000000000000000600082015250565b6000613ae66007836134ec565b9150613af182613ab0565b602082019050919050565b600060a0820190508181036000830152613b1681876134fd565b9050613b256020830186613482565b613b326040830185613458565b613b3f6060830184613458565b8181036080830152613b5081613ad9565b905095945050505050565b7f4e487b7100000000000000000000000000000000000000000000000000000000600052601160045260246000fd5b6000613b9582612c38565b91507fffffffffffffffffffffffffffffffffffffffffffffffffffffffffffffffff8203613bc757613bc6613b5b565b5b600182019050919050565b7f4e487b7100000000000000000000000000000000000000000000000000000000600052603260045260246000fd5b7f4f6e6c79207468652063757272656e74206f776e65722063616e207472616e7360008201527f6665722070726f64756365000000000000000000000000000000000000000000602082015250565b6000613c5d602b836134ec565b9150613c6882613c01565b604082019050919050565b60006020820190508181036000830152613c8c81613c50565b9050919050565b7f5472616e7366657272656420746f20616e2061676772656761746f7200000000600082015250565b6000613cc9601c836134ec565b9150613cd482613c93565b602082019050919050565b600060a082019050613cf46000830187613458565b613d016020830186613482565b613d0e6040830185613482565b613d1b6060830184613458565b8181036080830152613d2c81613cbc565b905095945050505050565b7f5472616e7366657272656420746f20612072657461696c657200000000000000600082015250565b6000613d6d6019836134ec565b9150613d7882613d37565b602082019050919050565b600060a082019050613d986000830187613458565b613da56020830186613482565b613db26040830185613482565b613dbf6060830184613458565b8181036080830152613dd081613d60565b905095945050505050565b7f43616c6c6572206973206e6f7420616e2061646d696e00000000000000000000600082015250565b6000613e116016836134ec565b9150613e1c82613ddb565b602082019050919050565b60006020820190508181036000830152613e4081613e04565b9050919050565b7f536f6c6420746f206120637573746f6d65720000000000000000000000000000600082015250565b6000613e7d6012836134ec565b9150613e8882613e47565b602082019050919050565b6000608082019050613ea86000830186613458565b613eb56020830185613482565b613ec26040830184613458565b8181036060830152613ed381613e70565b9050949350505050565b6000604082019050613ef26000830185613482565b613eff602083018461302d565b939250505056fea2646970667358221220388bb430dc1fe035a7b4d76e559153b1dfb01d99f284eea525c280610b5ed7a864736f6c63430008180033",
  "linkReferences": {},
  "deployedLinkReferences": {}
}