{
  "_format": "hh-sol-artifact-1",
  "contractName": "OrganicProduceSupplyChain",
  "sourceName": "contracts/OrganicProduceSupplyChain.sol",
  "abi": [
    {
      "inputs": [],
      "stateMutability": "nonpayable",
      "type": "constructor"
    },
    {
      "inputs": [],
      "name": "AccessControlBadConfirmation",
      "type": "error"
    },
    {
      "inputs": [
        {
          "internalType": "address",
          "name": "account",
          "type": "address"
        },
        {
          "internalType": "bytes32",
          "name": "neededRole",
          "type": "bytes32"
        }
      ],
      "name": "AccessControlUnauthorizedAccount",
      "type": "error"
    },
    {
      "anonymous": false,
      "inputs": [
        {
          "indexed": false,
          "internalType": "string",
          "name": "name",
          "type": "string"
        },
        {
          "indexed": false,
          "internalType": "address",
          "name": "owner",
          "type": "address"
        },
        {
          "indexed": false,
          "internalType": "uint256",
          "name": "amount",
          "type": "uint256"
        },
        {
          "indexed": false,
          "internalType": "uint256",
          "name": "timestamp",
          "type": "uint256"
        },
        {
          "indexed": false,
          "internalType": "string",
          "name": "status",
          "type": "string"
        }
      ],
      "name": "ProduceCreated",
      "type": "event"
    },
    {
      "anonymous": false,
      "inputs": [
        {
          "indexed": false,
          "internalType": "uint256",
          "name": "id",
          "type": "uint256"
        },
        {
          "indexed": false,
          "internalType": "address",
          "name": "owner",
          "type": "address"
        },
        {
          "indexed": false,
          "internalType": "uint256",
          "name": "timestamp",
          "type": "uint256"
        },
        {
          "indexed": false,
          "internalType": "string",
          "name": "status",
          "type": "string"
        }
      ],
      "name": "ProduceSoldToCustomer",
      "type": "event"
    },
    {
      "anonymous": false,
      "inputs": [
        {
          "indexed": false,
          "internalType": "uint256",
          "name": "id",
          "type": "uint256"
        },
        {
          "indexed": false,
          "internalType": "address",
          "name": "oldOwner",
          "type": "address"
        },
        {
          "indexed": false,
          "internalType": "address",
          "name": "newOwner",
          "type": "address"
        },
        {
          "indexed": false,
          "internalType": "uint256",
          "name": "timestamp",
          "type": "uint256"
        },
        {
          "indexed": false,
          "internalType": "string",
          "name": "status",
          "type": "string"
        }
      ],
      "name": "ProduceTransferred",
      "type": "event"
    },
    {
      "anonymous": false,
      "inputs": [
        {
          "indexed": true,
          "internalType": "bytes32",
          "name": "role",
          "type": "bytes32"
        },
        {
          "indexed": true,
          "internalType": "bytes32",
          "name": "previousAdminRole",
          "type": "bytes32"
        },
        {
          "indexed": true,
          "internalType": "bytes32",
          "name": "newAdminRole",
          "type": "bytes32"
        }
      ],
      "name": "RoleAdminChanged",
      "type": "event"
    },
    {
      "anonymous": false,
      "inputs": [
        {
          "indexed": true,
          "internalType": "bytes32",
          "name": "role",
          "type": "bytes32"
        },
        {
          "indexed": true,
          "internalType": "address",
          "name": "account",
          "type": "address"
        },
        {
          "indexed": true,
          "internalType": "address",
          "name": "sender",
          "type": "address"
        }
      ],
      "name": "RoleGranted",
      "type": "event"
    },
    {
      "anonymous": false,
      "inputs": [
        {
          "indexed": true,
          "internalType": "bytes32",
          "name": "role",
          "type": "bytes32"
        },
        {
          "indexed": true,
          "internalType": "address",
          "name": "account",
          "type": "address"
        },
        {
          "indexed": true,
          "internalType": "address",
          "name": "sender",
          "type": "address"
        }
      ],
      "name": "RoleRevoked",
      "type": "event"
    },
    {
      "inputs": [],
      "name": "DEFAULT_ADMIN_ROLE",
      "outputs": [
        {
          "internalType": "bytes32",
          "name": "",
          "type": "bytes32"
        }
      ],
      "stateMutability": "view",
      "type": "function"
    },
    {
      "inputs": [],
      "name": "ROLE_AGGREGATOR",
      "outputs": [
        {
          "internalType": "bytes32",
          "name": "",
          "type": "bytes32"
        }
      ],
      "stateMutability": "view",
      "type": "function"
    },
    {
      "inputs": [],
      "name": "ROLE_FARMER",
      "outputs": [
        {
          "internalType": "bytes32",
          "name": "",
          "type": "bytes32"
        }
      ],
      "stateMutability": "view",
      "type": "function"
    },
    {
      "inputs": [],
      "name": "ROLE_RETAILER",
      "outputs": [
        {
          "internalType": "bytes32",
          "name": "",
          "type": "bytes32"
        }
      ],
      "stateMutability": "view",
      "type": "function"
    },
    {
      "inputs": [
        {
          "internalType": "address",
          "name": "_user",
          "type": "address"
        },
        {
          "internalType": "string",
          "name": "_name",
          "type": "string"
        }
      ],
      "name": "addUser",
      "outputs": [],
      "stateMutability": "nonpayable",
      "type": "function"
    },
    {
      "inputs": [
        {
          "internalType": "uint256",
          "name": "",
          "type": "uint256"
        }
      ],
      "name": "allProduce",
      "outputs": [
        {
          "internalType": "uint256",
          "name": "id",
          "type": "uint256"
        },
        {
          "internalType": "string",
          "name": "name",
          "type": "string"
        },
        {
          "internalType": "address",
          "name": "currentOwner",
          "type": "address"
        },
        {
          "internalType": "uint256",
          "name": "amount",
          "type": "uint256"
        }
      ],
      "stateMutability": "view",
      "type": "function"
    },
    {
      "inputs": [
        {
          "internalType": "string",
          "name": "_name",
          "type": "string"
        },
        {
          "internalType": "uint256",
          "name": "_amount",
          "type": "uint256"
        }
      ],
      "name": "createProduce",
      "outputs": [],
      "stateMutability": "nonpayable",
      "type": "function"
    },
    {
      "inputs": [],
      "name": "getAllProduce",
      "outputs": [
        {
          "components": [
            {
              "internalType": "uint256",
              "name": "id",
              "type": "uint256"
            },
            {
              "internalType": "string",
              "name": "name",
              "type": "string"
            },
            {
              "internalType": "address",
              "name": "currentOwner",
              "type": "address"
            },
            {
              "internalType": "uint256",
              "name": "amount",
              "type": "uint256"
            }
          ],
          "internalType": "struct OrganicProduceSupplyChain.Produce[]",
          "name": "",
          "type": "tuple[]"
        }
      ],
      "stateMutability": "view",
      "type": "function"
    },
    {
      "inputs": [
        {
          "internalType": "uint256",
          "name": "_id",
          "type": "uint256"
        }
      ],
      "name": "getProduceHistory",
      "outputs": [
        {
          "components": [
            {
              "internalType": "address",
              "name": "owner",
              "type": "address"
            },
            {
              "internalType": "uint256",
              "name": "timestamp",
              "type": "uint256"
            },
            {
              "internalType": "string",
              "name": "status",
              "type": "string"
            }
          ],
          "internalType": "struct OrganicProduceSupplyChain.History[]",
          "name": "",
          "type": "tuple[]"
        }
      ],
      "stateMutability": "view",
      "type": "function"
    },
    {
      "inputs": [
        {
          "internalType": "bytes32",
          "name": "role",
          "type": "bytes32"
        }
      ],
      "name": "getRoleAdmin",
      "outputs": [
        {
          "internalType": "bytes32",
          "name": "",
          "type": "bytes32"
        }
      ],
      "stateMutability": "view",
      "type": "function"
    },
    {
      "inputs": [
        {
          "internalType": "address",
          "name": "_user",
          "type": "address"
        }
      ],
      "name": "getUsername",
      "outputs": [
        {
          "internalType": "string",
          "name": "",
          "type": "string"
        }
      ],
      "stateMutability": "view",
      "type": "function"
    },
    {
      "inputs": [
        {
          "internalType": "bytes32",
          "name": "role",
          "type": "bytes32"
        },
        {
          "internalType": "address",
          "name": "_account",
          "type": "address"
        }
      ],
      "name": "grantRole",
      "outputs": [],
      "stateMutability": "nonpayable",
      "type": "function"
    },
    {
      "inputs": [
        {
          "internalType": "bytes32",
          "name": "role",
          "type": "bytes32"
        },
        {
          "internalType": "address",
          "name": "account",
          "type": "address"
        }
      ],
      "name": "hasRole",
      "outputs": [
        {
          "internalType": "bool",
          "name": "",
          "type": "bool"
        }
      ],
      "stateMutability": "view",
      "type": "function"
    },
    {
      "inputs": [
        {
          "internalType": "uint256",
          "name": "",
          "type": "uint256"
        },
        {
          "internalType": "uint256",
          "name": "",
          "type": "uint256"
        }
      ],
      "name": "histories",
      "outputs": [
        {
          "internalType": "address",
          "name": "owner",
          "type": "address"
        },
        {
          "internalType": "uint256",
          "name": "timestamp",
          "type": "uint256"
        },
        {
          "internalType": "string",
          "name": "status",
          "type": "string"
        }
      ],
      "stateMutability": "view",
      "type": "function"
    },
    {
      "inputs": [],
      "name": "produceCount",
      "outputs": [
        {
          "internalType": "uint256",
          "name": "",
          "type": "uint256"
        }
      ],
      "stateMutability": "view",
      "type": "function"
    },
    {
      "inputs": [
        {
          "internalType": "bytes32",
          "name": "role",
          "type": "bytes32"
        },
        {
          "internalType": "address",
          "name": "callerConfirmation",
          "type": "address"
        }
      ],
      "name": "renounceRole",
      "outputs": [],
      "stateMutability": "nonpayable",
      "type": "function"
    },
    {
      "inputs": [
        {
          "internalType": "bytes32",
          "name": "role",
          "type": "bytes32"
        },
        {
          "internalType": "address",
          "name": "account",
          "type": "address"
        }
      ],
      "name": "revokeRole",
      "outputs": [],
      "stateMutability": "nonpayable",
      "type": "function"
    },
    {
      "inputs": [
        {
          "internalType": "uint256",
          "name": "_produceId",
          "type": "uint256"
        }
      ],
      "name": "soldToCustomer",
      "outputs": [],
      "stateMutability": "nonpayable",
      "type": "function"
    },
    {
      "inputs": [
        {
          "internalType": "bytes4",
          "name": "interfaceId",
          "type": "bytes4"
        }
      ],
      "name": "supportsInterface",
      "outputs": [
        {
          "internalType": "bool",
          "name": "",
          "type": "bool"
        }
      ],
      "stateMutability": "view",
      "type": "function"
    },
    {
      "inputs": [
        {
          "internalType": "uint256",
          "name": "_produceId",
          "type": "uint256"
        },
        {
          "internalType": "address",
          "name": "_newOwner",
          "type": "address"
        },
        {
          "internalType": "string",
          "name": "_status",
          "type": "string"
        }
      ],
      "name": "transferProduce",
      "outputs": [],
      "stateMutability": "nonpayable",
      "type": "function"
    },
    {
      "inputs": [
        {
          "internalType": "uint256",
          "name": "_produceId",
          "type": "uint256"
        },
        {
          "internalType": "address",
          "name": "_newOwner",
          "type": "address"
        }
      ],
      "name": "transferProduceToAggregator",
      "outputs": [],
      "stateMutability": "nonpayable",
      "type": "function"
    },
    {
      "inputs": [
        {
          "internalType": "uint256",
          "name": "_produceId",
          "type": "uint256"
        },
        {
          "internalType": "address",
          "name": "_newOwner",
          "type": "address"
        }
      ],
      "name": "transferProduceToRetailer",
      "outputs": [],
      "stateMutability": "nonpayable",
      "type": "function"
    },
    {
      "inputs": [
        {
          "internalType": "address",
          "name": "",
          "type": "address"
        }
      ],
      "name": "users",
      "outputs": [
        {
          "internalType": "string",
          "name": "",
          "type": "string"
        }
      ],
      "stateMutability": "view",
      "type": "function"
    }
  ],
  "bytecode": "0x608060405260006002553480156200001657600080fd5b506200002c6000801b336200003360201b60201c565b50620001a8565b60006200004783836200013660201b60201c565b6200012b57600160008085815260200190815260200160002060000160008473ffffffffffffffffffffffffffffffffffffffff1673ffffffffffffffffffffffffffffffffffffffff16815260200190815260200160002060006101000a81548160ff021916908315150217905550620000c7620001a060201b60201c565b73ffffffffffffffffffffffffffffffffffffffff168273ffffffffffffffffffffffffffffffffffffffff16847f2f8788117e7eff1d82e926ec794901d17c78024a50270940304540a733656f0d60405160405180910390a46001905062000130565b600090505b92915050565b600080600084815260200190815260200160002060000160008373ffffffffffffffffffffffffffffffffffffffff1673ffffffffffffffffffffffffffffffffffffffff16815260200190815260200160002060009054906101000a900460ff16905092915050565b600033905090565b612ea180620001b86000396000f3fe608060405234801561001057600080fd5b506004361061014d5760003560e01c806391d14854116100c3578063ce43c0321161007c578063ce43c032146103b3578063d547741f146103e3578063dc683299146103ff578063de16017a1461041b578063ebb6a8ce1461044d578063fc3c13c91461046b5761014d565b806391d14854146102c8578063a217fddf146102f8578063a87430ba14610316578063aabae7c214610346578063b43857e814610362578063cbfae8d4146103805761014d565b80632f2ff15d116101155780632f2ff15d1461021c57806336568abe146102385780634b68d43114610254578063769428d4146102705780638b68e64d1461028e5780638d09cf24146102ac5761014d565b806301ffc9a714610152578063169d83311461018257806317367807146101a0578063248a9ca3146101d05780632bf690b814610200575b600080fd5b61016c60048036038101906101679190611d80565b610487565b6040516101799190611dc8565b60405180910390f35b61018a610501565b6040516101979190611ff2565b60405180910390f35b6101ba60048036038101906101b59190612040565b61065c565b6040516101c7919061217f565b60405180910390f35b6101ea60048036038101906101e591906121d7565b6107c0565b6040516101f79190612213565b60405180910390f35b61021a60048036038101906102159190612363565b6107df565b005b610236600480360381019061023191906123eb565b610a71565b005b610252600480360381019061024d91906123eb565b610acc565b005b61026e6004803603810190610269919061242b565b610b47565b005b610278610b98565b6040516102859190612496565b60405180910390f35b610296610b9e565b6040516102a39190612213565b60405180910390f35b6102c660048036038101906102c191906124b1565b610bc2565b005b6102e260048036038101906102dd91906123eb565b610ea4565b6040516102ef9190611dc8565b60405180910390f35b610300610f0e565b60405161030d9190612213565b60405180910390f35b610330600480360381019061032b91906124f1565b610f15565b60405161033d9190612568565b60405180910390f35b610360600480360381019061035b91906124b1565b610fb5565b005b61036a611297565b6040516103779190612213565b60405180910390f35b61039a60048036038101906103959190612040565b6112bb565b6040516103aa9493929190612599565b60405180910390f35b6103cd60048036038101906103c891906124f1565b6113a3565b6040516103da9190612568565b60405180910390f35b6103fd60048036038101906103f891906123eb565b611474565b005b61041960048036038101906104149190612040565b6114cf565b005b610435600480360381019061043091906125e5565b611768565b60405161044493929190612625565b60405180910390f35b610455611857565b6040516104629190612213565b60405180910390f35b610485600480360381019061048091906126c3565b61187b565b005b60007f7965db0b000000000000000000000000000000000000000000000000000000007bffffffffffffffffffffffffffffffffffffffffffffffffffffffff1916827bffffffffffffffffffffffffffffffffffffffffffffffffffffffff191614806104fa57506104f982611a23565b5b9050919050565b60606001805480602002602001604051908101604052809291908181526020016000905b8282101561065357838290600052602060002090600402016040518060800160405290816000820154815260200160018201805461056290612766565b80601f016020809104026020016040519081016040528092919081815260200182805461058e90612766565b80156105db5780601f106105b0576101008083540402835291602001916105db565b820191906000526020600020905b8154815290600101906020018083116105be57829003601f168201915b505050505081526020016002820160009054906101000a900473ffffffffffffffffffffffffffffffffffffffff1673ffffffffffffffffffffffffffffffffffffffff1673ffffffffffffffffffffffffffffffffffffffff16815260200160038201548152505081526020019060010190610525565b50505050905090565b606060036000838152602001908152602001600020805480602002602001604051908101604052809291908181526020016000905b828210156107b557838290600052602060002090600302016040518060600160405290816000820160009054906101000a900473ffffffffffffffffffffffffffffffffffffffff1673ffffffffffffffffffffffffffffffffffffffff1673ffffffffffffffffffffffffffffffffffffffff1681526020016001820154815260200160028201805461072490612766565b80601f016020809104026020016040519081016040528092919081815260200182805461075090612766565b801561079d5780601f106107725761010080835404028352916020019161079d565b820191906000526020600020905b81548152906001019060200180831161078057829003601f168201915b50505050508152505081526020019060010190610691565b505050509050919050565b6000806000838152602001908152602001600020600101549050919050565b7f1aae3a02ff9317dfd8069a6505dea22a406cd597e82a33d461bc741bc9e6475461080981611a8d565b6000604051806080016040528060025481526020018581526020013373ffffffffffffffffffffffffffffffffffffffff16815260200184815250905060018190806001815401808255809150506001900390600052602060002090600402016000909190919091506000820151816000015560208201518160010190816108919190612943565b5060408201518160020160006101000a81548173ffffffffffffffffffffffffffffffffffffffff021916908373ffffffffffffffffffffffffffffffffffffffff1602179055506060820151816003015550506108ed611cdd565b33816000019073ffffffffffffffffffffffffffffffffffffffff16908173ffffffffffffffffffffffffffffffffffffffff1681525050428160200181815250506040518060400160405280600781526020017f4372656174656400000000000000000000000000000000000000000000000000815250816040018190525060036000600254815260200190815260200160002081908060018154018082558091505060019003906000526020600020906003020160009091909190915060008201518160000160006101000a81548173ffffffffffffffffffffffffffffffffffffffff021916908373ffffffffffffffffffffffffffffffffffffffff160217905550602082015181600101556040820151816002019081610a129190612943565b5050507f5155bc6afc8b095911510137f07a64f3744cf1d4918f2e5a4ddbec501c02aecc85338642604051610a4a9493929190612a61565b60405180910390a160026000815480929190610a6590612aef565b91905055505050505050565b610a7e6000801b33610ea4565b610abd576040517f08c379a0000000000000000000000000000000000000000000000000000000008152600401610ab490612b83565b60405180910390fd5b610ac78282611aa1565b505050565b610ad4611b92565b73ffffffffffffffffffffffffffffffffffffffff168173ffffffffffffffffffffffffffffffffffffffff1614610b38576040517f6697b23200000000000000000000000000000000000000000000000000000000815260040160405180910390fd5b610b428282611b9a565b505050565b80600460008473ffffffffffffffffffffffffffffffffffffffff1673ffffffffffffffffffffffffffffffffffffffff1681526020019081526020016000209081610b939190612943565b505050565b60025481565b7f78047634eb0ea25ec59dc1b0568e3280fe1d08ca41cd8b39596c8482adce9e0e81565b7f1aae3a02ff9317dfd8069a6505dea22a406cd597e82a33d461bc741bc9e64754610bec81611a8d565b600060018481548110610c0257610c01612ba3565b5b906000526020600020906004020190508060020160009054906101000a900473ffffffffffffffffffffffffffffffffffffffff1673ffffffffffffffffffffffffffffffffffffffff163373ffffffffffffffffffffffffffffffffffffffff1614610ca4576040517f08c379a0000000000000000000000000000000000000000000000000000000008152600401610c9b90612c44565b60405180910390fd5b60008160020160009054906101000a900473ffffffffffffffffffffffffffffffffffffffff1690508360018681548110610ce257610ce1612ba3565b5b906000526020600020906004020160020160006101000a81548173ffffffffffffffffffffffffffffffffffffffff021916908373ffffffffffffffffffffffffffffffffffffffff160217905550610d39611cdd565b84816000019073ffffffffffffffffffffffffffffffffffffffff16908173ffffffffffffffffffffffffffffffffffffffff1681525050428160200181815250506040518060400160405280601c81526020017f5472616e7366657272656420746f20616e2061676772656761746f720000000081525081604001819052506003600087815260200190815260200160002081908060018154018082558091505060019003906000526020600020906003020160009091909190915060008201518160000160006101000a81548173ffffffffffffffffffffffffffffffffffffffff021916908373ffffffffffffffffffffffffffffffffffffffff160217905550602082015181600101556040820151816002019081610e5c9190612943565b5050507f3f460d7a74336bdccd60408fbcdecd51721ffebd298cc994100c050f6544ebb886838742604051610e949493929190612cb0565b60405180910390a1505050505050565b600080600084815260200190815260200160002060000160008373ffffffffffffffffffffffffffffffffffffffff1673ffffffffffffffffffffffffffffffffffffffff16815260200190815260200160002060009054906101000a900460ff16905092915050565b6000801b81565b60046020528060005260406000206000915090508054610f3490612766565b80601f0160208091040260200160405190810160405280929190818152602001828054610f6090612766565b8015610fad5780601f10610f8257610100808354040283529160200191610fad565b820191906000526020600020905b815481529060010190602001808311610f9057829003601f168201915b505050505081565b7f78047634eb0ea25ec59dc1b0568e3280fe1d08ca41cd8b39596c8482adce9e0e610fdf81611a8d565b600060018481548110610ff557610ff4612ba3565b5b906000526020600020906004020190508060020160009054906101000a900473ffffffffffffffffffffffffffffffffffffffff1673ffffffffffffffffffffffffffffffffffffffff163373ffffffffffffffffffffffffffffffffffffffff1614611097576040517f08c379a000000000000000000000000000000000000000000000000000000000815260040161108e90612c44565b60405180910390fd5b60008160020160009054906101000a900473ffffffffffffffffffffffffffffffffffffffff16905083600186815481106110d5576110d4612ba3565b5b906000526020600020906004020160020160006101000a81548173ffffffffffffffffffffffffffffffffffffffff021916908373ffffffffffffffffffffffffffffffffffffffff16021790555061112c611cdd565b84816000019073ffffffffffffffffffffffffffffffffffffffff16908173ffffffffffffffffffffffffffffffffffffffff1681525050428160200181815250506040518060400160405280601981526020017f5472616e7366657272656420746f20612072657461696c65720000000000000081525081604001819052506003600087815260200190815260200160002081908060018154018082558091505060019003906000526020600020906003020160009091909190915060008201518160000160006101000a81548173ffffffffffffffffffffffffffffffffffffffff021916908373ffffffffffffffffffffffffffffffffffffffff16021790555060208201518160010155604082015181600201908161124f9190612943565b5050507f3f460d7a74336bdccd60408fbcdecd51721ffebd298cc994100c050f6544ebb8868387426040516112879493929190612d54565b60405180910390a1505050505050565b7fc2030e84afe8cfd541c4479ced4b7fbe215607847bc89259553fe65775d29de281565b600181815481106112cb57600080fd5b90600052602060002090600402016000915090508060000154908060010180546112f490612766565b80601f016020809104026020016040519081016040528092919081815260200182805461132090612766565b801561136d5780601f106113425761010080835404028352916020019161136d565b820191906000526020600020905b81548152906001019060200180831161135057829003601f168201915b5050505050908060020160009054906101000a900473ffffffffffffffffffffffffffffffffffffffff16908060030154905084565b6060600460008373ffffffffffffffffffffffffffffffffffffffff1673ffffffffffffffffffffffffffffffffffffffff16815260200190815260200160002080546113ef90612766565b80601f016020809104026020016040519081016040528092919081815260200182805461141b90612766565b80156114685780601f1061143d57610100808354040283529160200191611468565b820191906000526020600020905b81548152906001019060200180831161144b57829003601f168201915b50505050509050919050565b6114816000801b33610ea4565b6114c0576040517f08c379a00000000000000000000000000000000000000000000000000000000081526004016114b790612b83565b60405180910390fd5b6114ca8282611b9a565b505050565b7fc2030e84afe8cfd541c4479ced4b7fbe215607847bc89259553fe65775d29de26114f981611a8d565b60006001838154811061150f5761150e612ba3565b5b906000526020600020906004020190508060020160009054906101000a900473ffffffffffffffffffffffffffffffffffffffff1673ffffffffffffffffffffffffffffffffffffffff163373ffffffffffffffffffffffffffffffffffffffff16146115b1576040517f08c379a00000000000000000000000000000000000000000000000000000000081526004016115a890612c44565b60405180910390fd5b6115b9611cdd565b8160020160009054906101000a900473ffffffffffffffffffffffffffffffffffffffff16816000019073ffffffffffffffffffffffffffffffffffffffff16908173ffffffffffffffffffffffffffffffffffffffff1681525050428160200181815250506040518060400160405280601281526020017f536f6c6420746f206120637573746f6d6572000000000000000000000000000081525081604001819052506003600085815260200190815260200160002081908060018154018082558091505060019003906000526020600020906003020160009091909190915060008201518160000160006101000a81548173ffffffffffffffffffffffffffffffffffffffff021916908373ffffffffffffffffffffffffffffffffffffffff1602179055506020820151816001015560408201518160020190816117009190612943565b5050507f4ecb3d9e24d3ba23e01ff61ca57520c0b786f81e9d715fb72ecd0a931cd8fb45848360020160009054906101000a900473ffffffffffffffffffffffffffffffffffffffff164260405161175a93929190612df8565b60405180910390a150505050565b6003602052816000526040600020818154811061178457600080fd5b9060005260206000209060030201600091509150508060000160009054906101000a900473ffffffffffffffffffffffffffffffffffffffff16908060010154908060020180546117d490612766565b80601f016020809104026020016040519081016040528092919081815260200182805461180090612766565b801561184d5780601f106118225761010080835404028352916020019161184d565b820191906000526020600020905b81548152906001019060200180831161183057829003601f168201915b5050505050905083565b7f1aae3a02ff9317dfd8069a6505dea22a406cd597e82a33d461bc741bc9e6475481565b82600185815481106118905761188f612ba3565b5b906000526020600020906004020160020160006101000a81548173ffffffffffffffffffffffffffffffffffffffff021916908373ffffffffffffffffffffffffffffffffffffffff1602179055506118e7611cdd565b83816000019073ffffffffffffffffffffffffffffffffffffffff16908173ffffffffffffffffffffffffffffffffffffffff16815250504281602001818152505082828080601f016020809104026020016040519081016040528093929190818152602001838380828437600081840152601f19601f8201169050808301925050505050505081604001819052506003600086815260200190815260200160002081908060018154018082558091505060019003906000526020600020906003020160009091909190915060008201518160000160006101000a81548173ffffffffffffffffffffffffffffffffffffffff021916908373ffffffffffffffffffffffffffffffffffffffff160217905550602082015181600101556040820151816002019081611a199190612943565b5050505050505050565b60007f01ffc9a7000000000000000000000000000000000000000000000000000000007bffffffffffffffffffffffffffffffffffffffffffffffffffffffff1916827bffffffffffffffffffffffffffffffffffffffffffffffffffffffff1916149050919050565b611a9e81611a99611b92565b611c8c565b50565b6000611aad8383610ea4565b611b8757600160008085815260200190815260200160002060000160008473ffffffffffffffffffffffffffffffffffffffff1673ffffffffffffffffffffffffffffffffffffffff16815260200190815260200160002060006101000a81548160ff021916908315150217905550611b24611b92565b73ffffffffffffffffffffffffffffffffffffffff168273ffffffffffffffffffffffffffffffffffffffff16847f2f8788117e7eff1d82e926ec794901d17c78024a50270940304540a733656f0d60405160405180910390a460019050611b8c565b600090505b92915050565b600033905090565b6000611ba68383610ea4565b15611c8157600080600085815260200190815260200160002060000160008473ffffffffffffffffffffffffffffffffffffffff1673ffffffffffffffffffffffffffffffffffffffff16815260200190815260200160002060006101000a81548160ff021916908315150217905550611c1e611b92565b73ffffffffffffffffffffffffffffffffffffffff168273ffffffffffffffffffffffffffffffffffffffff16847ff6391f5c32d9c69d2a47ea670b442974b53935d1edc7fd64eb21e047a839171b60405160405180910390a460019050611c86565b600090505b92915050565b611c968282610ea4565b611cd95780826040517fe2517d3f000000000000000000000000000000000000000000000000000000008152600401611cd0929190612e42565b60405180910390fd5b5050565b6040518060600160405280600073ffffffffffffffffffffffffffffffffffffffff16815260200160008152602001606081525090565b6000604051905090565b600080fd5b600080fd5b60007fffffffff0000000000000000000000000000000000000000000000000000000082169050919050565b611d5d81611d28565b8114611d6857600080fd5b50565b600081359050611d7a81611d54565b92915050565b600060208284031215611d9657611d95611d1e565b5b6000611da484828501611d6b565b91505092915050565b60008115159050919050565b611dc281611dad565b82525050565b6000602082019050611ddd6000830184611db9565b92915050565b600081519050919050565b600082825260208201905092915050565b6000819050602082019050919050565b6000819050919050565b611e2281611e0f565b82525050565b600081519050919050565b600082825260208201905092915050565b60005b83811015611e62578082015181840152602081019050611e47565b60008484015250505050565b6000601f19601f8301169050919050565b6000611e8a82611e28565b611e948185611e33565b9350611ea4818560208601611e44565b611ead81611e6e565b840191505092915050565b600073ffffffffffffffffffffffffffffffffffffffff82169050919050565b6000611ee382611eb8565b9050919050565b611ef381611ed8565b82525050565b6000608083016000830151611f116000860182611e19565b5060208301518482036020860152611f298282611e7f565b9150506040830151611f3e6040860182611eea565b506060830151611f516060860182611e19565b508091505092915050565b6000611f688383611ef9565b905092915050565b6000602082019050919050565b6000611f8882611de3565b611f928185611dee565b935083602082028501611fa485611dff565b8060005b85811015611fe05784840389528151611fc18582611f5c565b9450611fcc83611f70565b925060208a01995050600181019050611fa8565b50829750879550505050505092915050565b6000602082019050818103600083015261200c8184611f7d565b905092915050565b61201d81611e0f565b811461202857600080fd5b50565b60008135905061203a81612014565b92915050565b60006020828403121561205657612055611d1e565b5b60006120648482850161202b565b91505092915050565b600081519050919050565b600082825260208201905092915050565b6000819050602082019050919050565b60006060830160008301516120b16000860182611eea565b5060208301516120c46020860182611e19565b50604083015184820360408601526120dc8282611e7f565b9150508091505092915050565b60006120f58383612099565b905092915050565b6000602082019050919050565b60006121158261206d565b61211f8185612078565b93508360208202850161213185612089565b8060005b8581101561216d578484038952815161214e85826120e9565b9450612159836120fd565b925060208a01995050600181019050612135565b50829750879550505050505092915050565b60006020820190508181036000830152612199818461210a565b905092915050565b6000819050919050565b6121b4816121a1565b81146121bf57600080fd5b50565b6000813590506121d1816121ab565b92915050565b6000602082840312156121ed576121ec611d1e565b5b60006121fb848285016121c2565b91505092915050565b61220d816121a1565b82525050565b60006020820190506122286000830184612204565b92915050565b600080fd5b600080fd5b7f4e487b7100000000000000000000000000000000000000000000000000000000600052604160045260246000fd5b61227082611e6e565b810181811067ffffffffffffffff8211171561228f5761228e612238565b5b80604052505050565b60006122a2611d14565b90506122ae8282612267565b919050565b600067ffffffffffffffff8211156122ce576122cd612238565b5b6122d782611e6e565b9050602081019050919050565b82818337600083830152505050565b6000612306612301846122b3565b612298565b90508281526020810184848401111561232257612321612233565b5b61232d8482856122e4565b509392505050565b600082601f83011261234a5761234961222e565b5b813561235a8482602086016122f3565b91505092915050565b6000806040838503121561237a57612379611d1e565b5b600083013567ffffffffffffffff81111561239857612397611d23565b5b6123a485828601612335565b92505060206123b58582860161202b565b9150509250929050565b6123c881611ed8565b81146123d357600080fd5b50565b6000813590506123e5816123bf565b92915050565b6000806040838503121561240257612401611d1e565b5b6000612410858286016121c2565b9250506020612421858286016123d6565b9150509250929050565b6000806040838503121561244257612441611d1e565b5b6000612450858286016123d6565b925050602083013567ffffffffffffffff81111561247157612470611d23565b5b61247d85828601612335565b9150509250929050565b61249081611e0f565b82525050565b60006020820190506124ab6000830184612487565b92915050565b600080604083850312156124c8576124c7611d1e565b5b60006124d68582860161202b565b92505060206124e7858286016123d6565b9150509250929050565b60006020828403121561250757612506611d1e565b5b6000612515848285016123d6565b91505092915050565b600082825260208201905092915050565b600061253a82611e28565b612544818561251e565b9350612554818560208601611e44565b61255d81611e6e565b840191505092915050565b60006020820190508181036000830152612582818461252f565b905092915050565b61259381611ed8565b82525050565b60006080820190506125ae6000830187612487565b81810360208301526125c0818661252f565b90506125cf604083018561258a565b6125dc6060830184612487565b95945050505050565b600080604083850312156125fc576125fb611d1e565b5b600061260a8582860161202b565b925050602061261b8582860161202b565b9150509250929050565b600060608201905061263a600083018661258a565b6126476020830185612487565b8181036040830152612659818461252f565b9050949350505050565b600080fd5b600080fd5b60008083601f8401126126835761268261222e565b5b8235905067ffffffffffffffff8111156126a05761269f612663565b5b6020830191508360018202830111156126bc576126bb612668565b5b9250929050565b600080600080606085870312156126dd576126dc611d1e565b5b60006126eb8782880161202b565b94505060206126fc878288016123d6565b935050604085013567ffffffffffffffff81111561271d5761271c611d23565b5b6127298782880161266d565b925092505092959194509250565b7f4e487b7100000000000000000000000000000000000000000000000000000000600052602260045260246000fd5b6000600282049050600182168061277e57607f821691505b60208210810361279157612790612737565b5b50919050565b60008190508160005260206000209050919050565b60006020601f8301049050919050565b600082821b905092915050565b6000600883026127f97fffffffffffffffffffffffffffffffffffffffffffffffffffffffffffffffff826127bc565b61280386836127bc565b95508019841693508086168417925050509392505050565b6000819050919050565b600061284061283b61283684611e0f565b61281b565b611e0f565b9050919050565b6000819050919050565b61285a83612825565b61286e61286682612847565b8484546127c9565b825550505050565b600090565b612883612876565b61288e818484612851565b505050565b5b818110156128b2576128a760008261287b565b600181019050612894565b5050565b601f8211156128f7576128c881612797565b6128d1846127ac565b810160208510156128e0578190505b6128f46128ec856127ac565b830182612893565b50505b505050565b600082821c905092915050565b600061291a600019846008026128fc565b1980831691505092915050565b60006129338383612909565b9150826002028217905092915050565b61294c82611e28565b67ffffffffffffffff81111561296557612964612238565b5b61296f8254612766565b61297a8282856128b6565b600060209050601f8311600181146129ad576000841561299b578287015190505b6129a58582612927565b865550612a0d565b601f1984166129bb86612797565b60005b828110156129e3578489015182556001820191506020850194506020810190506129be565b86831015612a0057848901516129fc601f891682612909565b8355505b6001600288020188555050505b505050505050565b7f4372656174656400000000000000000000000000000000000000000000000000600082015250565b6000612a4b60078361251e565b9150612a5682612a15565b602082019050919050565b600060a0820190508181036000830152612a7b818761252f565b9050612a8a602083018661258a565b612a976040830185612487565b612aa46060830184612487565b8181036080830152612ab581612a3e565b905095945050505050565b7f4e487b7100000000000000000000000000000000000000000000000000000000600052601160045260246000fd5b6000612afa82611e0f565b91507fffffffffffffffffffffffffffffffffffffffffffffffffffffffffffffffff8203612b2c57612b2b612ac0565b5b600182019050919050565b7f43616c6c6572206973206e6f7420616e2061646d696e00000000000000000000600082015250565b6000612b6d60168361251e565b9150612b7882612b37565b602082019050919050565b60006020820190508181036000830152612b9c81612b60565b9050919050565b7f4e487b7100000000000000000000000000000000000000000000000000000000600052603260045260246000fd5b7f4f6e6c79207468652063757272656e74206f776e65722063616e207472616e7360008201527f6665722070726f64756365000000000000000000000000000000000000000000602082015250565b6000612c2e602b8361251e565b9150612c3982612bd2565b604082019050919050565b60006020820190508181036000830152612c5d81612c21565b9050919050565b7f5472616e7366657272656420746f20616e2061676772656761746f7200000000600082015250565b6000612c9a601c8361251e565b9150612ca582612c64565b602082019050919050565b600060a082019050612cc56000830187612487565b612cd2602083018661258a565b612cdf604083018561258a565b612cec6060830184612487565b8181036080830152612cfd81612c8d565b905095945050505050565b7f5472616e7366657272656420746f20612072657461696c657200000000000000600082015250565b6000612d3e60198361251e565b9150612d4982612d08565b602082019050919050565b600060a082019050612d696000830187612487565b612d76602083018661258a565b612d83604083018561258a565b612d906060830184612487565b8181036080830152612da181612d31565b905095945050505050565b7f536f6c6420746f206120637573746f6d65720000000000000000000000000000600082015250565b6000612de260128361251e565b9150612ded82612dac565b602082019050919050565b6000608082019050612e0d6000830186612487565b612e1a602083018561258a565b612e276040830184612487565b8181036060830152612e3881612dd5565b9050949350505050565b6000604082019050612e57600083018561258a565b612e646020830184612204565b939250505056fea264697066735822122010bbf75f3f2fa27cb90a5aa5af865177cfd804ca2e163f225a740ad7a8046cc164736f6c63430008180033",
  "linkReferences": {},
  "deployedLinkReferences": {}
}