{
  "_format": "hh-sol-artifact-1",
  "contractName": "OrganicProduceSupplyChain",
  "sourceName": "contracts/OrganicProduceSupplyChain.sol",
  "abi": [
    {
      "inputs": [],
      "stateMutability": "nonpayable",
      "type": "constructor"
    },
    {
      "inputs": [],
      "name": "AccessControlBadConfirmation",
      "type": "error"
    },
    {
      "inputs": [
        {
          "internalType": "address",
          "name": "account",
          "type": "address"
        },
        {
          "internalType": "bytes32",
          "name": "neededRole",
          "type": "bytes32"
        }
      ],
      "name": "AccessControlUnauthorizedAccount",
      "type": "error"
    },
    {
      "anonymous": false,
      "inputs": [
        {
          "indexed": false,
          "internalType": "string",
          "name": "name",
          "type": "string"
        },
        {
          "indexed": false,
          "internalType": "address",
          "name": "owner",
          "type": "address"
        },
        {
          "indexed": false,
          "internalType": "uint256",
          "name": "amount",
          "type": "uint256"
        },
        {
          "indexed": false,
          "internalType": "uint256",
          "name": "timestamp",
          "type": "uint256"
        },
        {
          "indexed": false,
          "internalType": "string",
          "name": "status",
          "type": "string"
        }
      ],
      "name": "ProduceCreated",
      "type": "event"
    },
    {
      "anonymous": false,
      "inputs": [
        {
          "indexed": false,
          "internalType": "uint256",
          "name": "id",
          "type": "uint256"
        },
        {
          "indexed": false,
          "internalType": "address",
          "name": "owner",
          "type": "address"
        },
        {
          "indexed": false,
          "internalType": "uint256",
          "name": "timestamp",
          "type": "uint256"
        },
        {
          "indexed": false,
          "internalType": "string",
          "name": "status",
          "type": "string"
        }
      ],
      "name": "ProduceSoldToCustomer",
      "type": "event"
    },
    {
      "anonymous": false,
      "inputs": [
        {
          "indexed": false,
          "internalType": "uint256",
          "name": "id",
          "type": "uint256"
        },
        {
          "indexed": false,
          "internalType": "address",
          "name": "oldOwner",
          "type": "address"
        },
        {
          "indexed": false,
          "internalType": "address",
          "name": "newOwner",
          "type": "address"
        },
        {
          "indexed": false,
          "internalType": "uint256",
          "name": "timestamp",
          "type": "uint256"
        },
        {
          "indexed": false,
          "internalType": "string",
          "name": "status",
          "type": "string"
        }
      ],
      "name": "ProduceTransferred",
      "type": "event"
    },
    {
      "anonymous": false,
      "inputs": [
        {
          "indexed": true,
          "internalType": "bytes32",
          "name": "role",
          "type": "bytes32"
        },
        {
          "indexed": true,
          "internalType": "bytes32",
          "name": "previousAdminRole",
          "type": "bytes32"
        },
        {
          "indexed": true,
          "internalType": "bytes32",
          "name": "newAdminRole",
          "type": "bytes32"
        }
      ],
      "name": "RoleAdminChanged",
      "type": "event"
    },
    {
      "anonymous": false,
      "inputs": [
        {
          "indexed": true,
          "internalType": "bytes32",
          "name": "role",
          "type": "bytes32"
        },
        {
          "indexed": true,
          "internalType": "address",
          "name": "account",
          "type": "address"
        },
        {
          "indexed": true,
          "internalType": "address",
          "name": "sender",
          "type": "address"
        }
      ],
      "name": "RoleGranted",
      "type": "event"
    },
    {
      "anonymous": false,
      "inputs": [
        {
          "indexed": true,
          "internalType": "bytes32",
          "name": "role",
          "type": "bytes32"
        },
        {
          "indexed": true,
          "internalType": "address",
          "name": "account",
          "type": "address"
        },
        {
          "indexed": true,
          "internalType": "address",
          "name": "sender",
          "type": "address"
        }
      ],
      "name": "RoleRevoked",
      "type": "event"
    },
    {
      "inputs": [],
      "name": "DEFAULT_ADMIN_ROLE",
      "outputs": [
        {
          "internalType": "bytes32",
          "name": "",
          "type": "bytes32"
        }
      ],
      "stateMutability": "view",
      "type": "function"
    },
    {
      "inputs": [],
      "name": "ROLE_AGGREGATOR",
      "outputs": [
        {
          "internalType": "bytes32",
          "name": "",
          "type": "bytes32"
        }
      ],
      "stateMutability": "view",
      "type": "function"
    },
    {
      "inputs": [],
      "name": "ROLE_FARMER",
      "outputs": [
        {
          "internalType": "bytes32",
          "name": "",
          "type": "bytes32"
        }
      ],
      "stateMutability": "view",
      "type": "function"
    },
    {
      "inputs": [],
      "name": "ROLE_RETAILER",
      "outputs": [
        {
          "internalType": "bytes32",
          "name": "",
          "type": "bytes32"
        }
      ],
      "stateMutability": "view",
      "type": "function"
    },
    {
      "inputs": [
        {
          "internalType": "address",
          "name": "_user",
          "type": "address"
        },
        {
          "internalType": "string",
          "name": "_name",
          "type": "string"
        }
      ],
      "name": "addUser",
      "outputs": [],
      "stateMutability": "nonpayable",
      "type": "function"
    },
    {
      "inputs": [
        {
          "internalType": "uint256",
          "name": "",
          "type": "uint256"
        }
      ],
      "name": "aggregators",
      "outputs": [
        {
          "internalType": "address",
          "name": "",
          "type": "address"
        }
      ],
      "stateMutability": "view",
      "type": "function"
    },
    {
      "inputs": [
        {
          "internalType": "uint256",
          "name": "",
          "type": "uint256"
        }
      ],
      "name": "allProduce",
      "outputs": [
        {
          "internalType": "uint256",
          "name": "id",
          "type": "uint256"
        },
        {
          "internalType": "string",
          "name": "name",
          "type": "string"
        },
        {
          "internalType": "address",
          "name": "currentOwner",
          "type": "address"
        },
        {
          "internalType": "uint256",
          "name": "amount",
          "type": "uint256"
        }
      ],
      "stateMutability": "view",
      "type": "function"
    },
    {
      "inputs": [
        {
          "internalType": "string",
          "name": "_name",
          "type": "string"
        },
        {
          "internalType": "uint256",
          "name": "_amount",
          "type": "uint256"
        }
      ],
      "name": "createProduce",
      "outputs": [],
      "stateMutability": "nonpayable",
      "type": "function"
    },
    {
      "inputs": [
        {
          "internalType": "uint256",
          "name": "",
          "type": "uint256"
        }
      ],
      "name": "farmers",
      "outputs": [
        {
          "internalType": "address",
          "name": "",
          "type": "address"
        }
      ],
      "stateMutability": "view",
      "type": "function"
    },
    {
      "inputs": [],
      "name": "getAllAggregators",
      "outputs": [
        {
          "internalType": "address[]",
          "name": "",
          "type": "address[]"
        },
        {
          "internalType": "string[]",
          "name": "",
          "type": "string[]"
        }
      ],
      "stateMutability": "view",
      "type": "function"
    },
    {
      "inputs": [],
      "name": "getAllFarmers",
      "outputs": [
        {
          "internalType": "address[]",
          "name": "",
          "type": "address[]"
        },
        {
          "internalType": "string[]",
          "name": "",
          "type": "string[]"
        }
      ],
      "stateMutability": "view",
      "type": "function"
    },
    {
      "inputs": [],
      "name": "getAllProduce",
      "outputs": [
        {
          "components": [
            {
              "internalType": "uint256",
              "name": "id",
              "type": "uint256"
            },
            {
              "internalType": "string",
              "name": "name",
              "type": "string"
            },
            {
              "internalType": "address",
              "name": "currentOwner",
              "type": "address"
            },
            {
              "internalType": "uint256",
              "name": "amount",
              "type": "uint256"
            }
          ],
          "internalType": "struct OrganicProduceSupplyChain.Produce[]",
          "name": "",
          "type": "tuple[]"
        }
      ],
      "stateMutability": "view",
      "type": "function"
    },
    {
      "inputs": [],
      "name": "getAllRetailers",
      "outputs": [
        {
          "internalType": "address[]",
          "name": "",
          "type": "address[]"
        },
        {
          "internalType": "string[]",
          "name": "",
          "type": "string[]"
        }
      ],
      "stateMutability": "view",
      "type": "function"
    },
    {
      "inputs": [
        {
          "internalType": "uint256",
          "name": "_id",
          "type": "uint256"
        }
      ],
      "name": "getProduceHistory",
      "outputs": [
        {
          "components": [
            {
              "internalType": "address",
              "name": "owner",
              "type": "address"
            },
            {
              "internalType": "uint256",
              "name": "timestamp",
              "type": "uint256"
            },
            {
              "internalType": "string",
              "name": "status",
              "type": "string"
            }
          ],
          "internalType": "struct OrganicProduceSupplyChain.History[]",
          "name": "",
          "type": "tuple[]"
        }
      ],
      "stateMutability": "view",
      "type": "function"
    },
    {
      "inputs": [
        {
          "internalType": "bytes32",
          "name": "role",
          "type": "bytes32"
        }
      ],
      "name": "getRoleAdmin",
      "outputs": [
        {
          "internalType": "bytes32",
          "name": "",
          "type": "bytes32"
        }
      ],
      "stateMutability": "view",
      "type": "function"
    },
    {
      "inputs": [
        {
          "internalType": "address",
          "name": "_user",
          "type": "address"
        }
      ],
      "name": "getUsername",
      "outputs": [
        {
          "internalType": "string",
          "name": "",
          "type": "string"
        }
      ],
      "stateMutability": "view",
      "type": "function"
    },
    {
      "inputs": [
        {
          "internalType": "bytes32",
          "name": "role",
          "type": "bytes32"
        },
        {
          "internalType": "address",
          "name": "account",
          "type": "address"
        }
      ],
      "name": "grantRole",
      "outputs": [],
      "stateMutability": "nonpayable",
      "type": "function"
    },
    {
      "inputs": [
        {
          "internalType": "bytes32",
          "name": "_role",
          "type": "bytes32"
        },
        {
          "internalType": "address",
          "name": "_account",
          "type": "address"
        },
        {
          "internalType": "string",
          "name": "_username",
          "type": "string"
        }
      ],
      "name": "grantRole",
      "outputs": [],
      "stateMutability": "nonpayable",
      "type": "function"
    },
    {
      "inputs": [
        {
          "internalType": "bytes32",
          "name": "role",
          "type": "bytes32"
        },
        {
          "internalType": "address",
          "name": "account",
          "type": "address"
        }
      ],
      "name": "hasRole",
      "outputs": [
        {
          "internalType": "bool",
          "name": "",
          "type": "bool"
        }
      ],
      "stateMutability": "view",
      "type": "function"
    },
    {
      "inputs": [
        {
          "internalType": "uint256",
          "name": "",
          "type": "uint256"
        },
        {
          "internalType": "uint256",
          "name": "",
          "type": "uint256"
        }
      ],
      "name": "histories",
      "outputs": [
        {
          "internalType": "address",
          "name": "owner",
          "type": "address"
        },
        {
          "internalType": "uint256",
          "name": "timestamp",
          "type": "uint256"
        },
        {
          "internalType": "string",
          "name": "status",
          "type": "string"
        }
      ],
      "stateMutability": "view",
      "type": "function"
    },
    {
      "inputs": [],
      "name": "produceCount",
      "outputs": [
        {
          "internalType": "uint256",
          "name": "",
          "type": "uint256"
        }
      ],
      "stateMutability": "view",
      "type": "function"
    },
    {
      "inputs": [
        {
          "internalType": "bytes32",
          "name": "role",
          "type": "bytes32"
        },
        {
          "internalType": "address",
          "name": "callerConfirmation",
          "type": "address"
        }
      ],
      "name": "renounceRole",
      "outputs": [],
      "stateMutability": "nonpayable",
      "type": "function"
    },
    {
      "inputs": [
        {
          "internalType": "uint256",
          "name": "",
          "type": "uint256"
        }
      ],
      "name": "retailers",
      "outputs": [
        {
          "internalType": "address",
          "name": "",
          "type": "address"
        }
      ],
      "stateMutability": "view",
      "type": "function"
    },
    {
      "inputs": [
        {
          "internalType": "bytes32",
          "name": "role",
          "type": "bytes32"
        },
        {
          "internalType": "address",
          "name": "account",
          "type": "address"
        }
      ],
      "name": "revokeRole",
      "outputs": [],
      "stateMutability": "nonpayable",
      "type": "function"
    },
    {
      "inputs": [
        {
          "internalType": "uint256",
          "name": "_produceId",
          "type": "uint256"
        }
      ],
      "name": "soldToCustomer",
      "outputs": [],
      "stateMutability": "nonpayable",
      "type": "function"
    },
    {
      "inputs": [
        {
          "internalType": "bytes4",
          "name": "interfaceId",
          "type": "bytes4"
        }
      ],
      "name": "supportsInterface",
      "outputs": [
        {
          "internalType": "bool",
          "name": "",
          "type": "bool"
        }
      ],
      "stateMutability": "view",
      "type": "function"
    },
    {
      "inputs": [
        {
          "internalType": "uint256",
          "name": "_produceId",
          "type": "uint256"
        },
        {
          "internalType": "address",
          "name": "_newOwner",
          "type": "address"
        },
        {
          "internalType": "string",
          "name": "_status",
          "type": "string"
        }
      ],
      "name": "transferProduce",
      "outputs": [],
      "stateMutability": "nonpayable",
      "type": "function"
    },
    {
      "inputs": [
        {
          "internalType": "uint256",
          "name": "_produceId",
          "type": "uint256"
        },
        {
          "internalType": "address",
          "name": "_newOwner",
          "type": "address"
        }
      ],
      "name": "transferProduceToAggregator",
      "outputs": [],
      "stateMutability": "nonpayable",
      "type": "function"
    },
    {
      "inputs": [
        {
          "internalType": "uint256",
          "name": "_produceId",
          "type": "uint256"
        },
        {
          "internalType": "address",
          "name": "_newOwner",
          "type": "address"
        }
      ],
      "name": "transferProduceToRetailer",
      "outputs": [],
      "stateMutability": "nonpayable",
      "type": "function"
    }
  ],
  "bytecode": "0x608060405260006002553480156200001657600080fd5b506200002c6000801b336200003360201b60201c565b50620001a8565b60006200004783836200013660201b60201c565b6200012b57600160008085815260200190815260200160002060000160008473ffffffffffffffffffffffffffffffffffffffff1673ffffffffffffffffffffffffffffffffffffffff16815260200190815260200160002060006101000a81548160ff021916908315150217905550620000c7620001a060201b60201c565b73ffffffffffffffffffffffffffffffffffffffff168273ffffffffffffffffffffffffffffffffffffffff16847f2f8788117e7eff1d82e926ec794901d17c78024a50270940304540a733656f0d60405160405180910390a46001905062000130565b600090505b92915050565b600080600084815260200190815260200160002060000160008373ffffffffffffffffffffffffffffffffffffffff1673ffffffffffffffffffffffffffffffffffffffff16815260200190815260200160002060009054906101000a900460ff16905092915050565b600033905090565b613acb80620001b86000396000f3fe608060405234801561001057600080fd5b50600436106101cf5760003560e01c80638d09cf2411610104578063ce43c032116100a2578063dde492ea11610071578063dde492ea1461055a578063de16017a14610576578063ebb6a8ce146105a8578063fc3c13c9146105c6576101cf565b8063ce43c032146104d3578063d547741f14610503578063d889a8481461051f578063dc6832991461053e576101cf565b8063a217fddf116100de578063a217fddf14610448578063aabae7c214610466578063b43857e814610482578063cbfae8d4146104a0576101cf565b80638d09cf24146103cc5780638e0a94d1146103e857806391d1485414610418576101cf565b8063465c65dd11610171578063769428d41161014b578063769428d414610330578063897ec7df1461034e5780638afdd6691461037e5780638b68e64d146103ae576101cf565b8063465c65dd146102d65780634b68d431146102f5578063536954e414610311576101cf565b8063248a9ca3116101ad578063248a9ca3146102525780632bf690b8146102825780632f2ff15d1461029e57806336568abe146102ba576101cf565b806301ffc9a7146101d4578063169d8331146102045780631736780714610222575b600080fd5b6101ee60048036038101906101e99190612778565b6105e2565b6040516101fb91906127c0565b60405180910390f35b61020c61065c565b60405161021991906129ea565b60405180910390f35b61023c60048036038101906102379190612a38565b6107b7565b6040516102499190612b77565b60405180910390f35b61026c60048036038101906102679190612bcf565b61091b565b6040516102799190612c0b565b60405180910390f35b61029c60048036038101906102979190612d5b565b61093a565b005b6102b860048036038101906102b39190612de3565b610bcc565b005b6102d460048036038101906102cf9190612de3565b610bee565b005b6102de610c69565b6040516102ec929190612f94565b60405180910390f35b61030f600480360381019061030a9190612fcb565b610e99565b005b6103196110ad565b604051610327929190612f94565b60405180910390f35b6103386112dd565b6040516103459190613036565b60405180910390f35b61036860048036038101906103639190612a38565b6112e3565b6040516103759190613060565b60405180910390f35b61039860048036038101906103939190612a38565b611322565b6040516103a59190613060565b60405180910390f35b6103b6611361565b6040516103c39190612c0b565b60405180910390f35b6103e660048036038101906103e1919061307b565b611385565b005b61040260048036038101906103fd9190612a38565b611667565b60405161040f9190613060565b60405180910390f35b610432600480360381019061042d9190612de3565b6116a6565b60405161043f91906127c0565b60405180910390f35b610450611710565b60405161045d9190612c0b565b60405180910390f35b610480600480360381019061047b919061307b565b611717565b005b61048a6119f9565b6040516104979190612c0b565b60405180910390f35b6104ba60048036038101906104b59190612a38565b611a1d565b6040516104ca9493929190613105565b60405180910390f35b6104ed60048036038101906104e89190613151565b611b05565b6040516104fa919061317e565b60405180910390f35b61051d60048036038101906105189190612de3565b611bd6565b005b610527611c31565b604051610535929190612f94565b60405180910390f35b61055860048036038101906105539190612a38565b611e61565b005b610574600480360381019061056f91906131a0565b6120fa565b005b610590600480360381019061058b919061320f565b612160565b60405161059f9392919061324f565b60405180910390f35b6105b061224f565b6040516105bd9190612c0b565b60405180910390f35b6105e060048036038101906105db91906132ed565b612273565b005b60007f7965db0b000000000000000000000000000000000000000000000000000000007bffffffffffffffffffffffffffffffffffffffffffffffffffffffff1916827bffffffffffffffffffffffffffffffffffffffffffffffffffffffff1916148061065557506106548261241b565b5b9050919050565b60606001805480602002602001604051908101604052809291908181526020016000905b828210156107ae5783829060005260206000209060040201604051806080016040529081600082015481526020016001820180546106bd90613390565b80601f01602080910402602001604051908101604052809291908181526020018280546106e990613390565b80156107365780601f1061070b57610100808354040283529160200191610736565b820191906000526020600020905b81548152906001019060200180831161071957829003601f168201915b505050505081526020016002820160009054906101000a900473ffffffffffffffffffffffffffffffffffffffff1673ffffffffffffffffffffffffffffffffffffffff1673ffffffffffffffffffffffffffffffffffffffff16815260200160038201548152505081526020019060010190610680565b50505050905090565b606060036000838152602001908152602001600020805480602002602001604051908101604052809291908181526020016000905b8282101561091057838290600052602060002090600302016040518060600160405290816000820160009054906101000a900473ffffffffffffffffffffffffffffffffffffffff1673ffffffffffffffffffffffffffffffffffffffff1673ffffffffffffffffffffffffffffffffffffffff1681526020016001820154815260200160028201805461087f90613390565b80601f01602080910402602001604051908101604052809291908181526020018280546108ab90613390565b80156108f85780601f106108cd576101008083540402835291602001916108f8565b820191906000526020600020905b8154815290600101906020018083116108db57829003601f168201915b505050505081525050815260200190600101906107ec565b505050509050919050565b6000806000838152602001908152602001600020600101549050919050565b7f1aae3a02ff9317dfd8069a6505dea22a406cd597e82a33d461bc741bc9e6475461096481612485565b6000604051806080016040528060025481526020018581526020013373ffffffffffffffffffffffffffffffffffffffff16815260200184815250905060018190806001815401808255809150506001900390600052602060002090600402016000909190919091506000820151816000015560208201518160010190816109ec919061356d565b5060408201518160020160006101000a81548173ffffffffffffffffffffffffffffffffffffffff021916908373ffffffffffffffffffffffffffffffffffffffff160217905550606082015181600301555050610a486126d5565b33816000019073ffffffffffffffffffffffffffffffffffffffff16908173ffffffffffffffffffffffffffffffffffffffff1681525050428160200181815250506040518060400160405280600781526020017f4372656174656400000000000000000000000000000000000000000000000000815250816040018190525060036000600254815260200190815260200160002081908060018154018082558091505060019003906000526020600020906003020160009091909190915060008201518160000160006101000a81548173ffffffffffffffffffffffffffffffffffffffff021916908373ffffffffffffffffffffffffffffffffffffffff160217905550602082015181600101556040820151816002019081610b6d919061356d565b5050507f5155bc6afc8b095911510137f07a64f3744cf1d4918f2e5a4ddbec501c02aecc85338642604051610ba5949392919061368b565b60405180910390a160026000815480929190610bc090613719565b91905055505050505050565b610bd58261091b565b610bde81612485565b610be88383612499565b50505050565b610bf661258a565b73ffffffffffffffffffffffffffffffffffffffff168173ffffffffffffffffffffffffffffffffffffffff1614610c5a576040517f6697b23200000000000000000000000000000000000000000000000000000000815260040160405180910390fd5b610c648282612592565b505050565b606080600060068054905067ffffffffffffffff811115610c8d57610c8c612c30565b5b604051908082528060200260200182016040528015610cc057816020015b6060815260200190600190039081610cab5790505b50905060005b600680549050811015610e04576004600060068381548110610ceb57610cea613761565b5b9060005260206000200160009054906101000a900473ffffffffffffffffffffffffffffffffffffffff1673ffffffffffffffffffffffffffffffffffffffff1673ffffffffffffffffffffffffffffffffffffffff1681526020019081526020016000208054610d5b90613390565b80601f0160208091040260200160405190810160405280929190818152602001828054610d8790613390565b8015610dd45780601f10610da957610100808354040283529160200191610dd4565b820191906000526020600020905b815481529060010190602001808311610db757829003601f168201915b5050505050828281518110610dec57610deb613761565b5b60200260200101819052508080600101915050610cc6565b5060068181805480602002602001604051908101604052809291908181526020018280548015610e8957602002820191906000526020600020905b8160009054906101000a900473ffffffffffffffffffffffffffffffffffffffff1673ffffffffffffffffffffffffffffffffffffffff1681526020019060010190808311610e3f575b5050505050915092509250509091565b80600460008473ffffffffffffffffffffffffffffffffffffffff1673ffffffffffffffffffffffffffffffffffffffff1681526020019081526020016000209081610ee5919061356d565b50610f107f1aae3a02ff9317dfd8069a6505dea22a406cd597e82a33d461bc741bc9e64754836116a6565b15610f7d576005829080600181540180825580915050600190039060005260206000200160009091909190916101000a81548173ffffffffffffffffffffffffffffffffffffffff021916908373ffffffffffffffffffffffffffffffffffffffff1602179055506110a9565b610fa77f78047634eb0ea25ec59dc1b0568e3280fe1d08ca41cd8b39596c8482adce9e0e836116a6565b15611014576006829080600181540180825580915050600190039060005260206000200160009091909190916101000a81548173ffffffffffffffffffffffffffffffffffffffff021916908373ffffffffffffffffffffffffffffffffffffffff1602179055506110a8565b61103e7fc2030e84afe8cfd541c4479ced4b7fbe215607847bc89259553fe65775d29de2836116a6565b156110a7576007829080600181540180825580915050600190039060005260206000200160009091909190916101000a81548173ffffffffffffffffffffffffffffffffffffffff021916908373ffffffffffffffffffffffffffffffffffffffff1602179055505b5b5b5050565b606080600060058054905067ffffffffffffffff8111156110d1576110d0612c30565b5b60405190808252806020026020018201604052801561110457816020015b60608152602001906001900390816110ef5790505b50905060005b60058054905081101561124857600460006005838154811061112f5761112e613761565b5b9060005260206000200160009054906101000a900473ffffffffffffffffffffffffffffffffffffffff1673ffffffffffffffffffffffffffffffffffffffff1673ffffffffffffffffffffffffffffffffffffffff168152602001908152602001600020805461119f90613390565b80601f01602080910402602001604051908101604052809291908181526020018280546111cb90613390565b80156112185780601f106111ed57610100808354040283529160200191611218565b820191906000526020600020905b8154815290600101906020018083116111fb57829003601f168201915b50505050508282815181106112305761122f613761565b5b6020026020010181905250808060010191505061110a565b50600581818054806020026020016040519081016040528092919081815260200182805480156112cd57602002820191906000526020600020905b8160009054906101000a900473ffffffffffffffffffffffffffffffffffffffff1673ffffffffffffffffffffffffffffffffffffffff1681526020019060010190808311611283575b5050505050915092509250509091565b60025481565b600781815481106112f357600080fd5b906000526020600020016000915054906101000a900473ffffffffffffffffffffffffffffffffffffffff1681565b6005818154811061133257600080fd5b906000526020600020016000915054906101000a900473ffffffffffffffffffffffffffffffffffffffff1681565b7f78047634eb0ea25ec59dc1b0568e3280fe1d08ca41cd8b39596c8482adce9e0e81565b7f1aae3a02ff9317dfd8069a6505dea22a406cd597e82a33d461bc741bc9e647546113af81612485565b6000600184815481106113c5576113c4613761565b5b906000526020600020906004020190508060020160009054906101000a900473ffffffffffffffffffffffffffffffffffffffff1673ffffffffffffffffffffffffffffffffffffffff163373ffffffffffffffffffffffffffffffffffffffff1614611467576040517f08c379a000000000000000000000000000000000000000000000000000000000815260040161145e90613802565b60405180910390fd5b60008160020160009054906101000a900473ffffffffffffffffffffffffffffffffffffffff16905083600186815481106114a5576114a4613761565b5b906000526020600020906004020160020160006101000a81548173ffffffffffffffffffffffffffffffffffffffff021916908373ffffffffffffffffffffffffffffffffffffffff1602179055506114fc6126d5565b84816000019073ffffffffffffffffffffffffffffffffffffffff16908173ffffffffffffffffffffffffffffffffffffffff1681525050428160200181815250506040518060400160405280601c81526020017f5472616e7366657272656420746f20616e2061676772656761746f720000000081525081604001819052506003600087815260200190815260200160002081908060018154018082558091505060019003906000526020600020906003020160009091909190915060008201518160000160006101000a81548173ffffffffffffffffffffffffffffffffffffffff021916908373ffffffffffffffffffffffffffffffffffffffff16021790555060208201518160010155604082015181600201908161161f919061356d565b5050507f3f460d7a74336bdccd60408fbcdecd51721ffebd298cc994100c050f6544ebb886838742604051611657949392919061386e565b60405180910390a1505050505050565b6006818154811061167757600080fd5b906000526020600020016000915054906101000a900473ffffffffffffffffffffffffffffffffffffffff1681565b600080600084815260200190815260200160002060000160008373ffffffffffffffffffffffffffffffffffffffff1673ffffffffffffffffffffffffffffffffffffffff16815260200190815260200160002060009054906101000a900460ff16905092915050565b6000801b81565b7f78047634eb0ea25ec59dc1b0568e3280fe1d08ca41cd8b39596c8482adce9e0e61174181612485565b60006001848154811061175757611756613761565b5b906000526020600020906004020190508060020160009054906101000a900473ffffffffffffffffffffffffffffffffffffffff1673ffffffffffffffffffffffffffffffffffffffff163373ffffffffffffffffffffffffffffffffffffffff16146117f9576040517f08c379a00000000000000000000000000000000000000000000000000000000081526004016117f090613802565b60405180910390fd5b60008160020160009054906101000a900473ffffffffffffffffffffffffffffffffffffffff169050836001868154811061183757611836613761565b5b906000526020600020906004020160020160006101000a81548173ffffffffffffffffffffffffffffffffffffffff021916908373ffffffffffffffffffffffffffffffffffffffff16021790555061188e6126d5565b84816000019073ffffffffffffffffffffffffffffffffffffffff16908173ffffffffffffffffffffffffffffffffffffffff1681525050428160200181815250506040518060400160405280601981526020017f5472616e7366657272656420746f20612072657461696c65720000000000000081525081604001819052506003600087815260200190815260200160002081908060018154018082558091505060019003906000526020600020906003020160009091909190915060008201518160000160006101000a81548173ffffffffffffffffffffffffffffffffffffffff021916908373ffffffffffffffffffffffffffffffffffffffff1602179055506020820151816001015560408201518160020190816119b1919061356d565b5050507f3f460d7a74336bdccd60408fbcdecd51721ffebd298cc994100c050f6544ebb8868387426040516119e99493929190613912565b60405180910390a1505050505050565b7fc2030e84afe8cfd541c4479ced4b7fbe215607847bc89259553fe65775d29de281565b60018181548110611a2d57600080fd5b9060005260206000209060040201600091509050806000015490806001018054611a5690613390565b80601f0160208091040260200160405190810160405280929190818152602001828054611a8290613390565b8015611acf5780601f10611aa457610100808354040283529160200191611acf565b820191906000526020600020905b815481529060010190602001808311611ab257829003601f168201915b5050505050908060020160009054906101000a900473ffffffffffffffffffffffffffffffffffffffff16908060030154905084565b6060600460008373ffffffffffffffffffffffffffffffffffffffff1673ffffffffffffffffffffffffffffffffffffffff1681526020019081526020016000208054611b5190613390565b80601f0160208091040260200160405190810160405280929190818152602001828054611b7d90613390565b8015611bca5780601f10611b9f57610100808354040283529160200191611bca565b820191906000526020600020905b815481529060010190602001808311611bad57829003601f168201915b50505050509050919050565b611be36000801b336116a6565b611c22576040517f08c379a0000000000000000000000000000000000000000000000000000000008152600401611c19906139b6565b60405180910390fd5b611c2c8282612592565b505050565b606080600060078054905067ffffffffffffffff811115611c5557611c54612c30565b5b604051908082528060200260200182016040528015611c8857816020015b6060815260200190600190039081611c735790505b50905060005b600780549050811015611dcc576004600060078381548110611cb357611cb2613761565b5b9060005260206000200160009054906101000a900473ffffffffffffffffffffffffffffffffffffffff1673ffffffffffffffffffffffffffffffffffffffff1673ffffffffffffffffffffffffffffffffffffffff1681526020019081526020016000208054611d2390613390565b80601f0160208091040260200160405190810160405280929190818152602001828054611d4f90613390565b8015611d9c5780601f10611d7157610100808354040283529160200191611d9c565b820191906000526020600020905b815481529060010190602001808311611d7f57829003601f168201915b5050505050828281518110611db457611db3613761565b5b60200260200101819052508080600101915050611c8e565b5060078181805480602002602001604051908101604052809291908181526020018280548015611e5157602002820191906000526020600020905b8160009054906101000a900473ffffffffffffffffffffffffffffffffffffffff1673ffffffffffffffffffffffffffffffffffffffff1681526020019060010190808311611e07575b5050505050915092509250509091565b7fc2030e84afe8cfd541c4479ced4b7fbe215607847bc89259553fe65775d29de2611e8b81612485565b600060018381548110611ea157611ea0613761565b5b906000526020600020906004020190508060020160009054906101000a900473ffffffffffffffffffffffffffffffffffffffff1673ffffffffffffffffffffffffffffffffffffffff163373ffffffffffffffffffffffffffffffffffffffff1614611f43576040517f08c379a0000000000000000000000000000000000000000000000000000000008152600401611f3a90613802565b60405180910390fd5b611f4b6126d5565b8160020160009054906101000a900473ffffffffffffffffffffffffffffffffffffffff16816000019073ffffffffffffffffffffffffffffffffffffffff16908173ffffffffffffffffffffffffffffffffffffffff1681525050428160200181815250506040518060400160405280601281526020017f536f6c6420746f206120637573746f6d6572000000000000000000000000000081525081604001819052506003600085815260200190815260200160002081908060018154018082558091505060019003906000526020600020906003020160009091909190915060008201518160000160006101000a81548173ffffffffffffffffffffffffffffffffffffffff021916908373ffffffffffffffffffffffffffffffffffffffff160217905550602082015181600101556040820151816002019081612092919061356d565b5050507f4ecb3d9e24d3ba23e01ff61ca57520c0b786f81e9d715fb72ecd0a931cd8fb45848360020160009054906101000a900473ffffffffffffffffffffffffffffffffffffffff16426040516120ec93929190613a22565b60405180910390a150505050565b6121076000801b336116a6565b612146576040517f08c379a000000000000000000000000000000000000000000000000000000000815260040161213d906139b6565b60405180910390fd5b6121508383612499565b5061215b8282610e99565b505050565b6003602052816000526040600020818154811061217c57600080fd5b9060005260206000209060030201600091509150508060000160009054906101000a900473ffffffffffffffffffffffffffffffffffffffff16908060010154908060020180546121cc90613390565b80601f01602080910402602001604051908101604052809291908181526020018280546121f890613390565b80156122455780601f1061221a57610100808354040283529160200191612245565b820191906000526020600020905b81548152906001019060200180831161222857829003601f168201915b5050505050905083565b7f1aae3a02ff9317dfd8069a6505dea22a406cd597e82a33d461bc741bc9e6475481565b826001858154811061228857612287613761565b5b906000526020600020906004020160020160006101000a81548173ffffffffffffffffffffffffffffffffffffffff021916908373ffffffffffffffffffffffffffffffffffffffff1602179055506122df6126d5565b83816000019073ffffffffffffffffffffffffffffffffffffffff16908173ffffffffffffffffffffffffffffffffffffffff16815250504281602001818152505082828080601f016020809104026020016040519081016040528093929190818152602001838380828437600081840152601f19601f8201169050808301925050505050505081604001819052506003600086815260200190815260200160002081908060018154018082558091505060019003906000526020600020906003020160009091909190915060008201518160000160006101000a81548173ffffffffffffffffffffffffffffffffffffffff021916908373ffffffffffffffffffffffffffffffffffffffff160217905550602082015181600101556040820151816002019081612411919061356d565b5050505050505050565b60007f01ffc9a7000000000000000000000000000000000000000000000000000000007bffffffffffffffffffffffffffffffffffffffffffffffffffffffff1916827bffffffffffffffffffffffffffffffffffffffffffffffffffffffff1916149050919050565b6124968161249161258a565b612684565b50565b60006124a583836116a6565b61257f57600160008085815260200190815260200160002060000160008473ffffffffffffffffffffffffffffffffffffffff1673ffffffffffffffffffffffffffffffffffffffff16815260200190815260200160002060006101000a81548160ff02191690831515021790555061251c61258a565b73ffffffffffffffffffffffffffffffffffffffff168273ffffffffffffffffffffffffffffffffffffffff16847f2f8788117e7eff1d82e926ec794901d17c78024a50270940304540a733656f0d60405160405180910390a460019050612584565b600090505b92915050565b600033905090565b600061259e83836116a6565b1561267957600080600085815260200190815260200160002060000160008473ffffffffffffffffffffffffffffffffffffffff1673ffffffffffffffffffffffffffffffffffffffff16815260200190815260200160002060006101000a81548160ff02191690831515021790555061261661258a565b73ffffffffffffffffffffffffffffffffffffffff168273ffffffffffffffffffffffffffffffffffffffff16847ff6391f5c32d9c69d2a47ea670b442974b53935d1edc7fd64eb21e047a839171b60405160405180910390a46001905061267e565b600090505b92915050565b61268e82826116a6565b6126d15780826040517fe2517d3f0000000000000000000000000000000000000000000000000000000081526004016126c8929190613a6c565b60405180910390fd5b5050565b6040518060600160405280600073ffffffffffffffffffffffffffffffffffffffff16815260200160008152602001606081525090565b6000604051905090565b600080fd5b600080fd5b60007fffffffff0000000000000000000000000000000000000000000000000000000082169050919050565b61275581612720565b811461276057600080fd5b50565b6000813590506127728161274c565b92915050565b60006020828403121561278e5761278d612716565b5b600061279c84828501612763565b91505092915050565b60008115159050919050565b6127ba816127a5565b82525050565b60006020820190506127d560008301846127b1565b92915050565b600081519050919050565b600082825260208201905092915050565b6000819050602082019050919050565b6000819050919050565b61281a81612807565b82525050565b600081519050919050565b600082825260208201905092915050565b60005b8381101561285a57808201518184015260208101905061283f565b60008484015250505050565b6000601f19601f8301169050919050565b600061288282612820565b61288c818561282b565b935061289c81856020860161283c565b6128a581612866565b840191505092915050565b600073ffffffffffffffffffffffffffffffffffffffff82169050919050565b60006128db826128b0565b9050919050565b6128eb816128d0565b82525050565b60006080830160008301516129096000860182612811565b50602083015184820360208601526129218282612877565b915050604083015161293660408601826128e2565b5060608301516129496060860182612811565b508091505092915050565b600061296083836128f1565b905092915050565b6000602082019050919050565b6000612980826127db565b61298a81856127e6565b93508360208202850161299c856127f7565b8060005b858110156129d857848403895281516129b98582612954565b94506129c483612968565b925060208a019950506001810190506129a0565b50829750879550505050505092915050565b60006020820190508181036000830152612a048184612975565b905092915050565b612a1581612807565b8114612a2057600080fd5b50565b600081359050612a3281612a0c565b92915050565b600060208284031215612a4e57612a4d612716565b5b6000612a5c84828501612a23565b91505092915050565b600081519050919050565b600082825260208201905092915050565b6000819050602082019050919050565b6000606083016000830151612aa960008601826128e2565b506020830151612abc6020860182612811565b5060408301518482036040860152612ad48282612877565b9150508091505092915050565b6000612aed8383612a91565b905092915050565b6000602082019050919050565b6000612b0d82612a65565b612b178185612a70565b935083602082028501612b2985612a81565b8060005b85811015612b655784840389528151612b468582612ae1565b9450612b5183612af5565b925060208a01995050600181019050612b2d565b50829750879550505050505092915050565b60006020820190508181036000830152612b918184612b02565b905092915050565b6000819050919050565b612bac81612b99565b8114612bb757600080fd5b50565b600081359050612bc981612ba3565b92915050565b600060208284031215612be557612be4612716565b5b6000612bf384828501612bba565b91505092915050565b612c0581612b99565b82525050565b6000602082019050612c206000830184612bfc565b92915050565b600080fd5b600080fd5b7f4e487b7100000000000000000000000000000000000000000000000000000000600052604160045260246000fd5b612c6882612866565b810181811067ffffffffffffffff82111715612c8757612c86612c30565b5b80604052505050565b6000612c9a61270c565b9050612ca68282612c5f565b919050565b600067ffffffffffffffff821115612cc657612cc5612c30565b5b612ccf82612866565b9050602081019050919050565b82818337600083830152505050565b6000612cfe612cf984612cab565b612c90565b905082815260208101848484011115612d1a57612d19612c2b565b5b612d25848285612cdc565b509392505050565b600082601f830112612d4257612d41612c26565b5b8135612d52848260208601612ceb565b91505092915050565b60008060408385031215612d7257612d71612716565b5b600083013567ffffffffffffffff811115612d9057612d8f61271b565b5b612d9c85828601612d2d565b9250506020612dad85828601612a23565b9150509250929050565b612dc0816128d0565b8114612dcb57600080fd5b50565b600081359050612ddd81612db7565b92915050565b60008060408385031215612dfa57612df9612716565b5b6000612e0885828601612bba565b9250506020612e1985828601612dce565b9150509250929050565b600081519050919050565b600082825260208201905092915050565b6000819050602082019050919050565b6000612e5b83836128e2565b60208301905092915050565b6000602082019050919050565b6000612e7f82612e23565b612e898185612e2e565b9350612e9483612e3f565b8060005b83811015612ec5578151612eac8882612e4f565b9750612eb783612e67565b925050600181019050612e98565b5085935050505092915050565b600081519050919050565b600082825260208201905092915050565b6000819050602082019050919050565b6000612f0a8383612877565b905092915050565b6000602082019050919050565b6000612f2a82612ed2565b612f348185612edd565b935083602082028501612f4685612eee565b8060005b85811015612f825784840389528151612f638582612efe565b9450612f6e83612f12565b925060208a01995050600181019050612f4a565b50829750879550505050505092915050565b60006040820190508181036000830152612fae8185612e74565b90508181036020830152612fc28184612f1f565b90509392505050565b60008060408385031215612fe257612fe1612716565b5b6000612ff085828601612dce565b925050602083013567ffffffffffffffff8111156130115761301061271b565b5b61301d85828601612d2d565b9150509250929050565b61303081612807565b82525050565b600060208201905061304b6000830184613027565b92915050565b61305a816128d0565b82525050565b60006020820190506130756000830184613051565b92915050565b6000806040838503121561309257613091612716565b5b60006130a085828601612a23565b92505060206130b185828601612dce565b9150509250929050565b600082825260208201905092915050565b60006130d782612820565b6130e181856130bb565b93506130f181856020860161283c565b6130fa81612866565b840191505092915050565b600060808201905061311a6000830187613027565b818103602083015261312c81866130cc565b905061313b6040830185613051565b6131486060830184613027565b95945050505050565b60006020828403121561316757613166612716565b5b600061317584828501612dce565b91505092915050565b6000602082019050818103600083015261319881846130cc565b905092915050565b6000806000606084860312156131b9576131b8612716565b5b60006131c786828701612bba565b93505060206131d886828701612dce565b925050604084013567ffffffffffffffff8111156131f9576131f861271b565b5b61320586828701612d2d565b9150509250925092565b6000806040838503121561322657613225612716565b5b600061323485828601612a23565b925050602061324585828601612a23565b9150509250929050565b60006060820190506132646000830186613051565b6132716020830185613027565b818103604083015261328381846130cc565b9050949350505050565b600080fd5b600080fd5b60008083601f8401126132ad576132ac612c26565b5b8235905067ffffffffffffffff8111156132ca576132c961328d565b5b6020830191508360018202830111156132e6576132e5613292565b5b9250929050565b6000806000806060858703121561330757613306612716565b5b600061331587828801612a23565b945050602061332687828801612dce565b935050604085013567ffffffffffffffff8111156133475761334661271b565b5b61335387828801613297565b925092505092959194509250565b7f4e487b7100000000000000000000000000000000000000000000000000000000600052602260045260246000fd5b600060028204905060018216806133a857607f821691505b6020821081036133bb576133ba613361565b5b50919050565b60008190508160005260206000209050919050565b60006020601f8301049050919050565b600082821b905092915050565b6000600883026134237fffffffffffffffffffffffffffffffffffffffffffffffffffffffffffffffff826133e6565b61342d86836133e6565b95508019841693508086168417925050509392505050565b6000819050919050565b600061346a61346561346084612807565b613445565b612807565b9050919050565b6000819050919050565b6134848361344f565b61349861349082613471565b8484546133f3565b825550505050565b600090565b6134ad6134a0565b6134b881848461347b565b505050565b5b818110156134dc576134d16000826134a5565b6001810190506134be565b5050565b601f821115613521576134f2816133c1565b6134fb846133d6565b8101602085101561350a578190505b61351e613516856133d6565b8301826134bd565b50505b505050565b600082821c905092915050565b600061354460001984600802613526565b1980831691505092915050565b600061355d8383613533565b9150826002028217905092915050565b61357682612820565b67ffffffffffffffff81111561358f5761358e612c30565b5b6135998254613390565b6135a48282856134e0565b600060209050601f8311600181146135d757600084156135c5578287015190505b6135cf8582613551565b865550613637565b601f1984166135e5866133c1565b60005b8281101561360d578489015182556001820191506020850194506020810190506135e8565b8683101561362a5784890151613626601f891682613533565b8355505b6001600288020188555050505b505050505050565b7f4372656174656400000000000000000000000000000000000000000000000000600082015250565b60006136756007836130bb565b91506136808261363f565b602082019050919050565b600060a08201905081810360008301526136a581876130cc565b90506136b46020830186613051565b6136c16040830185613027565b6136ce6060830184613027565b81810360808301526136df81613668565b905095945050505050565b7f4e487b7100000000000000000000000000000000000000000000000000000000600052601160045260246000fd5b600061372482612807565b91507fffffffffffffffffffffffffffffffffffffffffffffffffffffffffffffffff8203613756576137556136ea565b5b600182019050919050565b7f4e487b7100000000000000000000000000000000000000000000000000000000600052603260045260246000fd5b7f4f6e6c79207468652063757272656e74206f776e65722063616e207472616e7360008201527f6665722070726f64756365000000000000000000000000000000000000000000602082015250565b60006137ec602b836130bb565b91506137f782613790565b604082019050919050565b6000602082019050818103600083015261381b816137df565b9050919050565b7f5472616e7366657272656420746f20616e2061676772656761746f7200000000600082015250565b6000613858601c836130bb565b915061386382613822565b602082019050919050565b600060a0820190506138836000830187613027565b6138906020830186613051565b61389d6040830185613051565b6138aa6060830184613027565b81810360808301526138bb8161384b565b905095945050505050565b7f5472616e7366657272656420746f20612072657461696c657200000000000000600082015250565b60006138fc6019836130bb565b9150613907826138c6565b602082019050919050565b600060a0820190506139276000830187613027565b6139346020830186613051565b6139416040830185613051565b61394e6060830184613027565b818103608083015261395f816138ef565b905095945050505050565b7f43616c6c6572206973206e6f7420616e2061646d696e00000000000000000000600082015250565b60006139a06016836130bb565b91506139ab8261396a565b602082019050919050565b600060208201905081810360008301526139cf81613993565b9050919050565b7f536f6c6420746f206120637573746f6d65720000000000000000000000000000600082015250565b6000613a0c6012836130bb565b9150613a17826139d6565b602082019050919050565b6000608082019050613a376000830186613027565b613a446020830185613051565b613a516040830184613027565b8181036060830152613a62816139ff565b9050949350505050565b6000604082019050613a816000830185613051565b613a8e6020830184612bfc565b939250505056fea26469706673582212206249de961fb7004ae6421815be2294be86eb1b3cb21619413ba125566e3a03d264736f6c63430008180033",
  "linkReferences": {},
  "deployedLinkReferences": {}
}