{
  "_format": "hh-sol-artifact-1",
  "contractName": "OrganicProduceSupplyChain",
  "sourceName": "contracts/OrganicProduceSupplyChain.sol",
  "abi": [
    {
      "inputs": [],
      "stateMutability": "nonpayable",
      "type": "constructor"
    },
    {
      "inputs": [],
      "name": "AccessControlBadConfirmation",
      "type": "error"
    },
    {
      "inputs": [
        {
          "internalType": "address",
          "name": "account",
          "type": "address"
        },
        {
          "internalType": "bytes32",
          "name": "neededRole",
          "type": "bytes32"
        }
      ],
      "name": "AccessControlUnauthorizedAccount",
      "type": "error"
    },
    {
      "anonymous": false,
      "inputs": [
        {
          "indexed": false,
          "internalType": "string",
          "name": "name",
          "type": "string"
        },
        {
          "indexed": false,
          "internalType": "address",
          "name": "owner",
          "type": "address"
        },
        {
          "indexed": false,
          "internalType": "uint256",
          "name": "amount",
          "type": "uint256"
        },
        {
          "indexed": false,
          "internalType": "uint256",
          "name": "timestamp",
          "type": "uint256"
        },
        {
          "indexed": false,
          "internalType": "string",
          "name": "status",
          "type": "string"
        }
      ],
      "name": "ProduceCreated",
      "type": "event"
    },
    {
      "anonymous": false,
      "inputs": [
        {
          "indexed": false,
          "internalType": "uint256",
          "name": "id",
          "type": "uint256"
        },
        {
          "indexed": false,
          "internalType": "address",
          "name": "owner",
          "type": "address"
        },
        {
          "indexed": false,
          "internalType": "uint256",
          "name": "timestamp",
          "type": "uint256"
        },
        {
          "indexed": false,
          "internalType": "string",
          "name": "status",
          "type": "string"
        }
      ],
      "name": "ProduceSoldToCustomer",
      "type": "event"
    },
    {
      "anonymous": false,
      "inputs": [
        {
          "indexed": false,
          "internalType": "uint256",
          "name": "id",
          "type": "uint256"
        },
        {
          "indexed": false,
          "internalType": "address",
          "name": "oldOwner",
          "type": "address"
        },
        {
          "indexed": false,
          "internalType": "address",
          "name": "newOwner",
          "type": "address"
        },
        {
          "indexed": false,
          "internalType": "uint256",
          "name": "timestamp",
          "type": "uint256"
        },
        {
          "indexed": false,
          "internalType": "string",
          "name": "status",
          "type": "string"
        }
      ],
      "name": "ProduceTransferred",
      "type": "event"
    },
    {
      "anonymous": false,
      "inputs": [
        {
          "indexed": true,
          "internalType": "bytes32",
          "name": "role",
          "type": "bytes32"
        },
        {
          "indexed": true,
          "internalType": "bytes32",
          "name": "previousAdminRole",
          "type": "bytes32"
        },
        {
          "indexed": true,
          "internalType": "bytes32",
          "name": "newAdminRole",
          "type": "bytes32"
        }
      ],
      "name": "RoleAdminChanged",
      "type": "event"
    },
    {
      "anonymous": false,
      "inputs": [
        {
          "indexed": true,
          "internalType": "bytes32",
          "name": "role",
          "type": "bytes32"
        },
        {
          "indexed": true,
          "internalType": "address",
          "name": "account",
          "type": "address"
        },
        {
          "indexed": true,
          "internalType": "address",
          "name": "sender",
          "type": "address"
        }
      ],
      "name": "RoleGranted",
      "type": "event"
    },
    {
      "anonymous": false,
      "inputs": [
        {
          "indexed": true,
          "internalType": "bytes32",
          "name": "role",
          "type": "bytes32"
        },
        {
          "indexed": true,
          "internalType": "address",
          "name": "account",
          "type": "address"
        },
        {
          "indexed": true,
          "internalType": "address",
          "name": "sender",
          "type": "address"
        }
      ],
      "name": "RoleRevoked",
      "type": "event"
    },
    {
      "inputs": [],
      "name": "DEFAULT_ADMIN_ROLE",
      "outputs": [
        {
          "internalType": "bytes32",
          "name": "",
          "type": "bytes32"
        }
      ],
      "stateMutability": "view",
      "type": "function"
    },
    {
      "inputs": [],
      "name": "ROLE_AGGREGATOR",
      "outputs": [
        {
          "internalType": "bytes32",
          "name": "",
          "type": "bytes32"
        }
      ],
      "stateMutability": "view",
      "type": "function"
    },
    {
      "inputs": [],
      "name": "ROLE_FARMER",
      "outputs": [
        {
          "internalType": "bytes32",
          "name": "",
          "type": "bytes32"
        }
      ],
      "stateMutability": "view",
      "type": "function"
    },
    {
      "inputs": [],
      "name": "ROLE_RETAILER",
      "outputs": [
        {
          "internalType": "bytes32",
          "name": "",
          "type": "bytes32"
        }
      ],
      "stateMutability": "view",
      "type": "function"
    },
    {
      "inputs": [
        {
          "internalType": "address",
          "name": "_user",
          "type": "address"
        },
        {
          "internalType": "string",
          "name": "_name",
          "type": "string"
        }
      ],
      "name": "addUser",
      "outputs": [],
      "stateMutability": "nonpayable",
      "type": "function"
    },
    {
      "inputs": [
        {
          "internalType": "uint256",
          "name": "",
          "type": "uint256"
        }
      ],
      "name": "allProduce",
      "outputs": [
        {
          "internalType": "uint256",
          "name": "id",
          "type": "uint256"
        },
        {
          "internalType": "string",
          "name": "name",
          "type": "string"
        },
        {
          "internalType": "address",
          "name": "currentOwner",
          "type": "address"
        },
        {
          "internalType": "uint256",
          "name": "amount",
          "type": "uint256"
        }
      ],
      "stateMutability": "view",
      "type": "function"
    },
    {
      "inputs": [
        {
          "internalType": "string",
          "name": "_name",
          "type": "string"
        },
        {
          "internalType": "uint256",
          "name": "_amount",
          "type": "uint256"
        }
      ],
      "name": "createProduce",
      "outputs": [],
      "stateMutability": "nonpayable",
      "type": "function"
    },
    {
      "inputs": [],
      "name": "getAllProduce",
      "outputs": [
        {
          "components": [
            {
              "internalType": "uint256",
              "name": "id",
              "type": "uint256"
            },
            {
              "internalType": "string",
              "name": "name",
              "type": "string"
            },
            {
              "internalType": "address",
              "name": "currentOwner",
              "type": "address"
            },
            {
              "internalType": "uint256",
              "name": "amount",
              "type": "uint256"
            }
          ],
          "internalType": "struct OrganicProduceSupplyChain.Produce[]",
          "name": "",
          "type": "tuple[]"
        }
      ],
      "stateMutability": "view",
      "type": "function"
    },
    {
      "inputs": [
        {
          "internalType": "uint256",
          "name": "_id",
          "type": "uint256"
        }
      ],
      "name": "getProduceHistory",
      "outputs": [
        {
          "components": [
            {
              "internalType": "address",
              "name": "owner",
              "type": "address"
            },
            {
              "internalType": "uint256",
              "name": "timestamp",
              "type": "uint256"
            },
            {
              "internalType": "string",
              "name": "status",
              "type": "string"
            }
          ],
          "internalType": "struct OrganicProduceSupplyChain.History[]",
          "name": "",
          "type": "tuple[]"
        }
      ],
      "stateMutability": "view",
      "type": "function"
    },
    {
      "inputs": [
        {
          "internalType": "bytes32",
          "name": "role",
          "type": "bytes32"
        }
      ],
      "name": "getRoleAdmin",
      "outputs": [
        {
          "internalType": "bytes32",
          "name": "",
          "type": "bytes32"
        }
      ],
      "stateMutability": "view",
      "type": "function"
    },
    {
      "inputs": [
        {
          "internalType": "address",
          "name": "_user",
          "type": "address"
        }
      ],
      "name": "getUsername",
      "outputs": [
        {
          "internalType": "string",
          "name": "",
          "type": "string"
        }
      ],
      "stateMutability": "view",
      "type": "function"
    },
    {
      "inputs": [
        {
          "internalType": "bytes32",
          "name": "role",
          "type": "bytes32"
        },
        {
          "internalType": "address",
          "name": "_account",
          "type": "address"
        }
      ],
      "name": "grantRole",
      "outputs": [],
      "stateMutability": "nonpayable",
      "type": "function"
    },
    {
      "inputs": [
        {
          "internalType": "bytes32",
          "name": "role",
          "type": "bytes32"
        },
        {
          "internalType": "address",
          "name": "account",
          "type": "address"
        }
      ],
      "name": "hasRole",
      "outputs": [
        {
          "internalType": "bool",
          "name": "",
          "type": "bool"
        }
      ],
      "stateMutability": "view",
      "type": "function"
    },
    {
      "inputs": [
        {
          "internalType": "uint256",
          "name": "",
          "type": "uint256"
        },
        {
          "internalType": "uint256",
          "name": "",
          "type": "uint256"
        }
      ],
      "name": "histories",
      "outputs": [
        {
          "internalType": "address",
          "name": "owner",
          "type": "address"
        },
        {
          "internalType": "uint256",
          "name": "timestamp",
          "type": "uint256"
        },
        {
          "internalType": "string",
          "name": "status",
          "type": "string"
        }
      ],
      "stateMutability": "view",
      "type": "function"
    },
    {
      "inputs": [],
      "name": "produceCount",
      "outputs": [
        {
          "internalType": "uint256",
          "name": "",
          "type": "uint256"
        }
      ],
      "stateMutability": "view",
      "type": "function"
    },
    {
      "inputs": [
        {
          "internalType": "bytes32",
          "name": "role",
          "type": "bytes32"
        },
        {
          "internalType": "address",
          "name": "callerConfirmation",
          "type": "address"
        }
      ],
      "name": "renounceRole",
      "outputs": [],
      "stateMutability": "nonpayable",
      "type": "function"
    },
    {
      "inputs": [
        {
          "internalType": "bytes32",
          "name": "role",
          "type": "bytes32"
        },
        {
          "internalType": "address",
          "name": "account",
          "type": "address"
        }
      ],
      "name": "revokeRole",
      "outputs": [],
      "stateMutability": "nonpayable",
      "type": "function"
    },
    {
      "inputs": [
        {
          "internalType": "uint256",
          "name": "_produceId",
          "type": "uint256"
        }
      ],
      "name": "soldToCustomer",
      "outputs": [],
      "stateMutability": "nonpayable",
      "type": "function"
    },
    {
      "inputs": [
        {
          "internalType": "bytes4",
          "name": "interfaceId",
          "type": "bytes4"
        }
      ],
      "name": "supportsInterface",
      "outputs": [
        {
          "internalType": "bool",
          "name": "",
          "type": "bool"
        }
      ],
      "stateMutability": "view",
      "type": "function"
    },
    {
      "inputs": [
        {
          "internalType": "uint256",
          "name": "_produceId",
          "type": "uint256"
        },
        {
          "internalType": "address",
          "name": "_newOwner",
          "type": "address"
        },
        {
          "internalType": "string",
          "name": "_status",
          "type": "string"
        }
      ],
      "name": "transferProduce",
      "outputs": [],
      "stateMutability": "nonpayable",
      "type": "function"
    },
    {
      "inputs": [
        {
          "internalType": "uint256",
          "name": "_produceId",
          "type": "uint256"
        },
        {
          "internalType": "address",
          "name": "_newOwner",
          "type": "address"
        }
      ],
      "name": "transferProduceToAggregator",
      "outputs": [],
      "stateMutability": "nonpayable",
      "type": "function"
    },
    {
      "inputs": [
        {
          "internalType": "uint256",
          "name": "_produceId",
          "type": "uint256"
        },
        {
          "internalType": "address",
          "name": "_newOwner",
          "type": "address"
        }
      ],
      "name": "transferProduceToRetailer",
      "outputs": [],
      "stateMutability": "nonpayable",
      "type": "function"
    },
    {
      "inputs": [
        {
          "internalType": "address",
          "name": "",
          "type": "address"
        }
      ],
      "name": "users",
      "outputs": [
        {
          "internalType": "string",
          "name": "",
          "type": "string"
        }
      ],
      "stateMutability": "view",
      "type": "function"
    }
  ],
  "bytecode": "0x608060405260006002553480156200001657600080fd5b506200002c6000801b336200003360201b60201c565b50620001a8565b60006200004783836200013660201b60201c565b6200012b57600160008085815260200190815260200160002060000160008473ffffffffffffffffffffffffffffffffffffffff1673ffffffffffffffffffffffffffffffffffffffff16815260200190815260200160002060006101000a81548160ff021916908315150217905550620000c7620001a060201b60201c565b73ffffffffffffffffffffffffffffffffffffffff168273ffffffffffffffffffffffffffffffffffffffff16847f2f8788117e7eff1d82e926ec794901d17c78024a50270940304540a733656f0d60405160405180910390a46001905062000130565b600090505b92915050565b600080600084815260200190815260200160002060000160008373ffffffffffffffffffffffffffffffffffffffff1673ffffffffffffffffffffffffffffffffffffffff16815260200190815260200160002060009054906101000a900460ff16905092915050565b600033905090565b612ee080620001b86000396000f3fe608060405234801561001057600080fd5b506004361061014d5760003560e01c806391d14854116100c3578063ce43c0321161007c578063ce43c032146103b3578063d547741f146103e3578063dc683299146103ff578063de16017a1461041b578063ebb6a8ce1461044d578063fc3c13c91461046b5761014d565b806391d14854146102c8578063a217fddf146102f8578063a87430ba14610316578063aabae7c214610346578063b43857e814610362578063cbfae8d4146103805761014d565b80632f2ff15d116101155780632f2ff15d1461021c57806336568abe146102385780634b68d43114610254578063769428d4146102705780638b68e64d1461028e5780638d09cf24146102ac5761014d565b806301ffc9a714610152578063169d83311461018257806317367807146101a0578063248a9ca3146101d05780632bf690b814610200575b600080fd5b61016c60048036038101906101679190611dbf565b610487565b6040516101799190611e07565b60405180910390f35b61018a610501565b6040516101979190612031565b60405180910390f35b6101ba60048036038101906101b5919061207f565b61065c565b6040516101c791906121be565b60405180910390f35b6101ea60048036038101906101e59190612216565b6107c0565b6040516101f79190612252565b60405180910390f35b61021a600480360381019061021591906123a2565b6107df565b005b6102366004803603810190610231919061242a565b610a71565b005b610252600480360381019061024d919061242a565b610b0b565b005b61026e6004803603810190610269919061246a565b610b86565b005b610278610bd7565b60405161028591906124d5565b60405180910390f35b610296610bdd565b6040516102a39190612252565b60405180910390f35b6102c660048036038101906102c191906124f0565b610c01565b005b6102e260048036038101906102dd919061242a565b610ee3565b6040516102ef9190611e07565b60405180910390f35b610300610f4d565b60405161030d9190612252565b60405180910390f35b610330600480360381019061032b9190612530565b610f54565b60405161033d91906125a7565b60405180910390f35b610360600480360381019061035b91906124f0565b610ff4565b005b61036a6112d6565b6040516103779190612252565b60405180910390f35b61039a6004803603810190610395919061207f565b6112fa565b6040516103aa94939291906125d8565b60405180910390f35b6103cd60048036038101906103c89190612530565b6113e2565b6040516103da91906125a7565b60405180910390f35b6103fd60048036038101906103f8919061242a565b6114b3565b005b6104196004803603810190610414919061207f565b61150e565b005b61043560048036038101906104309190612624565b6117a7565b60405161044493929190612664565b60405180910390f35b610455611896565b6040516104629190612252565b60405180910390f35b61048560048036038101906104809190612702565b6118ba565b005b60007f7965db0b000000000000000000000000000000000000000000000000000000007bffffffffffffffffffffffffffffffffffffffffffffffffffffffff1916827bffffffffffffffffffffffffffffffffffffffffffffffffffffffff191614806104fa57506104f982611a62565b5b9050919050565b60606001805480602002602001604051908101604052809291908181526020016000905b82821015610653578382906000526020600020906004020160405180608001604052908160008201548152602001600182018054610562906127a5565b80601f016020809104026020016040519081016040528092919081815260200182805461058e906127a5565b80156105db5780601f106105b0576101008083540402835291602001916105db565b820191906000526020600020905b8154815290600101906020018083116105be57829003601f168201915b505050505081526020016002820160009054906101000a900473ffffffffffffffffffffffffffffffffffffffff1673ffffffffffffffffffffffffffffffffffffffff1673ffffffffffffffffffffffffffffffffffffffff16815260200160038201548152505081526020019060010190610525565b50505050905090565b606060036000838152602001908152602001600020805480602002602001604051908101604052809291908181526020016000905b828210156107b557838290600052602060002090600302016040518060600160405290816000820160009054906101000a900473ffffffffffffffffffffffffffffffffffffffff1673ffffffffffffffffffffffffffffffffffffffff1673ffffffffffffffffffffffffffffffffffffffff16815260200160018201548152602001600282018054610724906127a5565b80601f0160208091040260200160405190810160405280929190818152602001828054610750906127a5565b801561079d5780601f106107725761010080835404028352916020019161079d565b820191906000526020600020905b81548152906001019060200180831161078057829003601f168201915b50505050508152505081526020019060010190610691565b505050509050919050565b6000806000838152602001908152602001600020600101549050919050565b7f1aae3a02ff9317dfd8069a6505dea22a406cd597e82a33d461bc741bc9e6475461080981611acc565b6000604051806080016040528060025481526020018581526020013373ffffffffffffffffffffffffffffffffffffffff16815260200184815250905060018190806001815401808255809150506001900390600052602060002090600402016000909190919091506000820151816000015560208201518160010190816108919190612982565b5060408201518160020160006101000a81548173ffffffffffffffffffffffffffffffffffffffff021916908373ffffffffffffffffffffffffffffffffffffffff1602179055506060820151816003015550506108ed611d1c565b33816000019073ffffffffffffffffffffffffffffffffffffffff16908173ffffffffffffffffffffffffffffffffffffffff1681525050428160200181815250506040518060400160405280600781526020017f4372656174656400000000000000000000000000000000000000000000000000815250816040018190525060036000600254815260200190815260200160002081908060018154018082558091505060019003906000526020600020906003020160009091909190915060008201518160000160006101000a81548173ffffffffffffffffffffffffffffffffffffffff021916908373ffffffffffffffffffffffffffffffffffffffff160217905550602082015181600101556040820151816002019081610a129190612982565b5050507f5155bc6afc8b095911510137f07a64f3744cf1d4918f2e5a4ddbec501c02aecc85338642604051610a4a9493929190612aa0565b60405180910390a160026000815480929190610a6590612b2e565b91905055505050505050565b610a7e6000801b33610ee3565b610abd576040517f08c379a0000000000000000000000000000000000000000000000000000000008152600401610ab490612bc2565b60405180910390fd5b610ac78282611ae0565b50610b07816040518060400160405280600881526020017f4661726d65722331000000000000000000000000000000000000000000000000815250610b86565b5050565b610b13611bd1565b73ffffffffffffffffffffffffffffffffffffffff168173ffffffffffffffffffffffffffffffffffffffff1614610b77576040517f6697b23200000000000000000000000000000000000000000000000000000000815260040160405180910390fd5b610b818282611bd9565b505050565b80600460008473ffffffffffffffffffffffffffffffffffffffff1673ffffffffffffffffffffffffffffffffffffffff1681526020019081526020016000209081610bd29190612982565b505050565b60025481565b7f78047634eb0ea25ec59dc1b0568e3280fe1d08ca41cd8b39596c8482adce9e0e81565b7f1aae3a02ff9317dfd8069a6505dea22a406cd597e82a33d461bc741bc9e64754610c2b81611acc565b600060018481548110610c4157610c40612be2565b5b906000526020600020906004020190508060020160009054906101000a900473ffffffffffffffffffffffffffffffffffffffff1673ffffffffffffffffffffffffffffffffffffffff163373ffffffffffffffffffffffffffffffffffffffff1614610ce3576040517f08c379a0000000000000000000000000000000000000000000000000000000008152600401610cda90612c83565b60405180910390fd5b60008160020160009054906101000a900473ffffffffffffffffffffffffffffffffffffffff1690508360018681548110610d2157610d20612be2565b5b906000526020600020906004020160020160006101000a81548173ffffffffffffffffffffffffffffffffffffffff021916908373ffffffffffffffffffffffffffffffffffffffff160217905550610d78611d1c565b84816000019073ffffffffffffffffffffffffffffffffffffffff16908173ffffffffffffffffffffffffffffffffffffffff1681525050428160200181815250506040518060400160405280601c81526020017f5472616e7366657272656420746f20616e2061676772656761746f720000000081525081604001819052506003600087815260200190815260200160002081908060018154018082558091505060019003906000526020600020906003020160009091909190915060008201518160000160006101000a81548173ffffffffffffffffffffffffffffffffffffffff021916908373ffffffffffffffffffffffffffffffffffffffff160217905550602082015181600101556040820151816002019081610e9b9190612982565b5050507f3f460d7a74336bdccd60408fbcdecd51721ffebd298cc994100c050f6544ebb886838742604051610ed39493929190612cef565b60405180910390a1505050505050565b600080600084815260200190815260200160002060000160008373ffffffffffffffffffffffffffffffffffffffff1673ffffffffffffffffffffffffffffffffffffffff16815260200190815260200160002060009054906101000a900460ff16905092915050565b6000801b81565b60046020528060005260406000206000915090508054610f73906127a5565b80601f0160208091040260200160405190810160405280929190818152602001828054610f9f906127a5565b8015610fec5780601f10610fc157610100808354040283529160200191610fec565b820191906000526020600020905b815481529060010190602001808311610fcf57829003601f168201915b505050505081565b7f78047634eb0ea25ec59dc1b0568e3280fe1d08ca41cd8b39596c8482adce9e0e61101e81611acc565b60006001848154811061103457611033612be2565b5b906000526020600020906004020190508060020160009054906101000a900473ffffffffffffffffffffffffffffffffffffffff1673ffffffffffffffffffffffffffffffffffffffff163373ffffffffffffffffffffffffffffffffffffffff16146110d6576040517f08c379a00000000000000000000000000000000000000000000000000000000081526004016110cd90612c83565b60405180910390fd5b60008160020160009054906101000a900473ffffffffffffffffffffffffffffffffffffffff169050836001868154811061111457611113612be2565b5b906000526020600020906004020160020160006101000a81548173ffffffffffffffffffffffffffffffffffffffff021916908373ffffffffffffffffffffffffffffffffffffffff16021790555061116b611d1c565b84816000019073ffffffffffffffffffffffffffffffffffffffff16908173ffffffffffffffffffffffffffffffffffffffff1681525050428160200181815250506040518060400160405280601981526020017f5472616e7366657272656420746f20612072657461696c65720000000000000081525081604001819052506003600087815260200190815260200160002081908060018154018082558091505060019003906000526020600020906003020160009091909190915060008201518160000160006101000a81548173ffffffffffffffffffffffffffffffffffffffff021916908373ffffffffffffffffffffffffffffffffffffffff16021790555060208201518160010155604082015181600201908161128e9190612982565b5050507f3f460d7a74336bdccd60408fbcdecd51721ffebd298cc994100c050f6544ebb8868387426040516112c69493929190612d93565b60405180910390a1505050505050565b7fc2030e84afe8cfd541c4479ced4b7fbe215607847bc89259553fe65775d29de281565b6001818154811061130a57600080fd5b9060005260206000209060040201600091509050806000015490806001018054611333906127a5565b80601f016020809104026020016040519081016040528092919081815260200182805461135f906127a5565b80156113ac5780601f10611381576101008083540402835291602001916113ac565b820191906000526020600020905b81548152906001019060200180831161138f57829003601f168201915b5050505050908060020160009054906101000a900473ffffffffffffffffffffffffffffffffffffffff16908060030154905084565b6060600460008373ffffffffffffffffffffffffffffffffffffffff1673ffffffffffffffffffffffffffffffffffffffff168152602001908152602001600020805461142e906127a5565b80601f016020809104026020016040519081016040528092919081815260200182805461145a906127a5565b80156114a75780601f1061147c576101008083540402835291602001916114a7565b820191906000526020600020905b81548152906001019060200180831161148a57829003601f168201915b50505050509050919050565b6114c06000801b33610ee3565b6114ff576040517f08c379a00000000000000000000000000000000000000000000000000000000081526004016114f690612bc2565b60405180910390fd5b6115098282611bd9565b505050565b7fc2030e84afe8cfd541c4479ced4b7fbe215607847bc89259553fe65775d29de261153881611acc565b60006001838154811061154e5761154d612be2565b5b906000526020600020906004020190508060020160009054906101000a900473ffffffffffffffffffffffffffffffffffffffff1673ffffffffffffffffffffffffffffffffffffffff163373ffffffffffffffffffffffffffffffffffffffff16146115f0576040517f08c379a00000000000000000000000000000000000000000000000000000000081526004016115e790612c83565b60405180910390fd5b6115f8611d1c565b8160020160009054906101000a900473ffffffffffffffffffffffffffffffffffffffff16816000019073ffffffffffffffffffffffffffffffffffffffff16908173ffffffffffffffffffffffffffffffffffffffff1681525050428160200181815250506040518060400160405280601281526020017f536f6c6420746f206120637573746f6d6572000000000000000000000000000081525081604001819052506003600085815260200190815260200160002081908060018154018082558091505060019003906000526020600020906003020160009091909190915060008201518160000160006101000a81548173ffffffffffffffffffffffffffffffffffffffff021916908373ffffffffffffffffffffffffffffffffffffffff16021790555060208201518160010155604082015181600201908161173f9190612982565b5050507f4ecb3d9e24d3ba23e01ff61ca57520c0b786f81e9d715fb72ecd0a931cd8fb45848360020160009054906101000a900473ffffffffffffffffffffffffffffffffffffffff164260405161179993929190612e37565b60405180910390a150505050565b600360205281600052604060002081815481106117c357600080fd5b9060005260206000209060030201600091509150508060000160009054906101000a900473ffffffffffffffffffffffffffffffffffffffff1690806001015490806002018054611813906127a5565b80601f016020809104026020016040519081016040528092919081815260200182805461183f906127a5565b801561188c5780601f106118615761010080835404028352916020019161188c565b820191906000526020600020905b81548152906001019060200180831161186f57829003601f168201915b5050505050905083565b7f1aae3a02ff9317dfd8069a6505dea22a406cd597e82a33d461bc741bc9e6475481565b82600185815481106118cf576118ce612be2565b5b906000526020600020906004020160020160006101000a81548173ffffffffffffffffffffffffffffffffffffffff021916908373ffffffffffffffffffffffffffffffffffffffff160217905550611926611d1c565b83816000019073ffffffffffffffffffffffffffffffffffffffff16908173ffffffffffffffffffffffffffffffffffffffff16815250504281602001818152505082828080601f016020809104026020016040519081016040528093929190818152602001838380828437600081840152601f19601f8201169050808301925050505050505081604001819052506003600086815260200190815260200160002081908060018154018082558091505060019003906000526020600020906003020160009091909190915060008201518160000160006101000a81548173ffffffffffffffffffffffffffffffffffffffff021916908373ffffffffffffffffffffffffffffffffffffffff160217905550602082015181600101556040820151816002019081611a589190612982565b5050505050505050565b60007f01ffc9a7000000000000000000000000000000000000000000000000000000007bffffffffffffffffffffffffffffffffffffffffffffffffffffffff1916827bffffffffffffffffffffffffffffffffffffffffffffffffffffffff1916149050919050565b611add81611ad8611bd1565b611ccb565b50565b6000611aec8383610ee3565b611bc657600160008085815260200190815260200160002060000160008473ffffffffffffffffffffffffffffffffffffffff1673ffffffffffffffffffffffffffffffffffffffff16815260200190815260200160002060006101000a81548160ff021916908315150217905550611b63611bd1565b73ffffffffffffffffffffffffffffffffffffffff168273ffffffffffffffffffffffffffffffffffffffff16847f2f8788117e7eff1d82e926ec794901d17c78024a50270940304540a733656f0d60405160405180910390a460019050611bcb565b600090505b92915050565b600033905090565b6000611be58383610ee3565b15611cc057600080600085815260200190815260200160002060000160008473ffffffffffffffffffffffffffffffffffffffff1673ffffffffffffffffffffffffffffffffffffffff16815260200190815260200160002060006101000a81548160ff021916908315150217905550611c5d611bd1565b73ffffffffffffffffffffffffffffffffffffffff168273ffffffffffffffffffffffffffffffffffffffff16847ff6391f5c32d9c69d2a47ea670b442974b53935d1edc7fd64eb21e047a839171b60405160405180910390a460019050611cc5565b600090505b92915050565b611cd58282610ee3565b611d185780826040517fe2517d3f000000000000000000000000000000000000000000000000000000008152600401611d0f929190612e81565b60405180910390fd5b5050565b6040518060600160405280600073ffffffffffffffffffffffffffffffffffffffff16815260200160008152602001606081525090565b6000604051905090565b600080fd5b600080fd5b60007fffffffff0000000000000000000000000000000000000000000000000000000082169050919050565b611d9c81611d67565b8114611da757600080fd5b50565b600081359050611db981611d93565b92915050565b600060208284031215611dd557611dd4611d5d565b5b6000611de384828501611daa565b91505092915050565b60008115159050919050565b611e0181611dec565b82525050565b6000602082019050611e1c6000830184611df8565b92915050565b600081519050919050565b600082825260208201905092915050565b6000819050602082019050919050565b6000819050919050565b611e6181611e4e565b82525050565b600081519050919050565b600082825260208201905092915050565b60005b83811015611ea1578082015181840152602081019050611e86565b60008484015250505050565b6000601f19601f8301169050919050565b6000611ec982611e67565b611ed38185611e72565b9350611ee3818560208601611e83565b611eec81611ead565b840191505092915050565b600073ffffffffffffffffffffffffffffffffffffffff82169050919050565b6000611f2282611ef7565b9050919050565b611f3281611f17565b82525050565b6000608083016000830151611f506000860182611e58565b5060208301518482036020860152611f688282611ebe565b9150506040830151611f7d6040860182611f29565b506060830151611f906060860182611e58565b508091505092915050565b6000611fa78383611f38565b905092915050565b6000602082019050919050565b6000611fc782611e22565b611fd18185611e2d565b935083602082028501611fe385611e3e565b8060005b8581101561201f57848403895281516120008582611f9b565b945061200b83611faf565b925060208a01995050600181019050611fe7565b50829750879550505050505092915050565b6000602082019050818103600083015261204b8184611fbc565b905092915050565b61205c81611e4e565b811461206757600080fd5b50565b60008135905061207981612053565b92915050565b60006020828403121561209557612094611d5d565b5b60006120a38482850161206a565b91505092915050565b600081519050919050565b600082825260208201905092915050565b6000819050602082019050919050565b60006060830160008301516120f06000860182611f29565b5060208301516121036020860182611e58565b506040830151848203604086015261211b8282611ebe565b9150508091505092915050565b600061213483836120d8565b905092915050565b6000602082019050919050565b6000612154826120ac565b61215e81856120b7565b935083602082028501612170856120c8565b8060005b858110156121ac578484038952815161218d8582612128565b94506121988361213c565b925060208a01995050600181019050612174565b50829750879550505050505092915050565b600060208201905081810360008301526121d88184612149565b905092915050565b6000819050919050565b6121f3816121e0565b81146121fe57600080fd5b50565b600081359050612210816121ea565b92915050565b60006020828403121561222c5761222b611d5d565b5b600061223a84828501612201565b91505092915050565b61224c816121e0565b82525050565b60006020820190506122676000830184612243565b92915050565b600080fd5b600080fd5b7f4e487b7100000000000000000000000000000000000000000000000000000000600052604160045260246000fd5b6122af82611ead565b810181811067ffffffffffffffff821117156122ce576122cd612277565b5b80604052505050565b60006122e1611d53565b90506122ed82826122a6565b919050565b600067ffffffffffffffff82111561230d5761230c612277565b5b61231682611ead565b9050602081019050919050565b82818337600083830152505050565b6000612345612340846122f2565b6122d7565b90508281526020810184848401111561236157612360612272565b5b61236c848285612323565b509392505050565b600082601f8301126123895761238861226d565b5b8135612399848260208601612332565b91505092915050565b600080604083850312156123b9576123b8611d5d565b5b600083013567ffffffffffffffff8111156123d7576123d6611d62565b5b6123e385828601612374565b92505060206123f48582860161206a565b9150509250929050565b61240781611f17565b811461241257600080fd5b50565b600081359050612424816123fe565b92915050565b6000806040838503121561244157612440611d5d565b5b600061244f85828601612201565b925050602061246085828601612415565b9150509250929050565b6000806040838503121561248157612480611d5d565b5b600061248f85828601612415565b925050602083013567ffffffffffffffff8111156124b0576124af611d62565b5b6124bc85828601612374565b9150509250929050565b6124cf81611e4e565b82525050565b60006020820190506124ea60008301846124c6565b92915050565b6000806040838503121561250757612506611d5d565b5b60006125158582860161206a565b925050602061252685828601612415565b9150509250929050565b60006020828403121561254657612545611d5d565b5b600061255484828501612415565b91505092915050565b600082825260208201905092915050565b600061257982611e67565b612583818561255d565b9350612593818560208601611e83565b61259c81611ead565b840191505092915050565b600060208201905081810360008301526125c1818461256e565b905092915050565b6125d281611f17565b82525050565b60006080820190506125ed60008301876124c6565b81810360208301526125ff818661256e565b905061260e60408301856125c9565b61261b60608301846124c6565b95945050505050565b6000806040838503121561263b5761263a611d5d565b5b60006126498582860161206a565b925050602061265a8582860161206a565b9150509250929050565b600060608201905061267960008301866125c9565b61268660208301856124c6565b8181036040830152612698818461256e565b9050949350505050565b600080fd5b600080fd5b60008083601f8401126126c2576126c161226d565b5b8235905067ffffffffffffffff8111156126df576126de6126a2565b5b6020830191508360018202830111156126fb576126fa6126a7565b5b9250929050565b6000806000806060858703121561271c5761271b611d5d565b5b600061272a8782880161206a565b945050602061273b87828801612415565b935050604085013567ffffffffffffffff81111561275c5761275b611d62565b5b612768878288016126ac565b925092505092959194509250565b7f4e487b7100000000000000000000000000000000000000000000000000000000600052602260045260246000fd5b600060028204905060018216806127bd57607f821691505b6020821081036127d0576127cf612776565b5b50919050565b60008190508160005260206000209050919050565b60006020601f8301049050919050565b600082821b905092915050565b6000600883026128387fffffffffffffffffffffffffffffffffffffffffffffffffffffffffffffffff826127fb565b61284286836127fb565b95508019841693508086168417925050509392505050565b6000819050919050565b600061287f61287a61287584611e4e565b61285a565b611e4e565b9050919050565b6000819050919050565b61289983612864565b6128ad6128a582612886565b848454612808565b825550505050565b600090565b6128c26128b5565b6128cd818484612890565b505050565b5b818110156128f1576128e66000826128ba565b6001810190506128d3565b5050565b601f82111561293657612907816127d6565b612910846127eb565b8101602085101561291f578190505b61293361292b856127eb565b8301826128d2565b50505b505050565b600082821c905092915050565b60006129596000198460080261293b565b1980831691505092915050565b60006129728383612948565b9150826002028217905092915050565b61298b82611e67565b67ffffffffffffffff8111156129a4576129a3612277565b5b6129ae82546127a5565b6129b98282856128f5565b600060209050601f8311600181146129ec57600084156129da578287015190505b6129e48582612966565b865550612a4c565b601f1984166129fa866127d6565b60005b82811015612a22578489015182556001820191506020850194506020810190506129fd565b86831015612a3f5784890151612a3b601f891682612948565b8355505b6001600288020188555050505b505050505050565b7f4372656174656400000000000000000000000000000000000000000000000000600082015250565b6000612a8a60078361255d565b9150612a9582612a54565b602082019050919050565b600060a0820190508181036000830152612aba818761256e565b9050612ac960208301866125c9565b612ad660408301856124c6565b612ae360608301846124c6565b8181036080830152612af481612a7d565b905095945050505050565b7f4e487b7100000000000000000000000000000000000000000000000000000000600052601160045260246000fd5b6000612b3982611e4e565b91507fffffffffffffffffffffffffffffffffffffffffffffffffffffffffffffffff8203612b6b57612b6a612aff565b5b600182019050919050565b7f43616c6c6572206973206e6f7420616e2061646d696e00000000000000000000600082015250565b6000612bac60168361255d565b9150612bb782612b76565b602082019050919050565b60006020820190508181036000830152612bdb81612b9f565b9050919050565b7f4e487b7100000000000000000000000000000000000000000000000000000000600052603260045260246000fd5b7f4f6e6c79207468652063757272656e74206f776e65722063616e207472616e7360008201527f6665722070726f64756365000000000000000000000000000000000000000000602082015250565b6000612c6d602b8361255d565b9150612c7882612c11565b604082019050919050565b60006020820190508181036000830152612c9c81612c60565b9050919050565b7f5472616e7366657272656420746f20616e2061676772656761746f7200000000600082015250565b6000612cd9601c8361255d565b9150612ce482612ca3565b602082019050919050565b600060a082019050612d0460008301876124c6565b612d1160208301866125c9565b612d1e60408301856125c9565b612d2b60608301846124c6565b8181036080830152612d3c81612ccc565b905095945050505050565b7f5472616e7366657272656420746f20612072657461696c657200000000000000600082015250565b6000612d7d60198361255d565b9150612d8882612d47565b602082019050919050565b600060a082019050612da860008301876124c6565b612db560208301866125c9565b612dc260408301856125c9565b612dcf60608301846124c6565b8181036080830152612de081612d70565b905095945050505050565b7f536f6c6420746f206120637573746f6d65720000000000000000000000000000600082015250565b6000612e2160128361255d565b9150612e2c82612deb565b602082019050919050565b6000608082019050612e4c60008301866124c6565b612e5960208301856125c9565b612e6660408301846124c6565b8181036060830152612e7781612e14565b9050949350505050565b6000604082019050612e9660008301856125c9565b612ea36020830184612243565b939250505056fea2646970667358221220b85e55a21cc0ebbcdac9ba7b320f3a6de68629a156f1d6355a36d1dd2449b3b764736f6c63430008180033",
  "linkReferences": {},
  "deployedLinkReferences": {}
}