{
  "_format": "hh-sol-artifact-1",
  "contractName": "OrganicProduceSupplyChain",
  "sourceName": "contracts/OrganicProduceSupplyChain.sol",
  "abi": [
    {
      "inputs": [],
      "stateMutability": "nonpayable",
      "type": "constructor"
    },
    {
      "inputs": [],
      "name": "AccessControlBadConfirmation",
      "type": "error"
    },
    {
      "inputs": [
        {
          "internalType": "address",
          "name": "account",
          "type": "address"
        },
        {
          "internalType": "bytes32",
          "name": "neededRole",
          "type": "bytes32"
        }
      ],
      "name": "AccessControlUnauthorizedAccount",
      "type": "error"
    },
    {
      "anonymous": false,
      "inputs": [
        {
          "indexed": false,
          "internalType": "string",
          "name": "name",
          "type": "string"
        },
        {
          "indexed": false,
          "internalType": "address",
          "name": "owner",
          "type": "address"
        },
        {
          "indexed": false,
          "internalType": "uint256",
          "name": "amount",
          "type": "uint256"
        },
        {
          "indexed": false,
          "internalType": "uint256",
          "name": "timestamp",
          "type": "uint256"
        },
        {
          "indexed": false,
          "internalType": "string",
          "name": "status",
          "type": "string"
        }
      ],
      "name": "ProduceCreated",
      "type": "event"
    },
    {
      "anonymous": false,
      "inputs": [
        {
          "indexed": false,
          "internalType": "uint256",
          "name": "id",
          "type": "uint256"
        },
        {
          "indexed": false,
          "internalType": "address",
          "name": "owner",
          "type": "address"
        },
        {
          "indexed": false,
          "internalType": "uint256",
          "name": "timestamp",
          "type": "uint256"
        },
        {
          "indexed": false,
          "internalType": "string",
          "name": "status",
          "type": "string"
        }
      ],
      "name": "ProduceSoldToCustomer",
      "type": "event"
    },
    {
      "anonymous": false,
      "inputs": [
        {
          "indexed": false,
          "internalType": "uint256",
          "name": "id",
          "type": "uint256"
        },
        {
          "indexed": false,
          "internalType": "address",
          "name": "oldOwner",
          "type": "address"
        },
        {
          "indexed": false,
          "internalType": "address",
          "name": "newOwner",
          "type": "address"
        },
        {
          "indexed": false,
          "internalType": "uint256",
          "name": "timestamp",
          "type": "uint256"
        },
        {
          "indexed": false,
          "internalType": "string",
          "name": "status",
          "type": "string"
        }
      ],
      "name": "ProduceTransferred",
      "type": "event"
    },
    {
      "anonymous": false,
      "inputs": [
        {
          "indexed": true,
          "internalType": "bytes32",
          "name": "role",
          "type": "bytes32"
        },
        {
          "indexed": true,
          "internalType": "bytes32",
          "name": "previousAdminRole",
          "type": "bytes32"
        },
        {
          "indexed": true,
          "internalType": "bytes32",
          "name": "newAdminRole",
          "type": "bytes32"
        }
      ],
      "name": "RoleAdminChanged",
      "type": "event"
    },
    {
      "anonymous": false,
      "inputs": [
        {
          "indexed": true,
          "internalType": "bytes32",
          "name": "role",
          "type": "bytes32"
        },
        {
          "indexed": true,
          "internalType": "address",
          "name": "account",
          "type": "address"
        },
        {
          "indexed": true,
          "internalType": "address",
          "name": "sender",
          "type": "address"
        }
      ],
      "name": "RoleGranted",
      "type": "event"
    },
    {
      "anonymous": false,
      "inputs": [
        {
          "indexed": true,
          "internalType": "bytes32",
          "name": "role",
          "type": "bytes32"
        },
        {
          "indexed": true,
          "internalType": "address",
          "name": "account",
          "type": "address"
        },
        {
          "indexed": true,
          "internalType": "address",
          "name": "sender",
          "type": "address"
        }
      ],
      "name": "RoleRevoked",
      "type": "event"
    },
    {
      "inputs": [],
      "name": "DEFAULT_ADMIN_ROLE",
      "outputs": [
        {
          "internalType": "bytes32",
          "name": "",
          "type": "bytes32"
        }
      ],
      "stateMutability": "view",
      "type": "function"
    },
    {
      "inputs": [],
      "name": "ROLE_AGGREGATOR",
      "outputs": [
        {
          "internalType": "bytes32",
          "name": "",
          "type": "bytes32"
        }
      ],
      "stateMutability": "view",
      "type": "function"
    },
    {
      "inputs": [],
      "name": "ROLE_FARMER",
      "outputs": [
        {
          "internalType": "bytes32",
          "name": "",
          "type": "bytes32"
        }
      ],
      "stateMutability": "view",
      "type": "function"
    },
    {
      "inputs": [],
      "name": "ROLE_RETAILER",
      "outputs": [
        {
          "internalType": "bytes32",
          "name": "",
          "type": "bytes32"
        }
      ],
      "stateMutability": "view",
      "type": "function"
    },
    {
      "inputs": [
        {
          "internalType": "address",
          "name": "_user",
          "type": "address"
        },
        {
          "internalType": "string",
          "name": "_name",
          "type": "string"
        }
      ],
      "name": "addUser",
      "outputs": [],
      "stateMutability": "nonpayable",
      "type": "function"
    },
    {
      "inputs": [
        {
          "internalType": "uint256",
          "name": "",
          "type": "uint256"
        }
      ],
      "name": "aggregators",
      "outputs": [
        {
          "internalType": "address",
          "name": "",
          "type": "address"
        }
      ],
      "stateMutability": "view",
      "type": "function"
    },
    {
      "inputs": [
        {
          "internalType": "uint256",
          "name": "",
          "type": "uint256"
        }
      ],
      "name": "allProduce",
      "outputs": [
        {
          "internalType": "uint256",
          "name": "id",
          "type": "uint256"
        },
        {
          "internalType": "string",
          "name": "name",
          "type": "string"
        },
        {
          "internalType": "address",
          "name": "currentOwner",
          "type": "address"
        },
        {
          "internalType": "uint256",
          "name": "amount",
          "type": "uint256"
        }
      ],
      "stateMutability": "view",
      "type": "function"
    },
    {
      "inputs": [
        {
          "internalType": "string",
          "name": "_name",
          "type": "string"
        },
        {
          "internalType": "uint256",
          "name": "_amount",
          "type": "uint256"
        }
      ],
      "name": "createProduce",
      "outputs": [],
      "stateMutability": "nonpayable",
      "type": "function"
    },
    {
      "inputs": [
        {
          "internalType": "uint256",
          "name": "",
          "type": "uint256"
        }
      ],
      "name": "farmers",
      "outputs": [
        {
          "internalType": "address",
          "name": "",
          "type": "address"
        }
      ],
      "stateMutability": "view",
      "type": "function"
    },
    {
      "inputs": [],
      "name": "getAllAggregators",
      "outputs": [
        {
          "internalType": "address[]",
          "name": "",
          "type": "address[]"
        },
        {
          "internalType": "string[]",
          "name": "",
          "type": "string[]"
        }
      ],
      "stateMutability": "view",
      "type": "function"
    },
    {
      "inputs": [],
      "name": "getAllFarmers",
      "outputs": [
        {
          "internalType": "address[]",
          "name": "",
          "type": "address[]"
        },
        {
          "internalType": "string[]",
          "name": "",
          "type": "string[]"
        }
      ],
      "stateMutability": "view",
      "type": "function"
    },
    {
      "inputs": [],
      "name": "getAllProduce",
      "outputs": [
        {
          "components": [
            {
              "internalType": "uint256",
              "name": "id",
              "type": "uint256"
            },
            {
              "internalType": "string",
              "name": "name",
              "type": "string"
            },
            {
              "internalType": "address",
              "name": "currentOwner",
              "type": "address"
            },
            {
              "internalType": "uint256",
              "name": "amount",
              "type": "uint256"
            }
          ],
          "internalType": "struct OrganicProduceSupplyChain.Produce[]",
          "name": "",
          "type": "tuple[]"
        }
      ],
      "stateMutability": "view",
      "type": "function"
    },
    {
      "inputs": [],
      "name": "getAllRetailers",
      "outputs": [
        {
          "internalType": "address[]",
          "name": "",
          "type": "address[]"
        },
        {
          "internalType": "string[]",
          "name": "",
          "type": "string[]"
        }
      ],
      "stateMutability": "view",
      "type": "function"
    },
    {
      "inputs": [
        {
          "internalType": "uint256",
          "name": "_id",
          "type": "uint256"
        }
      ],
      "name": "getProduceHistory",
      "outputs": [
        {
          "components": [
            {
              "internalType": "address",
              "name": "owner",
              "type": "address"
            },
            {
              "internalType": "uint256",
              "name": "timestamp",
              "type": "uint256"
            },
            {
              "internalType": "string",
              "name": "status",
              "type": "string"
            }
          ],
          "internalType": "struct OrganicProduceSupplyChain.History[]",
          "name": "",
          "type": "tuple[]"
        }
      ],
      "stateMutability": "view",
      "type": "function"
    },
    {
      "inputs": [
        {
          "internalType": "bytes32",
          "name": "role",
          "type": "bytes32"
        }
      ],
      "name": "getRoleAdmin",
      "outputs": [
        {
          "internalType": "bytes32",
          "name": "",
          "type": "bytes32"
        }
      ],
      "stateMutability": "view",
      "type": "function"
    },
    {
      "inputs": [],
      "name": "getUserProduce",
      "outputs": [
        {
          "components": [
            {
              "internalType": "uint256",
              "name": "id",
              "type": "uint256"
            },
            {
              "internalType": "string",
              "name": "name",
              "type": "string"
            },
            {
              "internalType": "address",
              "name": "currentOwner",
              "type": "address"
            },
            {
              "internalType": "uint256",
              "name": "amount",
              "type": "uint256"
            }
          ],
          "internalType": "struct OrganicProduceSupplyChain.Produce[]",
          "name": "",
          "type": "tuple[]"
        }
      ],
      "stateMutability": "view",
      "type": "function"
    },
    {
      "inputs": [
        {
          "internalType": "address",
          "name": "_user",
          "type": "address"
        }
      ],
      "name": "getUsername",
      "outputs": [
        {
          "internalType": "string",
          "name": "",
          "type": "string"
        }
      ],
      "stateMutability": "view",
      "type": "function"
    },
    {
      "inputs": [
        {
          "internalType": "bytes32",
          "name": "role",
          "type": "bytes32"
        },
        {
          "internalType": "address",
          "name": "account",
          "type": "address"
        }
      ],
      "name": "grantRole",
      "outputs": [],
      "stateMutability": "nonpayable",
      "type": "function"
    },
    {
      "inputs": [
        {
          "internalType": "bytes32",
          "name": "_role",
          "type": "bytes32"
        },
        {
          "internalType": "address",
          "name": "_account",
          "type": "address"
        },
        {
          "internalType": "string",
          "name": "_username",
          "type": "string"
        }
      ],
      "name": "grantRole",
      "outputs": [],
      "stateMutability": "nonpayable",
      "type": "function"
    },
    {
      "inputs": [
        {
          "internalType": "bytes32",
          "name": "role",
          "type": "bytes32"
        },
        {
          "internalType": "address",
          "name": "account",
          "type": "address"
        }
      ],
      "name": "hasRole",
      "outputs": [
        {
          "internalType": "bool",
          "name": "",
          "type": "bool"
        }
      ],
      "stateMutability": "view",
      "type": "function"
    },
    {
      "inputs": [
        {
          "internalType": "uint256",
          "name": "",
          "type": "uint256"
        },
        {
          "internalType": "uint256",
          "name": "",
          "type": "uint256"
        }
      ],
      "name": "histories",
      "outputs": [
        {
          "internalType": "address",
          "name": "owner",
          "type": "address"
        },
        {
          "internalType": "uint256",
          "name": "timestamp",
          "type": "uint256"
        },
        {
          "internalType": "string",
          "name": "status",
          "type": "string"
        }
      ],
      "stateMutability": "view",
      "type": "function"
    },
    {
      "inputs": [],
      "name": "produceCount",
      "outputs": [
        {
          "internalType": "uint256",
          "name": "",
          "type": "uint256"
        }
      ],
      "stateMutability": "view",
      "type": "function"
    },
    {
      "inputs": [
        {
          "internalType": "bytes32",
          "name": "role",
          "type": "bytes32"
        },
        {
          "internalType": "address",
          "name": "callerConfirmation",
          "type": "address"
        }
      ],
      "name": "renounceRole",
      "outputs": [],
      "stateMutability": "nonpayable",
      "type": "function"
    },
    {
      "inputs": [
        {
          "internalType": "uint256",
          "name": "",
          "type": "uint256"
        }
      ],
      "name": "retailers",
      "outputs": [
        {
          "internalType": "address",
          "name": "",
          "type": "address"
        }
      ],
      "stateMutability": "view",
      "type": "function"
    },
    {
      "inputs": [
        {
          "internalType": "bytes32",
          "name": "role",
          "type": "bytes32"
        },
        {
          "internalType": "address",
          "name": "account",
          "type": "address"
        }
      ],
      "name": "revokeRole",
      "outputs": [],
      "stateMutability": "nonpayable",
      "type": "function"
    },
    {
      "inputs": [
        {
          "internalType": "uint256",
          "name": "_produceId",
          "type": "uint256"
        }
      ],
      "name": "soldToCustomer",
      "outputs": [],
      "stateMutability": "nonpayable",
      "type": "function"
    },
    {
      "inputs": [
        {
          "internalType": "bytes4",
          "name": "interfaceId",
          "type": "bytes4"
        }
      ],
      "name": "supportsInterface",
      "outputs": [
        {
          "internalType": "bool",
          "name": "",
          "type": "bool"
        }
      ],
      "stateMutability": "view",
      "type": "function"
    },
    {
      "inputs": [
        {
          "internalType": "uint256",
          "name": "_produceId",
          "type": "uint256"
        },
        {
          "internalType": "address",
          "name": "_newOwner",
          "type": "address"
        }
      ],
      "name": "transferProduceToAggregator",
      "outputs": [],
      "stateMutability": "nonpayable",
      "type": "function"
    },
    {
      "inputs": [
        {
          "internalType": "uint256",
          "name": "_produceId",
          "type": "uint256"
        },
        {
          "internalType": "address",
          "name": "_newOwner",
          "type": "address"
        }
      ],
      "name": "transferProduceToRetailer",
      "outputs": [],
      "stateMutability": "nonpayable",
      "type": "function"
    },
    {
      "inputs": [
        {
          "internalType": "address",
          "name": "",
          "type": "address"
        },
        {
          "internalType": "uint256",
          "name": "",
          "type": "uint256"
        }
      ],
      "name": "usersProduce",
      "outputs": [
        {
          "internalType": "uint256",
          "name": "",
          "type": "uint256"
        }
      ],
      "stateMutability": "view",
      "type": "function"
    }
  ],
  "bytecode": "0x608060405260006002553480156200001657600080fd5b506200002c6000801b336200003360201b60201c565b50620001a8565b60006200004783836200013660201b60201c565b6200012b57600160008085815260200190815260200160002060000160008473ffffffffffffffffffffffffffffffffffffffff1673ffffffffffffffffffffffffffffffffffffffff16815260200190815260200160002060006101000a81548160ff021916908315150217905550620000c7620001a060201b60201c565b73ffffffffffffffffffffffffffffffffffffffff168273ffffffffffffffffffffffffffffffffffffffff16847f2f8788117e7eff1d82e926ec794901d17c78024a50270940304540a733656f0d60405160405180910390a46001905062000130565b600090505b92915050565b600080600084815260200190815260200160002060000160008373ffffffffffffffffffffffffffffffffffffffff1673ffffffffffffffffffffffffffffffffffffffff16815260200190815260200160002060009054906101000a900460ff16905092915050565b600033905090565b613cdb80620001b86000396000f3fe608060405234801561001057600080fd5b50600436106101da5760003560e01c80638d09cf2411610104578063ce43c032116100a2578063dde492ea11610071578063dde492ea14610583578063de16017a1461059f578063decad864146105d1578063ebb6a8ce14610601576101da565b8063ce43c032146104fc578063d547741f1461052c578063d889a84814610548578063dc68329914610567576101da565b8063a217fddf116100de578063a217fddf14610471578063aabae7c21461048f578063b43857e8146104ab578063cbfae8d4146104c9576101da565b80638d09cf24146103f55780638e0a94d11461041157806391d1485414610441576101da565b8063465c65dd1161017c5780637c985a301161014b5780637c985a3014610359578063897ec7df146103775780638afdd669146103a75780638b68e64d146103d7576101da565b8063465c65dd146102e15780634b68d43114610300578063536954e41461031c578063769428d41461033b576101da565b8063248a9ca3116101b8578063248a9ca31461025d5780632bf690b81461028d5780632f2ff15d146102a957806336568abe146102c5576101da565b806301ffc9a7146101df578063169d83311461020f578063173678071461022d575b600080fd5b6101f960048036038101906101f49190612a1c565b61061f565b6040516102069190612a64565b60405180910390f35b610217610699565b6040516102249190612c8e565b60405180910390f35b61024760048036038101906102429190612cdc565b6107f4565b6040516102549190612e1b565b60405180910390f35b61027760048036038101906102729190612e73565b610958565b6040516102849190612eaf565b60405180910390f35b6102a760048036038101906102a29190612fff565b610977565b005b6102c360048036038101906102be9190613087565b610c6f565b005b6102df60048036038101906102da9190613087565b610c91565b005b6102e9610d0c565b6040516102f7929190613238565b60405180910390f35b61031a6004803603810190610315919061326f565b610f3c565b005b610324611150565b604051610332929190613238565b60405180910390f35b610343611380565b60405161035091906132da565b60405180910390f35b610361611386565b60405161036e9190612c8e565b60405180910390f35b610391600480360381019061038c9190612cdc565b6115b0565b60405161039e9190613304565b60405180910390f35b6103c160048036038101906103bc9190612cdc565b6115ef565b6040516103ce9190613304565b60405180910390f35b6103df61162e565b6040516103ec9190612eaf565b60405180910390f35b61040f600480360381019061040a919061331f565b611652565b005b61042b60048036038101906104269190612cdc565b61199a565b6040516104389190613304565b60405180910390f35b61045b60048036038101906104569190613087565b6119d9565b6040516104689190612a64565b60405180910390f35b610479611a43565b6040516104869190612eaf565b60405180910390f35b6104a960048036038101906104a4919061331f565b611a4a565b005b6104b3611d92565b6040516104c09190612eaf565b60405180910390f35b6104e360048036038101906104de9190612cdc565b611db6565b6040516104f394939291906133a9565b60405180910390f35b610516600480360381019061051191906133f5565b611e9e565b6040516105239190613422565b60405180910390f35b61054660048036038101906105419190613087565b611f6f565b005b610550611fca565b60405161055e929190613238565b60405180910390f35b610581600480360381019061057c9190612cdc565b6121fa565b005b61059d60048036038101906105989190613444565b6124d7565b005b6105b960048036038101906105b491906134b3565b61253d565b6040516105c8939291906134f3565b60405180910390f35b6105eb60048036038101906105e69190613531565b61262c565b6040516105f891906132da565b60405180910390f35b61060961265d565b6040516106169190612eaf565b60405180910390f35b60007f7965db0b000000000000000000000000000000000000000000000000000000007bffffffffffffffffffffffffffffffffffffffffffffffffffffffff1916827bffffffffffffffffffffffffffffffffffffffffffffffffffffffff19161480610692575061069182612681565b5b9050919050565b60606001805480602002602001604051908101604052809291908181526020016000905b828210156107eb5783829060005260206000209060040201604051806080016040529081600082015481526020016001820180546106fa906135a0565b80601f0160208091040260200160405190810160405280929190818152602001828054610726906135a0565b80156107735780601f1061074857610100808354040283529160200191610773565b820191906000526020600020905b81548152906001019060200180831161075657829003601f168201915b505050505081526020016002820160009054906101000a900473ffffffffffffffffffffffffffffffffffffffff1673ffffffffffffffffffffffffffffffffffffffff1673ffffffffffffffffffffffffffffffffffffffff168152602001600382015481525050815260200190600101906106bd565b50505050905090565b606060036000838152602001908152602001600020805480602002602001604051908101604052809291908181526020016000905b8282101561094d57838290600052602060002090600302016040518060600160405290816000820160009054906101000a900473ffffffffffffffffffffffffffffffffffffffff1673ffffffffffffffffffffffffffffffffffffffff1673ffffffffffffffffffffffffffffffffffffffff168152602001600182015481526020016002820180546108bc906135a0565b80601f01602080910402602001604051908101604052809291908181526020018280546108e8906135a0565b80156109355780601f1061090a57610100808354040283529160200191610935565b820191906000526020600020905b81548152906001019060200180831161091857829003601f168201915b50505050508152505081526020019060010190610829565b505050509050919050565b6000806000838152602001908152602001600020600101549050919050565b7f1aae3a02ff9317dfd8069a6505dea22a406cd597e82a33d461bc741bc9e647546109a1816126eb565b6000604051806080016040528060025481526020018581526020013373ffffffffffffffffffffffffffffffffffffffff1681526020018481525090506001819080600181540180825580915050600190039060005260206000209060040201600090919091909150600082015181600001556020820151816001019081610a29919061377d565b5060408201518160020160006101000a81548173ffffffffffffffffffffffffffffffffffffffff021916908373ffffffffffffffffffffffffffffffffffffffff160217905550606082015181600301555050600560003373ffffffffffffffffffffffffffffffffffffffff1673ffffffffffffffffffffffffffffffffffffffff1681526020019081526020016000206002549080600181540180825580915050600190039060005260206000200160009091909190915055610aed61293b565b33816000019073ffffffffffffffffffffffffffffffffffffffff16908173ffffffffffffffffffffffffffffffffffffffff1681525050428160200181815250506040518060400160405280600781526020017f4372656174656400000000000000000000000000000000000000000000000000815250816040018190525060036000600254815260200190815260200160002081908060018154018082558091505060019003906000526020600020906003020160009091909190915060008201518160000160006101000a81548173ffffffffffffffffffffffffffffffffffffffff021916908373ffffffffffffffffffffffffffffffffffffffff160217905550602082015181600101556040820151816002019081610c12919061377d565b5050507f5155bc6afc8b095911510137f07a64f3744cf1d4918f2e5a4ddbec501c02aecc85338642604051610c4a949392919061389b565b60405180910390a1600260008154610c6190613929565b919050819055505050505050565b610c7882610958565b610c81816126eb565b610c8b83836126ff565b50505050565b610c996127f0565b73ffffffffffffffffffffffffffffffffffffffff168173ffffffffffffffffffffffffffffffffffffffff1614610cfd576040517f6697b23200000000000000000000000000000000000000000000000000000000815260040160405180910390fd5b610d0782826127f8565b505050565b606080600060078054905067ffffffffffffffff811115610d3057610d2f612ed4565b5b604051908082528060200260200182016040528015610d6357816020015b6060815260200190600190039081610d4e5790505b50905060005b600780549050811015610ea7576004600060078381548110610d8e57610d8d613971565b5b9060005260206000200160009054906101000a900473ffffffffffffffffffffffffffffffffffffffff1673ffffffffffffffffffffffffffffffffffffffff1673ffffffffffffffffffffffffffffffffffffffff1681526020019081526020016000208054610dfe906135a0565b80601f0160208091040260200160405190810160405280929190818152602001828054610e2a906135a0565b8015610e775780601f10610e4c57610100808354040283529160200191610e77565b820191906000526020600020905b815481529060010190602001808311610e5a57829003601f168201915b5050505050828281518110610e8f57610e8e613971565b5b60200260200101819052508080600101915050610d69565b5060078181805480602002602001604051908101604052809291908181526020018280548015610f2c57602002820191906000526020600020905b8160009054906101000a900473ffffffffffffffffffffffffffffffffffffffff1673ffffffffffffffffffffffffffffffffffffffff1681526020019060010190808311610ee2575b5050505050915092509250509091565b80600460008473ffffffffffffffffffffffffffffffffffffffff1673ffffffffffffffffffffffffffffffffffffffff1681526020019081526020016000209081610f88919061377d565b50610fb37f1aae3a02ff9317dfd8069a6505dea22a406cd597e82a33d461bc741bc9e64754836119d9565b15611020576006829080600181540180825580915050600190039060005260206000200160009091909190916101000a81548173ffffffffffffffffffffffffffffffffffffffff021916908373ffffffffffffffffffffffffffffffffffffffff16021790555061114c565b61104a7f78047634eb0ea25ec59dc1b0568e3280fe1d08ca41cd8b39596c8482adce9e0e836119d9565b156110b7576007829080600181540180825580915050600190039060005260206000200160009091909190916101000a81548173ffffffffffffffffffffffffffffffffffffffff021916908373ffffffffffffffffffffffffffffffffffffffff16021790555061114b565b6110e17fc2030e84afe8cfd541c4479ced4b7fbe215607847bc89259553fe65775d29de2836119d9565b1561114a576008829080600181540180825580915050600190039060005260206000200160009091909190916101000a81548173ffffffffffffffffffffffffffffffffffffffff021916908373ffffffffffffffffffffffffffffffffffffffff1602179055505b5b5b5050565b606080600060068054905067ffffffffffffffff81111561117457611173612ed4565b5b6040519080825280602002602001820160405280156111a757816020015b60608152602001906001900390816111925790505b50905060005b6006805490508110156112eb5760046000600683815481106111d2576111d1613971565b5b9060005260206000200160009054906101000a900473ffffffffffffffffffffffffffffffffffffffff1673ffffffffffffffffffffffffffffffffffffffff1673ffffffffffffffffffffffffffffffffffffffff1681526020019081526020016000208054611242906135a0565b80601f016020809104026020016040519081016040528092919081815260200182805461126e906135a0565b80156112bb5780601f10611290576101008083540402835291602001916112bb565b820191906000526020600020905b81548152906001019060200180831161129e57829003601f168201915b50505050508282815181106112d3576112d2613971565b5b602002602001018190525080806001019150506111ad565b506006818180548060200260200160405190810160405280929190818152602001828054801561137057602002820191906000526020600020905b8160009054906101000a900473ffffffffffffffffffffffffffffffffffffffff1673ffffffffffffffffffffffffffffffffffffffff1681526020019060010190808311611326575b5050505050915092509250509091565b60025481565b60606000600560003373ffffffffffffffffffffffffffffffffffffffff1673ffffffffffffffffffffffffffffffffffffffff16815260200190815260200160002090506000818054905067ffffffffffffffff8111156113eb576113ea612ed4565b5b60405190808252806020026020018201604052801561142457816020015b611411612972565b8152602001906001900390816114095790505b50905060005b82805490508110156115a757600183828154811061144b5761144a613971565b5b90600052602060002001548154811061146757611466613971565b5b90600052602060002090600402016040518060800160405290816000820154815260200160018201805461149a906135a0565b80601f01602080910402602001604051908101604052809291908181526020018280546114c6906135a0565b80156115135780601f106114e857610100808354040283529160200191611513565b820191906000526020600020905b8154815290600101906020018083116114f657829003601f168201915b505050505081526020016002820160009054906101000a900473ffffffffffffffffffffffffffffffffffffffff1673ffffffffffffffffffffffffffffffffffffffff1673ffffffffffffffffffffffffffffffffffffffff16815260200160038201548152505082828151811061158f5761158e613971565b5b6020026020010181905250808060010191505061142a565b50809250505090565b600881815481106115c057600080fd5b906000526020600020016000915054906101000a900473ffffffffffffffffffffffffffffffffffffffff1681565b600681815481106115ff57600080fd5b906000526020600020016000915054906101000a900473ffffffffffffffffffffffffffffffffffffffff1681565b7f78047634eb0ea25ec59dc1b0568e3280fe1d08ca41cd8b39596c8482adce9e0e81565b7f1aae3a02ff9317dfd8069a6505dea22a406cd597e82a33d461bc741bc9e6475461167c816126eb565b60006001848154811061169257611691613971565b5b906000526020600020906004020190508060020160009054906101000a900473ffffffffffffffffffffffffffffffffffffffff1673ffffffffffffffffffffffffffffffffffffffff163373ffffffffffffffffffffffffffffffffffffffff1614611734576040517f08c379a000000000000000000000000000000000000000000000000000000000815260040161172b90613a12565b60405180910390fd5b60008160020160009054906101000a900473ffffffffffffffffffffffffffffffffffffffff169050836001868154811061177257611771613971565b5b906000526020600020906004020160020160006101000a81548173ffffffffffffffffffffffffffffffffffffffff021916908373ffffffffffffffffffffffffffffffffffffffff1602179055506117c961293b565b84816000019073ffffffffffffffffffffffffffffffffffffffff16908173ffffffffffffffffffffffffffffffffffffffff1681525050428160200181815250506040518060400160405280601c81526020017f5472616e7366657272656420746f20616e2061676772656761746f720000000081525081604001819052506003600087815260200190815260200160002081908060018154018082558091505060019003906000526020600020906003020160009091909190915060008201518160000160006101000a81548173ffffffffffffffffffffffffffffffffffffffff021916908373ffffffffffffffffffffffffffffffffffffffff1602179055506020820151816001015560408201518160020190816118ec919061377d565b505050600560008673ffffffffffffffffffffffffffffffffffffffff1673ffffffffffffffffffffffffffffffffffffffff1681526020019081526020016000208690806001815401808255809150506001900390600052602060002001600090919091909150557f3f460d7a74336bdccd60408fbcdecd51721ffebd298cc994100c050f6544ebb88683874260405161198a9493929190613a7e565b60405180910390a1505050505050565b600781815481106119aa57600080fd5b906000526020600020016000915054906101000a900473ffffffffffffffffffffffffffffffffffffffff1681565b600080600084815260200190815260200160002060000160008373ffffffffffffffffffffffffffffffffffffffff1673ffffffffffffffffffffffffffffffffffffffff16815260200190815260200160002060009054906101000a900460ff16905092915050565b6000801b81565b7f78047634eb0ea25ec59dc1b0568e3280fe1d08ca41cd8b39596c8482adce9e0e611a74816126eb565b600060018481548110611a8a57611a89613971565b5b906000526020600020906004020190508060020160009054906101000a900473ffffffffffffffffffffffffffffffffffffffff1673ffffffffffffffffffffffffffffffffffffffff163373ffffffffffffffffffffffffffffffffffffffff1614611b2c576040517f08c379a0000000000000000000000000000000000000000000000000000000008152600401611b2390613a12565b60405180910390fd5b60008160020160009054906101000a900473ffffffffffffffffffffffffffffffffffffffff1690508360018681548110611b6a57611b69613971565b5b906000526020600020906004020160020160006101000a81548173ffffffffffffffffffffffffffffffffffffffff021916908373ffffffffffffffffffffffffffffffffffffffff160217905550611bc161293b565b84816000019073ffffffffffffffffffffffffffffffffffffffff16908173ffffffffffffffffffffffffffffffffffffffff1681525050428160200181815250506040518060400160405280601981526020017f5472616e7366657272656420746f20612072657461696c65720000000000000081525081604001819052506003600087815260200190815260200160002081908060018154018082558091505060019003906000526020600020906003020160009091909190915060008201518160000160006101000a81548173ffffffffffffffffffffffffffffffffffffffff021916908373ffffffffffffffffffffffffffffffffffffffff160217905550602082015181600101556040820151816002019081611ce4919061377d565b505050600560008673ffffffffffffffffffffffffffffffffffffffff1673ffffffffffffffffffffffffffffffffffffffff1681526020019081526020016000208690806001815401808255809150506001900390600052602060002001600090919091909150557f3f460d7a74336bdccd60408fbcdecd51721ffebd298cc994100c050f6544ebb886838742604051611d829493929190613b22565b60405180910390a1505050505050565b7fc2030e84afe8cfd541c4479ced4b7fbe215607847bc89259553fe65775d29de281565b60018181548110611dc657600080fd5b9060005260206000209060040201600091509050806000015490806001018054611def906135a0565b80601f0160208091040260200160405190810160405280929190818152602001828054611e1b906135a0565b8015611e685780601f10611e3d57610100808354040283529160200191611e68565b820191906000526020600020905b815481529060010190602001808311611e4b57829003601f168201915b5050505050908060020160009054906101000a900473ffffffffffffffffffffffffffffffffffffffff16908060030154905084565b6060600460008373ffffffffffffffffffffffffffffffffffffffff1673ffffffffffffffffffffffffffffffffffffffff1681526020019081526020016000208054611eea906135a0565b80601f0160208091040260200160405190810160405280929190818152602001828054611f16906135a0565b8015611f635780601f10611f3857610100808354040283529160200191611f63565b820191906000526020600020905b815481529060010190602001808311611f4657829003601f168201915b50505050509050919050565b611f7c6000801b336119d9565b611fbb576040517f08c379a0000000000000000000000000000000000000000000000000000000008152600401611fb290613bc6565b60405180910390fd5b611fc582826127f8565b505050565b606080600060088054905067ffffffffffffffff811115611fee57611fed612ed4565b5b60405190808252806020026020018201604052801561202157816020015b606081526020019060019003908161200c5790505b50905060005b60088054905081101561216557600460006008838154811061204c5761204b613971565b5b9060005260206000200160009054906101000a900473ffffffffffffffffffffffffffffffffffffffff1673ffffffffffffffffffffffffffffffffffffffff1673ffffffffffffffffffffffffffffffffffffffff16815260200190815260200160002080546120bc906135a0565b80601f01602080910402602001604051908101604052809291908181526020018280546120e8906135a0565b80156121355780601f1061210a57610100808354040283529160200191612135565b820191906000526020600020905b81548152906001019060200180831161211857829003601f168201915b505050505082828151811061214d5761214c613971565b5b60200260200101819052508080600101915050612027565b50600881818054806020026020016040519081016040528092919081815260200182805480156121ea57602002820191906000526020600020905b8160009054906101000a900473ffffffffffffffffffffffffffffffffffffffff1673ffffffffffffffffffffffffffffffffffffffff16815260200190600101908083116121a0575b5050505050915092509250509091565b7fc2030e84afe8cfd541c4479ced4b7fbe215607847bc89259553fe65775d29de2612224816126eb565b60006001838154811061223a57612239613971565b5b906000526020600020906004020190508060020160009054906101000a900473ffffffffffffffffffffffffffffffffffffffff1673ffffffffffffffffffffffffffffffffffffffff163373ffffffffffffffffffffffffffffffffffffffff16146122dc576040517f08c379a00000000000000000000000000000000000000000000000000000000081526004016122d390613a12565b60405180910390fd5b6122e461293b565b8160020160009054906101000a900473ffffffffffffffffffffffffffffffffffffffff16816000019073ffffffffffffffffffffffffffffffffffffffff16908173ffffffffffffffffffffffffffffffffffffffff1681525050428160200181815250506040518060400160405280601281526020017f536f6c6420746f206120637573746f6d6572000000000000000000000000000081525081604001819052506003600085815260200190815260200160002081908060018154018082558091505060019003906000526020600020906003020160009091909190915060008201518160000160006101000a81548173ffffffffffffffffffffffffffffffffffffffff021916908373ffffffffffffffffffffffffffffffffffffffff16021790555060208201518160010155604082015181600201908161242b919061377d565b50505060008260020160006101000a81548173ffffffffffffffffffffffffffffffffffffffff021916908373ffffffffffffffffffffffffffffffffffffffff1602179055507f4ecb3d9e24d3ba23e01ff61ca57520c0b786f81e9d715fb72ecd0a931cd8fb45848360020160009054906101000a900473ffffffffffffffffffffffffffffffffffffffff16426040516124c993929190613c32565b60405180910390a150505050565b6124e46000801b336119d9565b612523576040517f08c379a000000000000000000000000000000000000000000000000000000000815260040161251a90613bc6565b60405180910390fd5b61252d83836126ff565b506125388282610f3c565b505050565b6003602052816000526040600020818154811061255957600080fd5b9060005260206000209060030201600091509150508060000160009054906101000a900473ffffffffffffffffffffffffffffffffffffffff16908060010154908060020180546125a9906135a0565b80601f01602080910402602001604051908101604052809291908181526020018280546125d5906135a0565b80156126225780601f106125f757610100808354040283529160200191612622565b820191906000526020600020905b81548152906001019060200180831161260557829003601f168201915b5050505050905083565b6005602052816000526040600020818154811061264857600080fd5b90600052602060002001600091509150505481565b7f1aae3a02ff9317dfd8069a6505dea22a406cd597e82a33d461bc741bc9e6475481565b60007f01ffc9a7000000000000000000000000000000000000000000000000000000007bffffffffffffffffffffffffffffffffffffffffffffffffffffffff1916827bffffffffffffffffffffffffffffffffffffffffffffffffffffffff1916149050919050565b6126fc816126f76127f0565b6128ea565b50565b600061270b83836119d9565b6127e557600160008085815260200190815260200160002060000160008473ffffffffffffffffffffffffffffffffffffffff1673ffffffffffffffffffffffffffffffffffffffff16815260200190815260200160002060006101000a81548160ff0219169083151502179055506127826127f0565b73ffffffffffffffffffffffffffffffffffffffff168273ffffffffffffffffffffffffffffffffffffffff16847f2f8788117e7eff1d82e926ec794901d17c78024a50270940304540a733656f0d60405160405180910390a4600190506127ea565b600090505b92915050565b600033905090565b600061280483836119d9565b156128df57600080600085815260200190815260200160002060000160008473ffffffffffffffffffffffffffffffffffffffff1673ffffffffffffffffffffffffffffffffffffffff16815260200190815260200160002060006101000a81548160ff02191690831515021790555061287c6127f0565b73ffffffffffffffffffffffffffffffffffffffff168273ffffffffffffffffffffffffffffffffffffffff16847ff6391f5c32d9c69d2a47ea670b442974b53935d1edc7fd64eb21e047a839171b60405160405180910390a4600190506128e4565b600090505b92915050565b6128f482826119d9565b6129375780826040517fe2517d3f00000000000000000000000000000000000000000000000000000000815260040161292e929190613c7c565b60405180910390fd5b5050565b6040518060600160405280600073ffffffffffffffffffffffffffffffffffffffff16815260200160008152602001606081525090565b60405180608001604052806000815260200160608152602001600073ffffffffffffffffffffffffffffffffffffffff168152602001600081525090565b6000604051905090565b600080fd5b600080fd5b60007fffffffff0000000000000000000000000000000000000000000000000000000082169050919050565b6129f9816129c4565b8114612a0457600080fd5b50565b600081359050612a16816129f0565b92915050565b600060208284031215612a3257612a316129ba565b5b6000612a4084828501612a07565b91505092915050565b60008115159050919050565b612a5e81612a49565b82525050565b6000602082019050612a796000830184612a55565b92915050565b600081519050919050565b600082825260208201905092915050565b6000819050602082019050919050565b6000819050919050565b612abe81612aab565b82525050565b600081519050919050565b600082825260208201905092915050565b60005b83811015612afe578082015181840152602081019050612ae3565b60008484015250505050565b6000601f19601f8301169050919050565b6000612b2682612ac4565b612b308185612acf565b9350612b40818560208601612ae0565b612b4981612b0a565b840191505092915050565b600073ffffffffffffffffffffffffffffffffffffffff82169050919050565b6000612b7f82612b54565b9050919050565b612b8f81612b74565b82525050565b6000608083016000830151612bad6000860182612ab5565b5060208301518482036020860152612bc58282612b1b565b9150506040830151612bda6040860182612b86565b506060830151612bed6060860182612ab5565b508091505092915050565b6000612c048383612b95565b905092915050565b6000602082019050919050565b6000612c2482612a7f565b612c2e8185612a8a565b935083602082028501612c4085612a9b565b8060005b85811015612c7c5784840389528151612c5d8582612bf8565b9450612c6883612c0c565b925060208a01995050600181019050612c44565b50829750879550505050505092915050565b60006020820190508181036000830152612ca88184612c19565b905092915050565b612cb981612aab565b8114612cc457600080fd5b50565b600081359050612cd681612cb0565b92915050565b600060208284031215612cf257612cf16129ba565b5b6000612d0084828501612cc7565b91505092915050565b600081519050919050565b600082825260208201905092915050565b6000819050602082019050919050565b6000606083016000830151612d4d6000860182612b86565b506020830151612d606020860182612ab5565b5060408301518482036040860152612d788282612b1b565b9150508091505092915050565b6000612d918383612d35565b905092915050565b6000602082019050919050565b6000612db182612d09565b612dbb8185612d14565b935083602082028501612dcd85612d25565b8060005b85811015612e095784840389528151612dea8582612d85565b9450612df583612d99565b925060208a01995050600181019050612dd1565b50829750879550505050505092915050565b60006020820190508181036000830152612e358184612da6565b905092915050565b6000819050919050565b612e5081612e3d565b8114612e5b57600080fd5b50565b600081359050612e6d81612e47565b92915050565b600060208284031215612e8957612e886129ba565b5b6000612e9784828501612e5e565b91505092915050565b612ea981612e3d565b82525050565b6000602082019050612ec46000830184612ea0565b92915050565b600080fd5b600080fd5b7f4e487b7100000000000000000000000000000000000000000000000000000000600052604160045260246000fd5b612f0c82612b0a565b810181811067ffffffffffffffff82111715612f2b57612f2a612ed4565b5b80604052505050565b6000612f3e6129b0565b9050612f4a8282612f03565b919050565b600067ffffffffffffffff821115612f6a57612f69612ed4565b5b612f7382612b0a565b9050602081019050919050565b82818337600083830152505050565b6000612fa2612f9d84612f4f565b612f34565b905082815260208101848484011115612fbe57612fbd612ecf565b5b612fc9848285612f80565b509392505050565b600082601f830112612fe657612fe5612eca565b5b8135612ff6848260208601612f8f565b91505092915050565b60008060408385031215613016576130156129ba565b5b600083013567ffffffffffffffff811115613034576130336129bf565b5b61304085828601612fd1565b925050602061305185828601612cc7565b9150509250929050565b61306481612b74565b811461306f57600080fd5b50565b6000813590506130818161305b565b92915050565b6000806040838503121561309e5761309d6129ba565b5b60006130ac85828601612e5e565b92505060206130bd85828601613072565b9150509250929050565b600081519050919050565b600082825260208201905092915050565b6000819050602082019050919050565b60006130ff8383612b86565b60208301905092915050565b6000602082019050919050565b6000613123826130c7565b61312d81856130d2565b9350613138836130e3565b8060005b8381101561316957815161315088826130f3565b975061315b8361310b565b92505060018101905061313c565b5085935050505092915050565b600081519050919050565b600082825260208201905092915050565b6000819050602082019050919050565b60006131ae8383612b1b565b905092915050565b6000602082019050919050565b60006131ce82613176565b6131d88185613181565b9350836020820285016131ea85613192565b8060005b85811015613226578484038952815161320785826131a2565b9450613212836131b6565b925060208a019950506001810190506131ee565b50829750879550505050505092915050565b600060408201905081810360008301526132528185613118565b9050818103602083015261326681846131c3565b90509392505050565b60008060408385031215613286576132856129ba565b5b600061329485828601613072565b925050602083013567ffffffffffffffff8111156132b5576132b46129bf565b5b6132c185828601612fd1565b9150509250929050565b6132d481612aab565b82525050565b60006020820190506132ef60008301846132cb565b92915050565b6132fe81612b74565b82525050565b600060208201905061331960008301846132f5565b92915050565b60008060408385031215613336576133356129ba565b5b600061334485828601612cc7565b925050602061335585828601613072565b9150509250929050565b600082825260208201905092915050565b600061337b82612ac4565b613385818561335f565b9350613395818560208601612ae0565b61339e81612b0a565b840191505092915050565b60006080820190506133be60008301876132cb565b81810360208301526133d08186613370565b90506133df60408301856132f5565b6133ec60608301846132cb565b95945050505050565b60006020828403121561340b5761340a6129ba565b5b600061341984828501613072565b91505092915050565b6000602082019050818103600083015261343c8184613370565b905092915050565b60008060006060848603121561345d5761345c6129ba565b5b600061346b86828701612e5e565b935050602061347c86828701613072565b925050604084013567ffffffffffffffff81111561349d5761349c6129bf565b5b6134a986828701612fd1565b9150509250925092565b600080604083850312156134ca576134c96129ba565b5b60006134d885828601612cc7565b92505060206134e985828601612cc7565b9150509250929050565b600060608201905061350860008301866132f5565b61351560208301856132cb565b81810360408301526135278184613370565b9050949350505050565b60008060408385031215613548576135476129ba565b5b600061355685828601613072565b925050602061356785828601612cc7565b9150509250929050565b7f4e487b7100000000000000000000000000000000000000000000000000000000600052602260045260246000fd5b600060028204905060018216806135b857607f821691505b6020821081036135cb576135ca613571565b5b50919050565b60008190508160005260206000209050919050565b60006020601f8301049050919050565b600082821b905092915050565b6000600883026136337fffffffffffffffffffffffffffffffffffffffffffffffffffffffffffffffff826135f6565b61363d86836135f6565b95508019841693508086168417925050509392505050565b6000819050919050565b600061367a61367561367084612aab565b613655565b612aab565b9050919050565b6000819050919050565b6136948361365f565b6136a86136a082613681565b848454613603565b825550505050565b600090565b6136bd6136b0565b6136c881848461368b565b505050565b5b818110156136ec576136e16000826136b5565b6001810190506136ce565b5050565b601f82111561373157613702816135d1565b61370b846135e6565b8101602085101561371a578190505b61372e613726856135e6565b8301826136cd565b50505b505050565b600082821c905092915050565b600061375460001984600802613736565b1980831691505092915050565b600061376d8383613743565b9150826002028217905092915050565b61378682612ac4565b67ffffffffffffffff81111561379f5761379e612ed4565b5b6137a982546135a0565b6137b48282856136f0565b600060209050601f8311600181146137e757600084156137d5578287015190505b6137df8582613761565b865550613847565b601f1984166137f5866135d1565b60005b8281101561381d578489015182556001820191506020850194506020810190506137f8565b8683101561383a5784890151613836601f891682613743565b8355505b6001600288020188555050505b505050505050565b7f4372656174656400000000000000000000000000000000000000000000000000600082015250565b600061388560078361335f565b91506138908261384f565b602082019050919050565b600060a08201905081810360008301526138b58187613370565b90506138c460208301866132f5565b6138d160408301856132cb565b6138de60608301846132cb565b81810360808301526138ef81613878565b905095945050505050565b7f4e487b7100000000000000000000000000000000000000000000000000000000600052601160045260246000fd5b600061393482612aab565b91507fffffffffffffffffffffffffffffffffffffffffffffffffffffffffffffffff8203613966576139656138fa565b5b600182019050919050565b7f4e487b7100000000000000000000000000000000000000000000000000000000600052603260045260246000fd5b7f4f6e6c79207468652063757272656e74206f776e65722063616e207472616e7360008201527f6665722070726f64756365000000000000000000000000000000000000000000602082015250565b60006139fc602b8361335f565b9150613a07826139a0565b604082019050919050565b60006020820190508181036000830152613a2b816139ef565b9050919050565b7f5472616e7366657272656420746f20616e2061676772656761746f7200000000600082015250565b6000613a68601c8361335f565b9150613a7382613a32565b602082019050919050565b600060a082019050613a9360008301876132cb565b613aa060208301866132f5565b613aad60408301856132f5565b613aba60608301846132cb565b8181036080830152613acb81613a5b565b905095945050505050565b7f5472616e7366657272656420746f20612072657461696c657200000000000000600082015250565b6000613b0c60198361335f565b9150613b1782613ad6565b602082019050919050565b600060a082019050613b3760008301876132cb565b613b4460208301866132f5565b613b5160408301856132f5565b613b5e60608301846132cb565b8181036080830152613b6f81613aff565b905095945050505050565b7f43616c6c6572206973206e6f7420616e2061646d696e00000000000000000000600082015250565b6000613bb060168361335f565b9150613bbb82613b7a565b602082019050919050565b60006020820190508181036000830152613bdf81613ba3565b9050919050565b7f536f6c6420746f206120637573746f6d65720000000000000000000000000000600082015250565b6000613c1c60128361335f565b9150613c2782613be6565b602082019050919050565b6000608082019050613c4760008301866132cb565b613c5460208301856132f5565b613c6160408301846132cb565b8181036060830152613c7281613c0f565b9050949350505050565b6000604082019050613c9160008301856132f5565b613c9e6020830184612ea0565b939250505056fea26469706673582212206e05a09dd1bc44e8da66b889a2f7b2e5fbbc6b7e0fd99bf732f0d709907d290f64736f6c63430008180033",
  "linkReferences": {},
  "deployedLinkReferences": {}
}