{
  "_format": "hh-sol-artifact-1",
  "contractName": "Test",
  "sourceName": "contracts/Test.sol",
  "abi": [
    {
      "inputs": [],
      "stateMutability": "nonpayable",
      "type": "constructor"
    },
    {
      "inputs": [],
      "name": "counter",
      "outputs": [
        {
          "internalType": "uint256",
          "name": "",
          "type": "uint256"
        }
      ],
      "stateMutability": "view",
      "type": "function"
    },
    {
      "inputs": [],
      "name": "increment",
      "outputs": [],
      "stateMutability": "nonpayable",
      "type": "function"
    }
  ],
  "bytecode": "0x608060405234801561001057600080fd5b5060008081905550610163806100276000396000f3fe608060405234801561001057600080fd5b50600436106100365760003560e01c806361bc221a1461003b578063d09de08a14610059575b600080fd5b610043610063565b604051610050919061009b565b60405180910390f35b610061610069565b005b60005481565b60008081548092919061007b906100e5565b9190505550565b6000819050919050565b61009581610082565b82525050565b60006020820190506100b0600083018461008c565b92915050565b7f4e487b7100000000000000000000000000000000000000000000000000000000600052601160045260246000fd5b60006100f082610082565b91507fffffffffffffffffffffffffffffffffffffffffffffffffffffffffffffffff8203610122576101216100b6565b5b60018201905091905056fea2646970667358221220ad9dbfd703eceb092a954783339599c4a3526d29af2bd122212d98fa3f8bd82e64736f6c63430008180033",
  "linkReferences": {},
  "deployedLinkReferences": {}
}